:020000041000EA
:1000000000B5324B212058609868022188439860DF
:10001000D860186158612E4B002199600221596106
:100020000121F02299502B49196001219960352056
:1000300000F044F80222904214D00621196600F024
:1000400034F8196E01211966002018661A6600F04E
:100050002CF8196E196E196E052000F02FF8012189
:100060000842F9D1002199601B49196000215960AB
:100070001A491B48016001219960EB211966A021F2
:10008000196600F012F800219960164914480160C1
:100090000121996001BC002800D000471248134993
:1000A000086003C880F30888084703B5996A0420EC
:1000B0000142FBD001200142F8D103BD02B5186610
:1000C0001866FFF7F2FF186E186E02BD00000240BE
:1000D000000000180000070000035F00212200005C
:1000E000F4000018222000A00001001008ED00E03C
:1000F00000000000000000000000000074B24E7A12
:1001000000200420F7010010CB010010CD010010E9
:10011000C9010010C9010010C9010010C901001077
:10012000C9010010C9010010C9010010CF01001061
:10013000C9010010C9010010D1010010D301001045
:10014000C1010010C1010010C1010010C101001067
:10015000C1010010C1010010C1010010C101001057
:10016000C1010010C1010010C1010010C101001047
:10017000C1010010C1010010C1010010C101001037
:10018000C1010010C1010010C1010010C101001027
:10019000C1010010C1010010C1010010C101001017
:1001A000C1010010C1010010C1010010C101001007
:1001B000C1010010C1010010C1010010C1010010F7
:1001C000EFF30580103800BE00BE00BE00BE00BECA
:1001D00000BE00BEF2EB8871B0450010E045001093
:1001E0003802001090A31AE71E481F49086006C88D
:1001F00081F3088810471D480068002801D019487D
:10020000F3E70DA40ECC002902D000F012F8F9E7B4
:100210001749184A002000E001C19142FCD116495B
:100220008847164988471649884700BEFDE701C937
:1002300001C29A42FBD37047E0450010C000002085
:10024000DC110020FC5600100000042000000420F7
:10025000FC560010001004200010042000000000D4
:10026000704700000000000008ED00E0000000D032
:10027000DC1100206C200020D1220010350300107A
:10028000C9220010F8B5C0460448054B10B583429A
:1002900003D0044B002B00D0984710BDDC11002088
:1002A000DC1100200000000006480749091A8B10E5
:1002B000C90FC91810B5491003D0044B002B00D04A
:1002C000984710BDDC110020DC1100200000000068
:1002D00010B5074C2378002B09D1FFF7D5FF054B4C
:1002E000002B02D0044800E000BF0123237010BDA2
:1002F00060150020000000006C410010054B10B597
:10030000002B03D00449054800E000BFFFF7CCFFF5
:1003100010BDC04600000000641500206C410010B4
:1003200010B500F05DFA00F06DFA642001F0D4F928
:10033000F9E7C046F0B5DE4657464E464546E0B5BD
:10034000012687B002F0BCF803F00AFD002100206E
:1003500003F0A4FB00F00CF900F0AAF91E4803F02A
:100360006BFD1E4B1E4D9B461E4B1F4F9A461F4B4F
:1003700005AC99461E4B98461E4B02931E4B0393A9
:1003800001200021404202F05BFC4A460023117824
:10039000424623601078524600935B4600F080F896
:1003A00029782070029B3878039A009600F078F83C
:1003B000607000F023F86080002003F0A9F90028A5
:1003C00005D0042322000021002003F0BDF9052000
:1003D00001F082F9D4E7C04621030010602000201C
:1003E0005E200020510F00205F2000205D200020B3
:1003F0005C20002061200020500F0020F0B54E4608
:100400004546DE4657460023E0B583B00093204BB7
:1004100000219846D0231B069C4600231D48994680
:100420001D4D1E4E10E04F46AF54B75CBA46835484
:100430005346002B05D001238B40009F1F43BBB2C6
:100440000093013110291BD0434601275A5C6346B3
:1004500097405B683B401F007B427B41875C9F422B
:10046000E1D1AF5CBA46022F06D80127BA445746FD
:10047000FFB2AF54032FD8D1DFB2BA46B354D6E798
:10048000009803B0F0BCBB46B246A946A046F0BDFA
:10049000F41A002098150020B41500207C150020C7
:1004A000F0B5CE464746012580B583B00C000AA9B9
:1004B0000F78D021854009064968994629404D4268
:1004C0006941214D2E5C8E4222D0204EB44600263A
:1004D00063461E541E4E335C98462954D0210906AB
:1004E00048680121A140084041424841295D8142BC
:1004F0001DD0002163461955315D28554B464046B5
:10050000009700F0FFF803B0C0BCB946B046F0BD9C
:100510000E4B1E5C9C46022E04D80136F6B21E54C9
:10052000032ED7D10A4ECBB298463154D5E7634655
:10053000195D022904D80131C9B219550329DBD14B
:100540003055C1B2D9E7C04698150020B415002037
:100550007C150020E4200449044A0B78135401223E
:1005600053400B707047C04668200020540F002095
:100570008023F0B55746DE464E4645469B46E0B5DD
:10058000414B424F9A46424B83B0BB4401937B6838
:10059000002499460823534498461D003E6803E012
:1005A000013408351C2C65D03100286803F092FC1A
:1005B0000028F5D1E400544423794946019A0837CC
:1005C00053545F45E3D145460024324E03E00134E5
:1005D00008351C2C50D03100286803F07BFC002823
:1005E000F5D1E400544422792B4B454600242B4E90
:1005F0001A7003E0013408351C2C43D03100286800
:1006000003F068FC0028F5D1E40054442279244B1F
:100610001A704246002303E0013308321C2B2FD00E
:10062000116808785528F7D148785028F4D189788E
:100630000029F1D1DB0053441A791A4B00241A4DDA
:100640001A7004E00823013498441C2C16D0434649
:100650002900186803F03EFC0028F3D1E40054445C
:100660002279124B1A7003B0F0BCBB46B246A946C1
:10067000A046F0BDFF23A0E7FF22B5E7FF22F0E789
:10068000FF22DAE7FF22C2E7540F00203C430010AC
:10069000F41A0020844100105C2000208C410010DE
:1006A0005D2000205F200020984100105E20002087
:1006B000F0B50123C646D027104D98462C1D00B535
:1006C0000F4EE4353F0602E00834AC4213D031004F
:1006D000606803F0FFFB0028F6D0207800F0B8F93E
:1006E00043462078002283400121BB62083400F099
:1006F0009DF9AC42EBD180BCB846F0BD540F002050
:10070000804100106A4612789446204A1278022AE4
:100710001BD00AD8002A12D0002812D000291ED0DF
:100720006346002B1BD100207047032AFBD1002811
:100730001DD0002921D17F2040421870F4E7002805
:100740000BD10029EFD07F20EEE700280AD1002945
:1007500010D07F227F201A70E6E70029E3D17F20A6
:100760004042E1E700290CD000201856DCE77F303A
:100770000029E2D100221A70D5E71878404240B231
:10078000D2E781227F201A704042CDE76620002008
:100790000022014B1A707047662000200122014B95
:1007A0001A707047662000200222014B1A707047B1
:1007B000662000200322014B1A707047662000203B
:1007C000E621024A024B525C1A707047540F002017
:1007D000662000200021002010B501F0E9FAC04693
:1007E0000648074A031DE430596811601978083338
:1007F000117108328342F7D17047C046540F002070
:100800004C1F0020F0B5DE4657464E464546E0B543
:10081000524B83B00093524B9B46009B5F46002691
:100820001D6804E0013608371C2E00D179E029004C
:10083000386803F04FFB0028F4D10121F600D023E3
:100840005E4432791B0691405B680B405A4253412B
:10085000DBB29A46009B5E465B6800271C00019352
:1008600003E0013708361C2F50D02100306803F018
:1008700031FB0028F5D1D0231B065A6853465C464D
:10088000002B43D00121FB005B441B7999400A42B5
:100890003CD1E0235B449946324B1F00D0231B061A
:1008A0009A4626683900300003F014FB002812D065
:1008B000534601215A68237999400A420BD12900F5
:1008C000300003F007FB002805D03000019903F049
:1008D00001FB00281AD10834A145E2D1009B1B7C02
:1008E000002B21D10123009C237401F005F8009B0B
:1008F0001D4A2033A061E161009393428DD103B082
:10090000F0BCBB46B246A946A046F0BD0022009B03
:100910001A74009B144A20330093934200D07CE762
:10092000EDE700239A4695E7009EB469F56900F06B
:10093000E3FFB268001BA94153019B1A9B009B185F
:100940000022DB008A42E4DC01D18342E1D8009C32
:10095000E368984700232374DBE7C046401000207B
:100960004C1F0020804100100011002000487047FB
:100970001C44001000487047C043001000487047F6
:10098000F443001010B5002825D0032829D8164BB1
:100990008000C458200003F0E1FAC1B2081C1F29EE
:1009A00017D8124BC0229C46C0B2431CDBB2920047
:1009B0005B0013436246138000230232002906D0F5
:1009C000E15C01331180D9B202328842F8D8604626
:1009D00010BD1F20E5E7054B9C466246044B1360A3
:1009E000F5E70020F4E7C046E4430010D0150020EE
:1009F000040309047047C0460020704710B5402426
:100A0000074A83009A181268C0005440C02222404E
:100A1000044C1B191A60044BC018416010BDC0463D
:100A200004C0014004D0014000400140064B80005A
:100A3000C3181B68C90092000A435A400C23134094
:100A4000024A80180360704704C0014004D001408E
:100A50000123D0228340120693629361084A8300E7
:100A60009A1811684022514080320A400549C0005E
:100A70005B181A60044BC018052343607047C046DA
:100A800004C0014004D00140004001408023DB0548
:100A90001868000F7047C0460FB400B5084883B00F
:100AA00001F05EFD049B002B07D005A91800019101
:100AB00001F0F0FB034801F053FD012001F002FCBE
:100AC000104200102042001070B58C461600EFF363
:100AD000108472B60F490B68002BFCD0BFF35F8FF8
:100AE0006346DB08C5180722C05C63461A40012331
:100AF00093401A000240034207D118432870BFF305
:100B00005F8F0A6084F3108870BD61463000FFF784
:100B1000C3FFC0462C0100D0F8B5CE4647468C46F0
:100B200080B51C00EFF3108872B61C490B68002BCF
:100B3000FCD0BFF35F8FA24221D80723994602E081
:100B40000132944218D34946012611408E40D30801
:100B5000C718C35C1E42F3D1100033433B70BFF390
:100B60005F8F00220D4B1A6088F3108800280EDB7F
:100B7000C0BCB946B046F8BD01204042EFE7BFF324
:100B80005F8F00230B6088F310880120404263468A
:100B9000002BEDD00898FFF77FFFC0462C0100D056
:100BA000044A1078431CDBB2172B00D910231370B2
:100BB0007047C0460011002000B5054B83B001000E
:100BC000009318221F230348FFF7A6FF03B000BDC0
:100BD000244200100C1B00200021044B044ABFF3E8
:100BE0005F8F02C39342FAD17047C046000100D024
:100BF000800100D0084B094A1360094A1360094A72
:100C00001360094A1360094A1360094A1360094ACC
:100C10001360094A136070478080808000E400E020
:100C200004E400E008E400E00CE400E010E400E08C
:100C300014E400E018E400E01CE400E01F23184086
:100C40001E3B8340002905D0C021044A490053506F
:100C500013607047802201498B50FAE700E100E001
:100C600001228240034B1B6813405A1E9341D8B2A5
:100C70007047C04600E100E070B50D00EFF310864C
:100C800072B60F4A1368002BFCD0BFF35F8F0D4B79
:100C900010309B6884001B590B4A934203D09D423D
:100CA00001D001F0A9F8074B9B681D51BFF35F8F7E
:100CB000BFF35F8F0022024B1A6086F3108870BD6D
:100CC000240100D000ED00E0C1010010F0B5DE46C7
:100CD00057464E464546E0B5824683B08B461700E0
:100CE000EFF3108872B6604A1368002BFCD0BFF394
:100CF0005F8F00255D4B5D579946002D00DA9AE025
:100D00004A466B005A4C5E19B6000193A319009332
:100D10009B791370574B9A68534610339B00D158F8
:100D200099460B1B2F2B32D9534B994200D098E098
:100D3000019B0236ED18514BAD006353504BA61981
:100D4000043B9B1B4F4A1B055B0D651913436B80CE
:100D50004D4B0121AB80FF23AB715B46AB60009B29
:100D6000EF710B4319004A46424B9B689950BFF301
:100D70005F8FBFF35F8F00223B4B1A6088F31088B0
:100D800003B0F0BCBB46B246A946A046F0BD012068
:100D90000A008243D379B446BB422DD83B4BB51CE5
:100DA000190013001B1B5B415943090D8C46334B43
:100DB0006519A353324B0099043B5B1B1B05314D56
:100DC0005B0D2B4304364B80A619131F9B1B1B0581
:100DD0005B0D1D4363468B715B468B602C4B8D8096
:100DE000CF7113600143BEE75800C018800020187F
:100DF000C679BE4225D902000623D356002BF3DA6A
:100E00009A46131D9C4623486346009E9571043EF6
:100E1000F61A36051B4B760D1E43019B96805A1918
:100E200053469200A418A3715B46194AA080226021
:100E3000E771A36097E700F0DFFF00254B465D57A1
:100E40005EE766469A46131D9C4690880436400528
:100E50000015A6196044801B00050A4E400D304362
:100E6000D2E700F0C9FF63E7240100D0672000202B
:100E70000411002000ED00E0C101001000A1FFFFFF
:100E80003411002000E0FFFF01BDFFFFAAAA00000F
:100E90000148804701BD0000F0B54546DE46574693
:100EA0004E46E0B50D0083B0EFF3108872B6604A8D
:100EB0001368002BFCD0BFF35F8F5E4B5E499A68CE
:100EC000030010339F00D45999468C423ED0AC4267
:100ED0004FD05A4EA21B2F2A38D8594B1A689C461D
:100EE00013000122824013401F22024001209A4633
:100EF00090406346802283469850BFF35F8FEFF3A4
:100F000005830193002B36D0994501D000F074FF82
:100F1000012322009A439068854208D176E04B0075
:100F20005B189B00F3189868854236D01A0006219A
:100F300051560029F3DA854254D05346002B27D06E
:100F4000C02259463E4B520099501960394B9B685C
:100F5000DC51BFF35F8FBFF35F8F0022344B1A6009
:100F600088F3108803B0F0BCBB46B246A946A04641
:100F7000F0BD0C00EAE7220001339A4390688542F5
:100F8000D5D106201056130000280ADA0C0031E0F3
:100F9000802359462A4AD150D8E7062018560028FF
:100FA00021DB42001118890075188946A9689960EB
:100FB000E979D971062169569971002924DBAD8838
:100FC000F11A6D052D154D44491909051D4D490DA1
:100FD0002943998013181C4A9B001178F3189971C2
:100FE0001070AAE713000199002914D1FF31917103
:100FF0001649918014490A789A71154A9B1B5B41E6
:101000005A43120D0A7098E71049E2E7062010567D
:1010100013000028C5DA0F4A0F49D21A083A5002C5
:10102000400D014399800D4952080A43DA8084E754
:10103000240100D000ED00E0C101001004110020E7
:1010400000E100E000E0FFFF6720002001BDFFFF9E
:10105000AAAA00003E11002000F0FFFF00F8FFFFE9
:101060000123034370B59C46EFF30581EFF3108530
:1010700072B6214A1368002BFCD0BFF35F8F1F4B61
:1010800004001F4AE41A64416243120D1D4C89009A
:10109000A66852B2765866451CD006215956914230
:1010A0001CD012215956914222D01E2159569142EC
:1010B00020D02A2159560324914210D0124B19787E
:1010C0001A708171BFF35F8F00220B4B1A6085F39A
:1010D000108870BDA3680D4C5C50EFE700246100E0
:1010E000091989005B18FF21997109499980E5E781
:1010F0000124F4E70224F2E7240100D004110020C7
:10110000AAAA000000ED00E067200020C101001045
:1011100001BDFFFF024BC918890001607047C0463E
:101120004000003470B5114C114DAC420FD2FF2677
:101130002368002B0CD0FFF733FD01002000FFF7E0
:10114000E9FFA680BFF35F8F0834AC42F0D370BDD7
:10115000FFF726FD01002000FFF7DCFF2671BFF33B
:101160005F8F0834AC42E3D3F1E7C046CC110020D6
:10117000DC11002010B50400FFF712FD0100200073
:10118000FFF7C8FFFF232371BFF35F8F10BDC04679
:1011900010B504000120FFF70FFD034BC0188000BD
:1011A0002060BFF35F8F10BD400000340A4B196808
:1011B000EFF3108072B60A68002AFCD0BFF35F8F8D
:1011C0001B68BFF35F8F00221A6080F3108840BF56
:1011D000002000217047C0464C200020F0B5DE46BC
:1011E00057464E464546E0B585B0EFF305830322EA
:1011F0001A40B34B91005F58012393409B460292E3
:101200005A468846AF4B1A60AF4B03935B46AF48D4
:1012100043630823FE5E002E37DABB881BB2002B27
:1012200000DBA4E0BB79002B00D0E5E00823F95EE9
:10123000002920DB4B007A695B18DB00D3189D681E
:10124000DC686B1C00D104E1A04801004144826AC3
:101250000B69AE1A9B1A9E4215D30123026A0298AB
:1012600083401A420FD0994800F03EFB8C4202DCCA
:10127000CCD18542CAD940BF05B0F0BCBB46B2460E
:10128000A946A046F0BD0D61EDE77A69730091466D
:101290009B19DB0099444B469C68DD6800F024FBF9
:1012A0008D42BADC00D1F6E0002D00DADBE04A46E0
:1012B0004B4652691B699246039A934200D1CCE097
:1012C0004A460821785E52880004514610439847E8
:1012D000009001910099019A0B00134300D1C2E0E4
:1012E00013000A00002B00DBD9E020002900801A3F
:1012F00099414B469860D96000229B5E002B00DA32
:101300008BE75D007C69EA18D200A218009494680B
:10131000D268A2468A4200DD7FE702D1844200D92A
:101320007BE70824A4463B81BC44009C00972F0027
:101330006546B4463E0006E05E00F218D200A218F0
:101340009768D268BA468A4207DC00D1B4E0F31845
:10135000DB00E518E35E002BEEDA66464A46009FA6
:1013600013802E80BB881BB2002B00DA5AE73A6943
:10137000EFF3108172B61368002BFCD0BFF35F8FC0
:101380000123BE885B42BB8036B23B69BFF35F8FEF
:1013900000221A6081F31088002E00DA42E73B0039
:1013A00008333A0099467D6973009B190824115F40
:1013B000DB004846EB18002913DB9C680093A44629
:1013C000DC6806E0A34240D00023F95E3800002923
:1013D00006DB4F007F18FF00EF19FB68A342F1DD29
:1013E000009B068000201E5E1980002EDCDA1700AC
:1013F000BB79002B00D119E70023BB710823F95EEC
:101400004B1C00D137E73D000835AC467C6903E052
:1014100084464B1C00D109E74B005B18DB00E01849
:101420000A00E15E43881BB2002BF1DA01256D4210
:10143000EE178560C66008257B5F9342E9D063465E
:1014400019803B8903803A81E3E7BB686345BBD9D8
:10145000C6E7631C00D0F7E605E7534650461B6914
:101460009847002823D14B461B883A693B81EFF30C
:10147000108372B611680029FCD0BFF35F8F494614
:101480007A880A803A697E80BFF35F8F00211160FD
:1014900083F31088C1E6844200D805E7BDE60B4817
:1014A00000F022FA009B019CC018614121E75346DD
:1014B0000CCB009201930DE7824500D847E74CE73B
:1014C000302000203C700540DD1100100040054038
:1014D00070B52D4C2569002D04D00A212B48FFF74B
:1014E00019FE70BD2A4E0321294800F0F3F9E66089
:1014F000FFF756FB274B0322C018D02322701B0690
:101500001B6801216370244B8000A3600F232061BE
:101510000220638063694942A180198002311986E3
:1015200047311D83585218315A5275325C399952DD
:101530001832013199521832013199521832013161
:101540009952083518329D52023118329952183288
:1015500001319952183201319952183201319952A0
:101560001832013199521832013199520B4B0C4902
:10157000DC6001303562FFF77FFB01210320FFF7BC
:101580005DFB084B1D60A8E74C1100204C2000209B
:101590000040054040000034FFFF100030200020D4
:1015A000DD1100103860054070B582B000920193E3
:1015B00001000269EFF3108472B61368002BFCD0AF
:1015C000BFF35F8F0223C85E0D6900283FDB4A69C5
:1015D000430016001B18DB00D218F35A4B80BFF3F0
:1015E0005F8F00232B6084F31088069B1361079B99
:1015F0005361009B019C9360D460538801335B046A
:101600005B0C1D1C002B20D0ACB20304558023437F
:101610000D69EFF3108C72B62C68002CFCD0BFF370
:101620005F8F8C88148088800A69BFF35F8F0020E9
:1016300010608CF310880A7801309040CA6808491D
:1016400052181060180002B070BD0125DCE7BFF32E
:101650005F8F00232B6084F31088013BF2E7C046C4
:101660003C20000010B543890A1493421ADD530050
:101670009B184269DB00D3180469EFF3108C72B633
:101680002268002AFCD0BFF35F8F5A88090494B205
:10169000090C8A4208D00369BFF35F8F00221A60E9
:1016A0008CF31088002010BD094A22435A80012380
:1016B00002698371BFF35F8F002111608CF3108882
:1016C000027804499340C268012052181360EAE787
:1016D0000080FFFF3C200000F0B5C64600B582B098
:1016E000040000F009F9FA2206000F002000002390
:1016F0000021920000F04EFD8019794104000D1E7A
:1017000002DA01242E4D644206267642F717361976
:101710006F41AF4214D811D000F0EEF832003B0018
:10172000121A8B41002B15DC002B46D0200029001B
:1017300000F022F902B080BCB846F0BDA642EBD959
:101740000026002700F0D8F832003B00121A8B4127
:10175000002BE9DD00F0D0F832003B00121A8B417B
:10176000002B0ADB00230193164B3200009316482E
:101770003B00FFF719FF0130D8D000233900B046F5
:101780009C46124A1248536A994204D8966A4645C2
:10179000CCD29942CAD10668EFF3108772B633688B
:1017A000002BFCD0BFF35F8F0368BFF35F8F6646EB
:1017B0001E6087F3108820BFE5E7002AB6D0C9E78E
:1017C000FFFFFF7FAD1100104C11002000400540CD
:1017D0004C200020F0B5CE46474680B504000D00F1
:1017E00085B0EFF305868946002E10D036490020DB
:1017F0004B6AAB4206D38A6A5B1B591E8B41A242DD
:101800004041184305B0C0BCB946B046F0BD2F4FAB
:10181000FB683A7898461800039200F065F8039A3E
:10182000131D42469B009B5822001B1A9C462B000E
:10183000121A8B419E4210DC0DD020BF224A00209C
:10184000536A4B45DED3926A5B1B591E8B41A24201
:1018500040411843D6E79445EFD900F04DF82200F7
:101860002B00121A8B41002B1BDB00230193184B1A
:101870002200009338002B00FFF796FE002810DDB1
:10188000114B5A6A4A451CD39B6AA34217D30100E5
:101890003800FFF7E7FE0C4A0020536A4B45B1D3EE
:1018A000D1E7094A0020536A4B45ABD30020926A26
:1018B0005B1BA24240415A1E93411843A2E74A458E
:1018C000E5D120BFE3E7C046004005404C110020B1
:1018D000AD11001010B5024A0248FFF7F5F810BD2F
:1018E00040420010101B00200300416A0A00986A61
:1018F000596A8A42FAD17047034B596A0A00986ABA
:10190000596A9142FAD170470040054070B5050010
:101910000E00184A536A1900946A536A8B42FAD12E
:10192000200019002C00350024184D41AB4216D878
:1019300013D0104B2A005B6A9D4203D90D494B6AB4
:101940009342FCD3934207D10A4A02E0516A99427A
:1019500002D1916AA142F9D370BDA042E9D9054BE9
:101960005B6A1C005A1CEFD0012201246442E51777
:101970005242E3E700400540064A536A9942FCD8C8
:1019800007D1044B02E05A6A914202D19A6A90420E
:10199000F9D8704700400540F8B5040006200D0056
:1019A00000F06EF9002843D0364B3749E3185A1E31
:1019B000934180225B429B0D12049B059B18334A86
:1019C0001360334A136018000A689043FBD12D4B13
:1019D000304AE31859424B4180215B004900062000
:1019E000995200F04DF92900C00000F045FB01308C
:1019F000C3091ED1402701226262A362266BF3074E
:101A000022D4E36A244B0620E51800232B602663CA
:101A100000F036F93900800000F02EFB7023E26AF6
:101A20005A400E3313402B601C4B23630323A364E3
:101A3000F8BD1B4A93421DD900231A4A1A4F62620D
:101A4000A362266BF307DCD5184B144AE3181A601F
:101A5000656AA36A0620AD01ED1800F011F914497A
:101A600000F00AFB0100A80200F006FB0021FFF7CE
:101A70004DFFC6E740069A01800E17181A000300B2
:101A8000BAE7C0460080FCBF08C0004000E000404C
:101A900000F00040502000202C1000000103000046
:101AA000FEFF0000FFFF0000C0FF3F0030300000DD
:101AB0004E0E0000F8B5DE464E4645465746E0B5A8
:101AC00005008B4618000A99914600F0D5FA0A9B4A
:101AD0006C001E026419304BA400E4186368804651
:101AE0009E4200D966602F1FFBB29A46012B2FD968
:101AF000C0238022294FAD009B0179591201E318C0
:101B00001A6000291BD14B4622685B015340E0223A
:101B1000134080225201A21813605346012B2FD983
:101B2000802380229B01E31812011A6043466660FD
:101B30007B51F0BCBB46B246A946A046F8BD7869C9
:101B400000F09AFA013043001B18033BFDD2DAE79C
:101B50005B46012BCCD1C02303229B01E3181A6002
:101B6000023AA3681A42FCD04A46236852015A40FE
:101B7000E023134080225201A218084F1360AD00E9
:101B800058460323216841400B40136001228240E4
:101B9000A3681A42FCD0C3E700800040141B002059
:101BA000F0B5D6464F464646440098462418324B78
:101BB000A400E41863688A469146C0B5FF2B02D89A
:101BC00080235B006360061FF6B2012E2FD9C0236D
:101BD00080222A4F85009B0179591201E3181A606F
:101BE00000291BD14B4622685B015340E022134081
:101BF00080225201A2181360012E30D98023802246
:101C00009B01E31812011A6080235B006360434666
:101C10007B51E0BCBA46B146A846F0BD786900F0F9
:101C20002BFA013043001B18033BFDD2DAE7534681
:101C3000012BCCD1C02303229B01E3181A60023A86
:101C4000A3681A42FCD04A46236852015A40E02356
:101C5000134080225201A218084F1360850050469D
:101C60000323216841400B40136001228240A36896
:101C70001A42FCD0C2E7C04600800040141B00207E
:101C8000014B8000C0587047141B0020F0B5C646B9
:101C9000040000B52348160098460D0000F0ECF94A
:101CA0000100300000F0E8F94346069A1B041203D5
:101CB00013439C4623680600002B22DB1A4B1B486B
:101CC000E218531E9A4180235242120B9B011203C9
:101CD000D218174B1A60174B1A60130001688B4318
:101CE000FBD12122144B2560E318A6601A602268FC
:101CF000002AFCDA6246E26008221A6080BCB8461C
:101D0000F0BD3F2322681340AB42D7D1A3681B0527
:101D10001B0D8342D2D1EE22E368D2021340634509
:101D2000CCD1EBE7001BB7000040FDBF08C000406E
:101D300000E0004000F00040043000008023024A30
:101D40009B000B43D362704700800540002310B511
:101D50000100988A1B8B984710BDC046162310B50A
:101D6000010018885B88984710BDC046F8B5474603
:101D7000CE4680B50F1E18D01423994604330400B4
:101D80000025012698464B461888434621681B8843
:101D9000984701C4431E984101350640AF42F2D135
:101DA0003000C0BCB946B046F8BD0126F8E7C046D1
:101DB000002370B504000D00988A03491B8B9847D7
:101DC000290003002000984755420000AA23064A34
:101DD0001B0113608D235B00D3600449044B196021
:101DE0005368002BFCDA70470040024000B0FA0054
:101DF000006002407047C04610B50148FEF74CFE37
:101E00006442001070B5074D074EB54209D2002458
:101E1000013E761BB608013608CD01349847B4421E
:101E2000FAD170BD204100105C41001070B5074D23
:101E3000074EB54209D20024013E761BB608013692
:101E400008CD01349847B442FAD170BD5441001016
:101E50005C410010054B064A06491A60064A074BCA
:101E60001A6010000B689843FBD1704700E00040F7
:101E7000BFCDFBFE08C00040FE7F3C0000F00040EC
:101E8000044BDB6C002B03D18022034BD2021A607F
:101E90007047C046000011504C201150044A054BB9
:101EA0001A60054A1368DB018033FBD17047C046D6
:101EB000FFFFFF0100F0004008C000404022034B3C
:101EC0009A675A671A67DA667047C04600F00140A1
:101ED00010B5FEF781FE10BD70B52849284D294E7A
:101EE0006D1AAC102200302C00D930223000920044
:101EF00000F0C2F9BC2D3DD823002A3B224A052B15
:101F00001DD9302075196D07A446001BEB0F002D5D
:101F100003DA611C8C46A1007250C01AE3189B00C2
:101F20004108F318C900C9181A605A600833994269
:101F3000FAD1012303421DD0984360440400A3005A
:101F4000F250631C2F2C15D09B00F250A31C2E2C9A
:101F500010D09B00F250E31C2D2C0BD09B00F250B4
:101F6000231D2C2C06D09B00F250631D2B2C01D07E
:101F70009B00F250054B9E6070BDC04600010010F2
:101F8000C001001000000020C101001000ED00E0C1
:101F9000002310B5294C82B0A367FFF717FF012279
:101FA000274B1A60636C012BFCD10322254B1A606E
:101FB000224A936B012BFCD1013300930121224A69
:101FC00022480433FFF762FE052301210093204AD3
:101FD0002048FFF75BFE0022022104201E4BFFF782
:101FE000DFFD0022012105201C4BFFF7D9FD002257
:101FF000002107201A4BFFF7D3FD00220021082003
:10200000174BFFF7CDFD8023DB000093002200215A
:102010000920134BFFF74EFD0022104B0021062034
:10202000FFF7BEFD0420FFF72BFE0E4900F024F859
:1020300001000020FFF782FE02B010BD00800040CA
:102040003CB0004030B00040002F68590080024092
:10205000008C864700C00240001BB7004059730740
:10206000006CDC0240420F0001480421014B18477C
:10207000701100206D1D0010114A936F9B0813D240
:1020800010665166002905D0FFE7FFE7FFE7516FB3
:10209000106F704704B5002801D00020C04302F043
:1020A00007F8002104BDC046F0B5146E556E576F99
:1020B000166FFFF7E5FF1466556657671667F0BDA4
:1020C000000000D0132370B51D78012D19D014DD48
:1020D0001F48FFF743FE06001E48FFF73FFE1E4C59
:1020E00080223100200000F0C7F8022D2DD01B48BF
:1020F000FFF72CFE1A4B186070BD1A4B164CA364E8
:10210000F5E7184B144C23606360A360E360236120
:102110006361A361E36123626362A362E362236399
:102120006363A363E36323646364A364E364236579
:102130006365A365E36523666366A366E366236759
:102140006367A367E367A364D1E7064BA364CEE7A5
:102150005344000053460000601300204C3300003D
:10216000482000206921001007B5604601880A0A4E
:102170000230DF2AFAD1C9B2820804D3028840882B
:102180000004104300E00068014A5050039007BD6E
:102190006013002051434343C9188C46110C83B28D
:1021A0004B4310B4040C614392B280B2504362437B
:1021B0001C041B0C001910BC59411304120CC0184C
:1021C0005141614470470000132310B51C78134837
:1021D000FFF7C4FD012C0BD004DD01008022104864
:1021E00000F04AF80F48FFF7B1FD0F4B186010BD23
:1021F0000B4C01005422200000F03EF80B4B6365AD
:10220000A365E36523666366A366E3662367636786
:10221000A367E3672362E361E4E7C0465346000037
:10222000601400204C3300004820002031220010B0
:1022300007B5604601880A0A0230DF2AFAD1C9B21E
:10224000820804D3028840880004104300E000683C
:10225000014A5050039007BD60140020014804213A
:10226000014B1847801100206D1D0010014B1B68A9
:102270001847000080110020014B5B6818470000E0
:102280008011002010B5002800D110BD00F01EF90B
:10229000FBE7C04610B5094A0300146884B0002C5F
:1022A00008D0012200910648524203A9A04701200C
:1022B00004B010BD00F054F90020F9E7481F0020D9
:1022C0008522001000BEFDE710B5FFF7FBFFC046FA
:1022D00070B5FFF797FD074D074EB54209D20024B0
:1022E000013E761BB608013608CD01349847B4424A
:1022F000FAD170BD5C4100106C410010030010B5B4
:10230000080011001B68984710BDC046F8B5437D12
:1023100007000D001600002B38D0002A1ADD0B78BC
:102320000A2B18D00020012E09D0012421006B5C5B
:1023300001340A2B1AD0B442F8D1864203DD311A97
:102340003B6828189847AD19013D2B780D3B5A4240
:1023500053413B75F8BD037D002BE3D102210E48AC
:102360003B689847012EEED00120DEE76B1E5B5CD8
:102370000D2BE0D0884203DA091A3B6828189847E9
:10238000054802213B6898472000D4E70368110004
:1023900028009847DEE7C04684440010F0B5464662
:1023A000D6464F46C0B582B090461C0006000D00D0
:1023B000FFF7A2FA00232F4A12184B41002B02DA32
:1023C00001222D4B52422D4908008A4601F088FE19
:1023D00081466B1C03D1300001F0C0FD0500002CCC
:1023E00027D0274F274B1C68002C18D04346002BC2
:1023F00021D1254B984602E02469002C0FD0236898
:10240000002BF9D043461B68002B01D09C42F3D12E
:1024100020002A003100B8472469002CEFD14B4638
:10242000002B23D1280002B0E0BCBA46B146A84632
:10243000F0BD164FD6E7144B984602E02469002CF5
:10244000EDD02368002BF9D043461B68002B01D048
:10245000A342F3D12A0031002000B8476B460A227C
:102460002000DA71D91D093AB847E7E7504601F074
:1024700017FED7E740420F00FFFFFF7FD411002077
:102480000D2300103C1B0020441B0020FD220010E7
:102490000A4A1368002B05D10CE01A001B691032A0
:1024A000002B07D08342F8D1002902D118691060AF
:1024B000196170470029FCD01060FAE73C1B00202E
:1024C00010B500F037F9012010BDC046F0B5CE467A
:1024D000474680B583B06B460600DD1D2870FFF7C8
:1024E0000BFA0023194A12184B41002B02DA012281
:1024F000174B524217490800894601F0F1FD164B6F
:1025000080461C68002C14D0144F02E02469002C73
:102510000FD02368002BF9D03B68002B01D09C42E0
:10252000F4D1200001222900FFF7F0FE2469002CDD
:10253000EFD14346002B05D1300003B0C0BCB946F3
:10254000B046F0BD484601F0ABFDF5E740420F0054
:10255000FFFFFF7FD41100203C1B0020441B002004
:1025600070B5040001F0FAFC01230100050001220E
:102570002000FFF713FF084B1C68002C06D063688F
:10258000002B05D098472469002CF8D1280070BD95
:102590002469002CF3D1F9E73C1B0020F0B5002999
:1025A00015DD0E4B0D271A680D4B0E4CD3185D42EE
:1025B0006B41451820215B001E5F0478A64207D0BE
:1025C00093691942FCD101301460A842F5D1F0BDE5
:1025D00093691942FCD11760F2E7C04658200020E9
:1025E0000080FCBF502000201F4B30B51B680D1E23
:1025F0009C462ADD441E102100201C4B1A6893695A
:10260000194214D1013093691942FCD11368235443
:102610008542F4D16346002B07D050239363516B5E
:10262000183B0B40124952181360280030BD634616
:10263000002B07D050239363516B183B0B400C4980
:10264000521813600028F1D10BE0002B09D0502262
:10265000064B1B689A63596B183A0A4004495B1889
:102660001A6003204042E1E7041B002058200020AC
:1026700034100000064B10B51B68002B06D000215B
:10268000044A12689163044A1068984710BDC04616
:10269000041B002058200020081B00200822034BA8
:1026A00019688B691A42FCD17047C0465820002037
:1026B00070B51A4E1A4B32680400D3185842434181
:1026C000184D143318002B68002C02D0002B0FD0AB
:1026D00070BD002BFCD0060000219463FEF7AEFA1B
:1026E00030001149FEF7D8FB104B2C601C60EFE75F
:1026F0002C6004000D4B19600B49FEF7BDFA012157
:102700002000FEF79BFA502233689A63596B183AFF
:102710000A4007495B181A60DAE7C04658200020D3
:102720000080FCBF041B002075260010081B002041
:10273000341000000D4B10B51B780D4B0D4C1B7861
:102740000D4B02211B780D4B00202360FEF756F93C
:1027500002210120FEF752F9E12120684902FFF72A
:102760001BF901210648FFF793FE10BDDC45001060
:10277000D845001058200020D445001000400340E8
:102780009011002070B50C4C0E001D002060002A36
:1027900003DB02211000FEF731F9002D03DB0221DB
:1027A0002800FEF72BF931002068FFF7F5F801212A
:1027B0000248FFF76DFE70BD5820002090110020E8
:1027C00010B588B004000D2200216846FFF74EFDC9
:1027D0000D22002104A8FFF749FD4B236A466846F5
:1027E000137004A90D2201F053FC152108222000CA
:1027F0006944FFF741FD08B010BDC046F8B500F0D0
:1028000047F90C23194DFF22AB6705201849FEF745
:102810005DFA184C402200212000FFF727FD4027D9
:10282000002301262121144A66702783A2601360C9
:1028300063545F31618445396354104A10496360C1
:10284000E2602787A1620B606362E26201F040FCF4
:1028500080239B052E64EB6490230A4A0120EA50F2
:102860008022094B5202DA64F8BDC04600001150C4
:10287000D5040020481B0020840010500001105097
:102880008000105010D001000020115010B501211F
:102890000520FEF7D3F910BD10B500220021024833
:1028A00000F016F910BDC046681B0020044B1970DB
:1028B000002904D080219023024A8902D150704718
:1028C00063200020002011500B785B0600D0704779
:1028D0004B78052BFBD18A78014B1A60F7E7C0468D
:1028E00000001150F8B5CE464746C87880B580073D
:1028F000830F1800012B61D08B780A799C464B79A5
:102900007F211B0213435B055E0D63461940DC0902
:102910004B001A191F0063462F4D5201AA189370DD
:1029200001236340537000231683D370D076B146E1
:10293000CA00012C31D0294E92198E01B446AC4404
:102940006646B2601360002931D0254BC900C91812
:1029500071604B463F339B09022836D09B012148CA
:1029600039190268490169180E00CA601E49D31856
:1029700003608B422BD83B195B01ED18EB7E1B49A2
:102980009B064A4013438022120613436A68136071
:102990000120C0BCB946B046F8BD154E92198E0153
:1029A000B446AC446646B2621360002908D10023E5
:1029B00064012C1963600F4BE360E9E70020E8E74E
:1029C0000A4BC900C9187162C3E7DB01C7E7FFF70B
:1029D00013FAF268CFE7C046481B0020840010506D
:1029E000040010502C200020FF0F10500000105049
:1029F000800010500001105010B501F069FB10BDAF
:102A00007F2010B508404000C90940181100044A51
:102A1000400180181A0000F05BF8012010BDC0468C
:102A2000481B00207F23180000B5084083B00B42EC
:102A300004D14B424B41084A013393668022C909B5
:102A40004000064B401840010021C018120101F05F
:102A50005FFB03B000BDC04600201150481B0020A2
:102A60007F22130010B50B400A4200D110BDC909E6
:102A70005B005B1804485B01C01800230022034977
:102A8000C37001F045FBF1E7481B0020FFF7FFFF93
:102A900080220A4B520410B51A60094B09491A608A
:102AA00010000B689843FBD1802200215201064898
:102AB000FFF7DCFB0922054B5A6710BD00E0004020
:102AC00000F0004008C0004000001050000011500D
:102AD000002310B5C3820133828283760161040032
:102AE00001F0CEFA002804D080219023074A890201
:102AF000D150200001F004FB002802D001232377ED
:102B000010BD200001F0F4FAFAE7C0460020115091
:102B1000002070477047C0467047C046002070478D
:102B200000207047002070477047C0467047C0467D
:102B30007047C0467047C046024B5878431E9841C4
:102B4000C0B27047D8180020024B18784007C00F59
:102B50007047C046D8180020F0B5D6464F464646C6
:102B6000C0B52C4B814698461B788A46FF2B4BD12B
:102B700000293BD0002154222748FFF777FB002291
:102B8000264C274B20001A70FEF7F4FA254B1C60E8
:102B9000254C2000143CFEF7FBFA200001F0C0F8A1
:102BA000224B234D1C60234B002B04D0280000E057
:102BB00000BF214B186000242B78204F1E4E0DE0E3
:102BC000336862019B18002B10D05B68002B0DD07E
:102BD000984701342B78E4B2A34209D3A342EFD83B
:102BE000E31A5B01DB195B68002BF1D100200CE0DC
:102BF00042464B46514648461370FFF7FFFD0028FA
:102C0000F4D04846FFF742FE0120E0BCBA46B14688
:102C1000A846F0BDC4110020D8180020D01800200C
:102C2000642000202C190020BC1100203019002045
:102C30006220002000000000A81700204C45001072
:102C4000F0B5DE4657464E464546E0B5C24B8FB01E
:102C500003931B78FF2B00D138E1C04BC04E00938B
:102C6000C04B0BAC0293C04B019335686A69EFF31C
:102C7000108172B61368002BFCD0BFF35F8FA9617F
:102C80002800210000F0ACFF6A69AB69BFF35F8FD9
:102C90000021116083F31088002800D116E16378C9
:102CA000082BE2D8009A9B00D3589F466368002BFC
:102CB000DBD0A0689847D8E77F222179A94D0A4048
:102CC0005300C809EB181B1818000127303005798C
:102CD000BD43057105790337BD430571002A00D155
:102CE000FBE0A24A1B7D1278934200D3ECE0A04A9D
:102CF0005B011568ED18002D00D1E7E0A36862794B
:102D00002078AD69A847B0E79A4B1A78002A00D11D
:102D1000DCE01A78013A1A701B78002BA5D1012249
:102D2000904D01212B78042013432B703423EA5C4F
:102D300027788A43EA54EA5C8243EA540133EA5C26
:102D40008A43EA54EA5C82430020EA5400F050FCD3
:102D5000602223791A40602A00D1E7E0402A00D19E
:102D6000EDE0DB06DB0E012B00D10BE1022B00D1E5
:102D7000C0E0002B00D0D9E0202A00D106E2002AD2
:102D800000D0D3E06379092B00D9CFE07A4A9B00C9
:102D9000D3589F46734D2B78DB0700D465E7FFF7C8
:102DA000C9FE62E7029BDB78DB0700D45DE7606861
:102DB000FFF7B2FE59E76B4D2B78DB0700D454E7E1
:102DC00028780007C00FFFF7B3FE4EE7674B664A4F
:102DD00098469246664A0025914642462778B04674
:102DE0001B7816000EE04B461B686A019B18002BEF
:102DF00000D178E0DB683800984701353378EDB2D0
:102E0000AB420CD39D42EED3EB1A5B015344DB681B
:102E10003800984701353378EDB2AB42F2D2514DCC
:102E2000542200212800FFF721FA1022FF21281D3B
:102E3000FFF71CFA28002022FF2114304646FFF736
:102E400015FA00F0CBFB2379AB700EE7474B2778E0
:102E50009846474AB24600253E00914647461B78B1
:102E60000DE04B461B686A019B18002B3ED0DB68C7
:102E70003000984701353B78EDB2AB420DD3AB4201
:102E8000EFD8019AEB1A5B01D318DB683000984742
:102E900001353B78EDB2AB42F1D2029D54220021C4
:102EA0002800FFF7E3F91022FF213448FFF7DEF98D
:102EB00028002022FF2114305646FFF7D7F900F0F2
:102EC0008DFBFFF733FED0E6934211D00FB0F0BC7C
:102ED000BB46B246A946A046F0BDA36862792078F9
:102EE00000F09AFBC1E646461E4DAAE75646E6E7C5
:102EF0001D4D03E77023217A0B4217D1C809824682
:102F00000F330B405B0098461848EB1853441B7D69
:102F10000078834264D216485B0100688146994478
:102F2000002A00D154E14B46002B61D120780021CA
:102F3000FFF778FD80212078FFF774FD95E61048B3
:102F400000F056FB012138000CAAFFF7E1FD002834
:102F500000D08AE6EAE7C046C4110020A44400106D
:102F600030190020D81800204C45001062200020A5
:102F7000A817002064200020C8440010DC1800209E
:102F8000112B0010237A22890F2BCFD8FF23134057
:102F9000D54AEB181B791278934234D3C6D1D34D5E
:102FA000686900F025FB012138006B690CAA98477D
:102FB000002800D059E66022150023791D401A42EE
:102FC000B4D163790A3B012BB0D800F011FB6379CF
:102FD0000A2B00D17FE138000CA900F099FA44E6F1
:102FE000834200D0EFE0C14B9946002A00D1EFE0C8
:102FF0004B46586900F0FCFA4B46012138005B69EA
:103000000CAA9847A3E7BA4A5B011568ED18002D92
:10301000C6D18BE7A37999466B789945DBD06B785D
:10302000002B00D02BE14B466B70002B00D123E12D
:1030300048460138C0B2FDF79DFC002800D170E180
:103040004378022B00D06CE10122C179B1468B118B
:10305000491113400A40302112015B0113432A78C1
:103060008A4313432B7009239846C37882781B0246
:103070001343C31804939C4B80449B469B4B07937C
:103080009B4B9A469B4B08932B0045469846049BC6
:10309000AB4200D848E16B7801220B2B03D12B788F
:1030A000EA78ED186B78042B00D038E1049B0026F9
:1030B0005B1B9BB205935B4609921B7819E0534654
:1030C0001B6872019B18002B00D128E129003800F1
:1030D0001B69059A98470690082803D9059A8242E9
:1030E00000D30BE15B4601361B78F6B2B34200D247
:1030F00015E1B342E3D8079AF31A5B01D318E5E769
:103100006B780AAA02321370380001230CA900F070
:1031100015FAAAE5E088030AC0B20F2B00D905E72B
:1031200075499A008A5897460CA800F067FA38004B
:10313000A179FFF7B1FB02222B7813432B7094E5A2
:10314000E388012B00D0F1E608222B783800934366
:103150000CA92B7000F0DCF987E5022029780AAB76
:103160009A1C8B068908DB0F01400B431380380043
:1031700002230CA900F0E2F977E5E388012B00D0E7
:10318000D4E608222B7813432B7024E7237A228974
:103190000F2B00D9CAE6FF231340534AEB181B79C3
:1031A0001278934228D2524A5B011568ED18002D1F
:1031B00000D1BBE6686900F01BFA012138006B6999
:1031C0000CAA9847C3E6002A00D0AFE60023994630
:1031D000022263799B469343012B12D05B46002B5E
:1031E00000D0A3E62B004344534430331B790AAA92
:1031F0009B07DB0F0232B9E7934200D096E63B4DC6
:10320000D8E7E388002B12D1039B18785B46012B8B
:1032100023D0FFF707FC43460221EB185344303319
:103220001A790A4301211A711A790A431A714B4615
:10323000002B00D119E5586900F0DAF94B4601215D
:103240005B690CAA38009847002000F0D1F93523BB
:10325000EB5CDB0700D508E5BDE6FFF701FC434664
:103260000221EB18534430331A798A4359461A71B4
:103270001A798A431A71DAE7FFF758FCABE60021A6
:103280003800FFF713FB3800FFF7B6FB0022924629
:10329000164AAB780592164A049393462A00124BBD
:1032A0005546984692461B780EE05B461B686A01BD
:1032B0009B18002B50D0DB683800984743460135F7
:1032C0001B78EDB2AB4233D39D42EED3059AEB1A95
:1032D0005B01D318EFE70AAB9A1C380001230CA955
:1032E000157000F02BF9C0E4622000204C4500105E
:1032F000A8170020EC180020F0440010099A002ABA
:103300003AD0AB789A18D2B204E00133DBB20E7136
:10331000934231D04146C9180879FF28F5D04E466E
:10332000454600236B7001E64E46FFF7FDFB52E673
:103330005546542200212800FEF798FF1022FF2155
:10334000281DFEF793FF28002022FF211430FEF7EE
:103350008DFF049BAB7066E65546FAE7FFF7DEFB90
:10336000021E00D1E2E5D37891781B020B433800AE
:103370000CA900F0E3F8EAE533002900069A089862
:1033800000F014FC069BED185B461B78B34200D39B
:103390007DE6C4E7FFF7C4FB021E00D1C6E5380096
:1033A00013780CA900F0CAF8D1E52189FDF7EAFAF3
:1033B000021EF4D1BAE5022B0FD0FFF7B3FB021EB9
:1033C000D1D1B3E5FDF7D2FA021E00D1AEE512234A
:1033D00038000CA900F0B2F8B9E5FDF7CBFA021EEF
:1033E000C1D1A3E5F0B54F464646D646C0B50C0060
:1033F00016001F0082B0002A3AD0702398461D4B59
:10340000002599461C4B9A461AE04B461B78200033
:1034100001935346997800F08FFB00281CD02100BF
:103420000198FFF75FFA002816D0A378DA09012A7D
:1034300019D00A9A01351370B54219DA2378E418C5
:103440006378052B08D1E3789B079B0FBB4203D120
:103450004246A3781A42D8D0002002B0E0BCBA4657
:10346000B146A846F0BD0B9A01351370B542E5DBB5
:103470000120F2E7C4110020D81800207F20074B5C
:1034800010B51A680840CB0934334000C018044B0B
:103490001100C01800F028FB10BDC0462C190020F8
:1034A000D818002070B57F24C80984460C400F4806
:1034B00064000419644430342079C00701D5002029
:1034C00070BD0B480125007884462079284320717F
:1034D0006046FFF795FA0028F2D101222379934341
:1034E00023712379033293432371E8E7D81800202E
:1034F000C41100207F22054B0A405200C9099B18C5
:103500005B1830331879C007C00F7047D8180020F7
:1035100070B5094C0600082220000D00FEF7ACFE35
:1035200000238021E360A3602B78300099430022C0
:103530000023FFF7B7FF70BDEC170020F0B5C646BB
:10354000244C170080460822200000B50D001E0004
:10355000FEF792FE0023A760E381EB79AA791B02B4
:1035600013431A1CB34200D9321C96B2A281002B1D
:103570000CD0002E15D0002F2AD0402E1AD8237838
:1035800096B27F2B1BD80021134A0EE080212B78A6
:103590000022994340460023FFF784FF80BCB846D1
:1035A000F0BD7F2300222178994333004046FFF786
:1035B00079FFF3E74022237896B27F2BE3D9064CBC
:1035C000320039002000FEF757FE80212200ECE790
:1035D0000020E3E7EC170020AC17002010B5142200
:1035E00000210248FEF742FE10BDC046EC17002045
:1035F000014B18617047C046EC17002010B5054C10
:10360000010008222000FEF737FE0023A360E360DC
:1036100010BDC046EC17002070B5374C1D00237854
:103620000600DA09C9098A4210D00020002D00D016
:1036300070BD21003000FFF747F92369002B03D04C
:1036400022000321300098470120F1E77F2B06D8A4
:10365000A0680028ECD02A002849FEF70DFEE28978
:10366000A1685219E38892B24919E281A16093429C
:1036700014D03F2D12D9A389981A051C80B2402876
:1036800028D82078ADB27F2826D800219A4230D0A1
:103690001A4A2B003000FFF705FFC9E72369002B0A
:1036A00005D02200022130009847002808D0802150
:1036B00023780022994330000023FFF7F3FEB7E799
:1036C00000213000FFF7AEF930008021FFF7AAF9A2
:1036D0000120ADE74025D4E79A4207D0074C2A00E5
:1036E0002000FEF7C9FD80212200D2E780210022C0
:1036F000CFE70022CDE7C046EC170020AC17002032
:103700007047C046012070477047C0467047C046AA
:1037100042000C4B1218920010B59B185C78FFF712
:103720000BFA002801D1002010BDFFF70DFA002888
:10373000F9D1002CF7D02100FFF7DCFE012358401F
:10374000C0B2F1E7C0180020F8B50D0016001C004B
:10375000002801D00020F8BD134B59781F00FFF757
:103760008DFE0028F6D02A1E0FD1402CF2D80F4B28
:103770002200310018001D00FEF77EFD23002A0004
:1037800079780020FFF78EFEE5E74023084DEA54E4
:103790003F2CDFD828002200310041300134FEF7F1
:1037A0006BFDA4B24035E9E7C018002040180020A6
:1037B0000018002010B50C2200210248FEF756FD2B
:1037C00010BDC046C01800200120704710B50C2263
:1037D00000210248FEF74AFD10BDC046C018002077
:1037E000F0B54B7906000D0083B0032B0BD108799F
:1037F000C400241A1234A4B2944204D8194B1F00F6
:103800005B78002B03D00024200003B0F0BD0978C2
:1038100069184B78212BF6D1B9600B780200C918D2
:103820007B1C0193BB1C009330000323FFF7DAFDE0
:103830000028E8D0AB79012B01D1EB79FB70012393
:10384000BB71AB78B9783B70BB68DA791B7A1B0225
:103850001343BB800029D7D040233000024AFFF732
:1038600021FED1E7C0180020801800201F23F0B5EA
:1038700014001278060083B01340012B01D0002001
:103880000DE05E4B20791D001B789842F7D1602334
:1038900018001040134204D101290BD0012003B0BD
:1038A000F0BD2028EBD163780B2BE8D8544A9B005D
:1038B000D3589F466378062BE1D1E378212B00D1C2
:1038C00080E0222BDBD10020FDF758F82100020018
:1038D000AB883000FFF732FEE0E7012910D0032962
:1038E000DCD1A1780020A971FFF70AFFD6E70129F2
:1038F000D4D1E1780020E971FFF704FF0028BED0A1
:1039000021003000FFF704FEC8E7012964D0032935
:10391000C4D1E079E278A379000212021843A178B9
:10392000120A041C402800D94024364BA4B20029B6
:1039300007D0012805D91878884202D1013C324BC2
:10394000A4B200200094FDF755F8A7E70129A5D1FE
:103950000123210030002D4AFFF7F0FD9EE70129E9
:103960009CD1012321003000294AFFF7E7FD95E7AC
:10397000012900D092E7E379A079E2781B021202D4
:103980000343A178120A181C402B00D9402080B2B2
:1039900000292ED0012B2CD901251A4B01381F00EC
:1039A000197080B2013300900020FDF725F82B1824
:1039B0009BB2002B00D162E73A0021003000FFF7F4
:1039C000BDFD6BE7AA68002A00D158E7210030004E
:1039D0001378FFF7B3FD62E7E379A2791B02134383
:1039E000402B00D94BE721003000064AFFF7A6FD27
:1039F00054E7044B00251F00D5E7C046C01800203F
:103A00006C4500100018002001180020C618002086
:103A1000C718002070B51E4C0500A078944682B0EF
:103A20006278884204D08A4218D0002002B070BD6B
:103A3000824213D062469BB2002A1AD1154A0093E3
:103A400016001300002102220020FCF7D3FF4023C0
:103A500032002800A178FFF725FDE7E762469BB218
:103A6000002A0DD100201A000B49FFF74DFE01205E
:103A7000DCE7084A022100201600FFF747FEE6E7D0
:103A800000200121044AFFF741FE0120CEE7C04695
:103A9000C0180020801800204018002000B5030046
:103AA00083B0002910D00020012B07D80A78002A03
:103AB00004D00C48C2540120012A01D003B000BD3B
:103AC0001800FFF749F8F9E701236A46002001A929
:103AD0009380FFF741F80028F0D00122014B1A70C3
:103AE000ECE7C046CC18002070B50400237808002D
:103AF000DB070E00DD0F002B16D123785B0701D505
:103B0000280070BD0121494200F0DAFA2378DB0772
:103B1000DD0F002B0AD123785B0708D40422237819
:103B200001251343237002E00025E9E7002530005A
:103B300000F0B6FAE4E7C046437902791B0213436A
:103B4000C2785B0592075B0D920F022A1AD0032AF6
:103B50000BD00020012A07D102394A425141104AB4
:103B6000891899424041C0B2704702394A1E9141BA
:103B70000C4A4942114080220020D2008918994203
:103B80004041F1E7022904D0002040229A424041FE
:103B9000EAE7054A981843425841C0B2E4E7C046F4
:103BA000FF03000040FCFFFF00FEFFFF8446881873
:103BB00030B51C00814206D24A78052A04D00A7822
:103BC00089188842F8D830BD7F228B781A4052007D
:103BD0006244DB09D4540A7889188842ECD8F2E7A9
:103BE00070B5040000690D00002803D0012149428E
:103BF00000F066FA238962899C4698B291B2A38844
:103C0000944532D3421A92B2002A27D0934208D266
:103C100098422FD3C01A81B261818B4203D8C91A4E
:103C200089B28B42FBD9E28823685204520C51437B
:103C300028005918FEF720FB618901254A1C92B221
:103C4000A38891420DD900225B00D21A20696281BB
:103C5000002801D000F024FA280070BD00256289F8
:103C600092B25B009A42F1DBEFE75A00521A8218D7
:103C700092B2C9E7C01881B26181CEE7F8B50400FD
:103C8000C0680F00002803D00121494200F018FA53
:103C9000258920896189A288ADB283B28EB288421B
:103CA00028D39B1B9BB29A4209D8E679F60906D124
:103CB000E068002801D000F0F3F93000F8BD2B00D7
:103CC00095421CD39B1A9BB29342FBD2E288206898
:103CD0005204520C53433900C018FEF7CDFA6B1C46
:103CE0009BB2A2889D4216D9002352009B1A01263E
:103CF0002381DDE75100891B5B189BB2D3E7E28883
:103D000020685204520C53433900C018FEF7B4FA2D
:103D10000135A288ABB252009342E8DBE6E7C04629
:103D200010B50400C068002803D00121494200F00A
:103D3000C7F92069002803D00121494200F0C0F9E9
:103D40000023E06863812381002801D000F0A8F9F6
:103D50002069002801D000F0A3F9012010BDC04661
:103D600010B51920FCF774FED0238022E1211B0638
:103D700092045A620448054B00221860490201234C
:103D8000FEF700FD10BDC046004003405420002057
:103D900010B50248FEF714FD10BDC04640200020BB
:103DA00003BDC04610B50400FEF740F8A04710BDA3
:103DB000F0B5C64600B5040086B00F200D00170010
:103DC000FCF74EFF002180460F20FCF737FF002351
:103DD0000093019301330293D023049505946E461A
:103DE000002400250121022003971B06002C13D07C
:103DF0001A6D1042FCD05C6540BF1A6D114203D1B0
:103E000020BF1A6D1142FBD09A6DA24209D0002545
:103E1000AA00B458EAE79A6D1A6D1142FBD140BF6F
:103E2000E6E70135062DF3D141460F20FCF706FFEA
:103E300006B080BCB846F0BD0E4B0F4A10B504006A
:103E4000934211D30D4A99181A000D488068844690
:103E50000A481450043013500A4B0B481350624662
:103E60000A48FFF7A5FF10BD01235B421A0008496D
:103E7000EBE7C0460008042000000420F40700001F
:103E800000ED00E0A53D0010FC070000A13D001082
:103E9000F307000010B5010000230022002000F00D
:103EA0008BF810BD70B5074C074D641BA41005D0EE
:103EB000013CA300EB589847002CF9D100F0DCF846
:103EC00070BDC0466C4100106C4100107047C04688
:103ED0007047C046024670B50A4392072AD11E4D6C
:103EE000EE0104C808C9541B9443344017D0D0B223
:103EF000D9B2401A2106014310D190B299B2401AAA
:103F0000210401430AD110021902000A090A401AC9
:103F10002102014302D1100E190E401A70BD9A42BF
:103F2000DFD010BA19BA884201D9012070BD002033
:103F3000C04370BD02780B7801300131002A09D0EE
:103F40009A4207D102780B7801300131002A01D062
:103F50009A42EFD0D01A70BD0101010110B583075C
:103F60000AD00300032102E001330B4205D01A7886
:103F7000002AF9D1181A10BD030019680C4A0D4C1B
:103F80008A188A4322420FD15968094A04338A1891
:103F90008A43224208D15968054A04338A188A4361
:103FA0002242F1D000E001331A78002AFBD1E1E788
:103FB000FFFEFEFE80808080F0B5D6464F46464626
:103FC0009846244BC0B5060018689A460F009146E3
:103FD000FFF77CFF204B1D68002D32D053466C68E4
:103FE00018681F2C30DC002E0CD1631C0234A40096
:103FF0006B606751FFF76CFF0020E0BCBA46B1462A
:10400000A846F0BD49468822A300EB189950C42168
:1040100049008C46AC446146873AA2400968914603
:104020001143624611608421424649005A50022ED3
:10403000DBD129004A468D31FF310B6813430B60F9
:10404000D3E7064D1D60C9E7FFF742FF012040425C
:10405000D3E7C046C8110020101600201416002017
:10406000034B10B5002B02D00248FFF713FF10BD21
:1040700000000000A53E0010F8B5C046000000009A
:1040800001B40248844601BC604700BF9D0B00207C
:1040900001B40248844601BC604700BFC102002051
:1040A00001B40248844601BC604700BFE50100201E
:1040B00001B40248844601BC604700BFCD0E002019
:1040C00001B40248844601BC604700BF590100208A
:1040D00001B40248844601BC604700BFE5030020EC
:1040E00001B40248844601BC604700BFC100002003
:1040F00001B40248844601BC604700BF510C002057
:1041000001B40248844601BC604700BFC50B0020D3
:1041100001B40248844601BC604700BF010C002086
:10412000551E0010811E0010692000105D22001035
:10413000C5200010C9210010911F00109D1E001005
:10414000BD1E0010D11E001025110010D91E001038
:10415000D1140010F51D0010F50B00106140001087
:0C416000913D0010FD020010C10700108E
:10416C00426F6F7961682044656661756C740000FC
:10417C00000000004E554C004C4546540000000019
:10418C00524947485400000055500000444F574EC8
:10419C000000000041000000420000005900000037
:1041AC00580000004C310000523100004C3200002D
:1041BC005232000053454C45435400005354415275
:1041CC0054000000484F4D450000000052330000E1
:1041DC004C330000434150545552450043000000FD
:1041EC005A000000426F6F796168424F580000001E
:1041FC004C756E6100000000534E323032352D305C
:10420C00303031000A2A2A2A2050414E4943202AB4
:10421C002A2A0A000A0000004E6F207370696E6C27
:10422C006F636B732061726520617661696C61628A
:10423C006C650000486172647761726520616C6125
:10424C00726D20256420616C726561647920636CE9
:10425C0061696D656400000048617264206173736C
:10426C006572740052656C6561736500626F6F7482
:10427C00325F77323571303830000000322E322EFA
:10428C00300000007069636F00000000626F6F798E
:10429C006168626F780000005365702032362032FE
:1042AC00303235005541525420737464696E0000ED
:1042BC0055415254207374646F75740055415254B7
:1042CC0020737464696E202F207374646F7574008E
:1042DC00556E68616E646C6564204952512030786B
:1042EC0025780A00657020253032582077617320BC
:1042FC00616C726561647920617661696C61626C74
:10430C006500000043616E277420636F6E74696EE4
:10431C0075652078666572206F6E20696E616374B6
:10432C006976652065702025303258004C45440074
:10433C00A041001000000000A4410010010000008A
:10434C00E841001002000000AC4100100300000026
:10435C00A841001004000000EC4100100500000012
:10436C00B041001006000000B4410010070000002E
:10437C00B841001008000000BC410010090000000A
:10438C00C04100100A000000C84100100B000000E2
:10439C00D04100100C000000D84100100D000000AE
:1043AC00DC4100100E000000E04100100F00000086
:1043BC0009040000090222000101008032090400F6
:1043CC000001030000000921110100012227000750
:1043DC0005810340000A0000BC430010F0410010AE
:1043EC00FC4100100442001005010905A101050162
:1043FC00093009311581257F75089502810205095F
:10440C001901291015002501951075018102C000B4
:10441C0012010002EF020140FECA33030001010247
:10442C000301000006005250D3F075427042001098
:10443C0006005250E182887F7842001006005250EC
:10444C00ABB360538842001006005250BBFF3CB621
:10445C009042001006005250861C03029842001035
:10446C00060052505422A29DA44200100500525046
:10447C00DE65F468FC5600100D0A00000600525070
:10448C0053B4F4A1C84200100800525012000000AE
:10449C0008005250921000006A2C0010CC2D001015
:1044AC004C2E0010A42D0010B62D0010942D0010D1
:1044BC00082D0010B82C0010AC2C00105A31001034
:1044CC00403100102C2F00107A3100102C2F0010CE
:1044DC0028310010143100102C2F00100031001066
:1044EC00143000102C2F0010C4330010B633001001
:1044FC00AA3300102C2F00102C2F00109433001016
:10450C00B63300102C2F00102C2F00102C2F001065
:10451C002C2F00102C2F00102C2F00102C2F0010E3
:10452C005C3300101C0D00201C0D0020660D0020BB
:10453C00860D0020C60D0020D80D0020140D002083
:10454C0000000000B5370010C9370010CD3700103F
:10455C00E13700106D380010153A00100000000013
:10456C007E380010703900105E3900104C39001084
:10457C007E3800107E3800107E3800107E38001017
:10458C007E3800100A390010EE380010DA380010AE
:10459C00090052500000000238430010080052502D
:0445AC0012100200E7
:1045B000304400103C4400104844001054440010A3
:1045C000604400106C44001078440010A8450010AE
:1045D0009C4500109C440010944400108844001036
:1045E000F0B5C646160000B504001F000268EFF3E0
:1045F000108172B61368002BFCD0BFF35F8F0423C9
:10460000E3562268002B2BDBBFF35F8F0020106086
:1046100081F31088D02212061278002552B29046FB
:104620009A420ED1002080BCB846F0BDBFF35F8F28
:10463000156081F310883000390000F0E9FE002891
:10464000F0D12268EFF3108172B61368002BFCD012
:10465000BFF35F8F237922687F2BE7D9434602E0BF
:10466000D0231B061B682371BFF35F8F00231360E9
:1046700081F310880120D6E7F0B5C64600B50F00DB
:10468000040000F0B5FEFA220E00050000233800F9
:104690000021920000F0E4FE4019714106000F1E57
:1046A00002DA0126164F7642D0231B061B6800252E
:1046B00098460AE0BFF35F8F156081F310883000E1
:1046C000390000F0A5FE002818D12268EFF3108110
:1046D00072B61368002BFCD0BFF35F8F237922687A
:1046E0007F2BE7D943462371BFF35F8F002313600D
:1046F00081F31088012080BCB846F0BD0020FAE7A5
:10470000FFFFFF7F0268EFF3108172B61368002B82
:10471000FCD0BFF35F8FFF2303710368BFF35F8F8C
:1047200000221A6081F3108840BF7047084B9C46F6
:104730001B78002B0BD18023064807495B051A68BC
:10474000C25004338B42FAD1012362461370704782
:1047500065200020F41900100001001010B5014B75
:10476000984710BDF5190020064B5A6802609A68F8
:104770004260DA6882601A69C2605A6902619B69A4
:1047800043617047000002400268064B5A6042686D
:104790009A608268DA60C2681A6102695A61426985
:1047A0009A61704700000240034B1A68C0239B00C7
:1047B0009343024A136070470C8001400C90014003
:1047C000054B1A6880239B005340C022920013407F
:1047D000024A13607047C0460C8001400C900140B3
:1047E000F0B5D6464F4646460023C0B5182786B0DA
:1047F0001E0081460D00988A3F493B881400984767
:104800003B8880463D49B08A984700233C490600D2
:10481000988A3B8898478246FFF788FF6846FFF7EB
:10482000A3FFC047B047FFF7CBFF211E1CD00823D2
:10483000C0209C464005163F6246836A1A401F42CC
:1048400034D0631A002926D1002A0BD1002C0BD0BA
:10485000C023082202265B059B6A1A401E423DD0F7
:10486000002AF5D0002C2BD1FFF79EFFD047FFF791
:1048700075FF6846FFF788FF06B0E0BCBA46B14650
:10488000A846F0BD002C2BD1C0225205966A082202
:104890003240B6072BD50D2B19D9002AF2D1C022F0
:1048A0005205966A08223240B607F4D4002A04D191
:1048B0000B002343002BBFD1D6E70B00002CF9D00F
:1048C000036E013C2B70230001350B43F2E74B468E
:1048D0001B780139036601239944E7E70021E5E7E6
:1048E000C0235B051B6E013C2B700135A4E70B0058
:1048F000A242DFD1DCE7C04649460000455800002F
:10490000464300000022154B10B59A60DA601A6128
:104910005A619A61DA611A625A629A62DA621A63B9
:104920005A639A63DA631A645A649A64DA641A6599
:104930005A659A65DA651A665A669A66DA661A6779
:104940005A679A67DA67F03292000021044800F053
:1049500077FD044B044A1A6010BDC0460000105099
:10496000881B00202C20002080011050F0B5474605
:10497000CE4680B51C4B00249F6D012685B0002FCC
:104980001BD01A4B98461A4B994604E00134E4B206
:104990007600202C11D03E42F8D043469E6501237C
:1049A00065086D00A343ED186D014D44280000F02B
:1049B00013FC002806D1B743E8D105B0C0BCB94606
:1049C000B046F0BDEB8AE0210393002301A8AA784A
:1049D000C900018001210271437100F01DFC280013
:1049E00000F098FBE7E7C04600001150003011507E
:1049F000481B00209823C64AF0B5D55880232E00C6
:104A00009B02102485B01E401D4274D0C14BC24C85
:104A10009A6AC24B00261A603B23E35C022B00D14A
:104A20004BE17B23E35C022B00D1EFE0BB23E35C93
:104A3000022B00D1F6E0FB23E35C022B00D1FDE06A
:104A40003C23FF33E35C022B00D129E17C23FF33BD
:104A5000E35C022B00D10AE1BC23FF33E35C022BB1
:104A600000D13BE1FC23FF33E35C022B00D1F1E0FA
:104A7000AB4BE35C022B00D170E1AA4BE35C022B51
:104A800000D101E1A84BE35C022B00D171E1A74BFF
:104A9000E35C022B00D12EE1A54BE35C022B00D19D
:104AA0009CE1A44BE35C022B00D16DE1A24BE35CE3
:104AB000022B00D19DE1A14BE35C022B00D17BE1F5
:104AC000002E08D19E4B1B78002B04D180219D4ADB
:104AD00090338902D150C02269468D4B92009B6C65
:104AE00080265B058A805B0D012101A8029300F0FE
:104AF00093FB954CB602EB0600D57BE080235B026E
:104B00001D422FD00224844F1E43BB7E002B14D0A5
:104B100000F08EFC012800D970E0C022002138008E
:104B2000920100F0FDFA380000F0F4FA00F080FC89
:104B3000012802D9834B5C661C660123FB70203779
:104B4000012C20D1C0236A46DB0093807F4A02AB50
:104B500003CA03C3012101A800F05EFB8022794B48
:104B600092021A6580235B011D420ED18023DB0176
:104B70001D4221D180231B021D422DD1AE4200D007
:104B8000BEE105B0F0BD0124BFE700241E43604B29
:104B90001C60FFF7B7FE80236A465B0093801472A7
:104BA000012101A800F038FB8022664B12031A6530
:104BB0008023DB011D42DDD01E4380236A46DB00DB
:104BC0009380012101A800F027FB10225D4B1A659C
:104BD00080231B021D42D1D01E43A0236A46DB0066
:104BE0009380012101A800F017FB8022554B120190
:104BF0001A65C3E7FFF7BAFE26007FE7544B444A25
:104C00001C66536E2340A342FBD186E77833E75CF2
:104C1000002F00D10AE70233E25C002A00D00DE148
:104C20003E0003E7B833E75C002F00D103E702330F
:104C3000E25C002A00D0F9E03E00FCE6F833E75CD5
:104C4000002F00D1FCE60233E25C002A00D041E1F3
:104C50003E00F5E6F933FF33E75C002F00D107E7AC
:104C60000233E25C002A00D02BE13E0000E77933FA
:104C7000FF33E75C002F00D1EEE60233E25C002A4E
:104C800000D015E13E00E7E6324BE75C002F00D193
:104C9000F8E60233E25C002A00D001E13E00F1E6D2
:104CA0003933FF33E75C002F00D1CFE60233E25CFB
:104CB000002A00D0EBE03E00C8E63833E65C002E68
:104CC00000D1AEE60233E25C002A00D1A9E6200062
:104CD00000222030E25400F04BFAA2E6B933FF3351
:104CE000E75C002F00D1BDE60233E25C002A00D071
:104CF000C4E03E00B6E6184BE75C002F00D1CBE6DF
:104D00000233E25C002A00D0B0E03E00C4E6C046B8
:104D10000000115000400540481B0020401B0020AF
:104D20003B0200007B020000BB020000FB0200000F
:104D30003B0300007B030000BB030000FB030000FB
:104D400063200020003011501000020000001050BD
:104D5000002011507A020000FA0200006B4BE75C61
:104D6000002F00D189E60233E25C002A76D13E00B2
:104D700083E6674BE75C002F00D188E60233E25CF4
:104D8000002A63D13E0082E6624BE75C002F00D12F
:104D90008CE60233E25C002A00D0A3E05E4BE35CC9
:104DA000022B30D15D4BE35C002B27D15C4BE35CE5
:104DB000022B00D08FE63E005A4BE35C002B00D163
:104DC0007EE6FF239B00E25C002A00D183E60022FE
:104DD000E2541C3BE01800F0CBF97CE6524BE75C58
:104DE000002F00D15DE60233E25C002A16D13E00BE
:104DF00057E64A4BE35C002B00D15CE6EF239B00B7
:104E0000E25C002A75D1464BE35C022B00D062E6DF
:104E1000444BE35C002B00D15DE6D2E70022E25474
:104E20001C3BE01800F0A4F93E003AE62000002206
:104E3000A030E2543E0000F09BF9FCE52000002287
:104E40006030E2543E0000F093F9EFE50022E254B6
:104E50001C3BE01800F08CF93E0018E60022E254FA
:104E60001C3BE01800F084F93E0006E60022E25404
:104E70001C3BE01800F07CF93E000DE6200000220B
:104E8000A130FF30E2543E0000F072F9EAE5200064
:104E900000222130FF30E2543E0000F069F9D5E5F0
:104EA0000022E2541C3BE01800F062F93E00E9E504
:104EB000200000226130FF30E2543E0000F058F93B
:104EC000CAE520000022E130FF30E2543E0000F04D
:104ED0004FF9CDE520000022E030E2543E0000F022
:104EE00047F9ADE50022E2541C3BE01800F040F920
:104EF00054E70022E2541C3BE01800F039F982E745
:104F000031000A48694000F08BFAC0463A020000BE
:104F1000BA0200007A030000BB030000BA030000DD
:104F2000FB030000FA0300003A030000DC4200101B
:104F3000F0B58C46838A018B020083B00E1C994227
:104F400000D91E1CB6B29B1B9CB2D37880211800DE
:104F5000451EA841C90031434003084301214B408D
:104F6000D37053789482002B32D11169002E2AD04D
:104F70006346D4689B01E418731E0193062B32D953
:104F800023000B439B072ED1631A013B022B2AD926
:104F90000023B708BF00CD58E5500433BB42FAD117
:104FA0009E420ED0019DE418EF1ACD18C95C217005
:104FB0000199994205D06B786370012F01D0AB78CD
:104FC000A3701169948A802389191B021161184307
:104FD000002C02D18023DB0118436346002B00D054
:104FE000000403B0F0BD0023CD5CE55401339E42C4
:104FF000FAD1E6E78368F0B51A68002900D0120CF0
:1050000043789205950D002B09D1C38AEB18C38212
:10501000038BAB4201D9002383822800F0BD0469D1
:10502000002D28D0C36889016F1EBC465E18062F6C
:1050300027D901315B18E31A022B22D9230033430D
:105040009B071ED10023120E9200F158E150043349
:105050009A42FAD195420DD063469F1AA318B45CC8
:10506000B1181C70944505D04A785A70012F01D0B0
:105070008A789A700469C38A6419EB18C382046140
:10508000C6E70022B35CA35401329542FAD1046909
:10509000F1E7C04610B50400836800211B68FFF7E4
:1050A000A9FF63681B685B0002D5238B834200D095
:1050B00010BD01212000FFF79DFFF9E7084B1A6C96
:1050C0000023920703D48278D209012A01D0180064
:1050D0007047C37E023B5A425341DBB2F7E7C046FA
:1050E0000000115010B5FFF7E9FF00280AD0064B69
:1050F000064A9B6A064912685B189B1A0020C62262
:105100009A42404110BDC04600400540401B00206F
:10511000E0FCFFFF00238376436103617047C046D4
:1051200010B58368002901D01C682140002A12D0E4
:105130008024E400114322420DD01A6822420CD18F
:10514000084A0A401A60084A126C920703D40C23DA
:10515000033BFDD28368196010BD8178034800F0DD
:105160005FF9C046FFFBFFFF00001150F042001046
:10517000436870B50021802504001E68FFF7D8FE43
:10518000124B6D011A6C0543A37892070ED55B068E
:105190000ED00F4B1E4080239B05334362680021D5
:1051A000136020002A00FFF7BBFF70BDDB09F0D0C1
:1051B000A38A002BEDD001212000FFF7B9FEA02328
:1051C000044ADB05324005431343E7E70000115072
:1051D000FFFFFFAFFFFFFFDF70B5857E0400002DEE
:1051E00014D0FFF757FFA38A002B01D1280070BD10
:1051F0002000FFF777FF002803D001230025237745
:10520000F4E72000FFF7B4FF0025EFE781780148BD
:1052100000F006F910430010F0B54746CE4680B5C1
:10522000437805000F0085B0062B07D8684A9B001D
:10523000D3589F46674A137801331370664B1C6836
:105240006269EFF3108172B61368002BFCD0BFF3D4
:105250005F8FA1612000290000F0D2F86269A36984
:10526000BFF35F8F0021116083F31088002804D101
:1052700005B0C0BCB946B046F0BD3A0069782878A0
:1052800000F0E6F8F4E70121544B1A788A431A70CB
:105290001A7801318A431A7000225A701A78023142
:1052A0008A431A70CAE74E4B00241E001A784D4BF1
:1052B00098464D4B994610E04B461B6861015B18C0
:1052C000002B06D0DB69002B03D06968287898474B
:1052D00032780134E4B2944217D8A242ECD8A31A2F
:1052E0005B014344EEE73D4B1A78D207C0D5042159
:1052F0001A780A431A70A1E7384B1A78D207B7D543
:1053000004211A788A431A7098E7344A1378904631
:1053100011005B0728D51378042201AC93430B706E
:1053200020000021083200F08BF82B782370052331
:105330006370294B1B6818005A69EFF3108172B62D
:105340001368002BFCD0BFF35F8F06008161210042
:1053500000F056F87269B369BFF35F8F00211160E6
:1053600083F3108800282CD14346DB78DB0700D478
:105370007EE72B7801AC2370032363706B68636056
:10538000154B1D686A69EFF3108172B61368002B24
:10539000FCD0BFF35F8FA9612800210000F030F836
:1053A0006A69AB69BFF35F8F0021116083F31088D6
:1053B000002800D15CE73A006178207800F048F8D6
:1053C00056E73A006178207800F042F8CCE7C04612
:1053D000304500106420002030190020D81800202B
:1053E000622000204C450010A81700207047C046DE
:1053F00001B40248844601BC604700BFF9180010A0
:1054000001B40248844601BC604700BF7D3C0010E7
:1054100001B40248844601BC604700BFD5170010A4
:1054200001B40248844601BC604700BF990A0010DD
:1054300001B40248844601BC604700BF8D0A0010D9
:1054400001B40248844601BC604700BF6D220010D1
:1054500001B40248844601BC604700BF152B001010
:1054600001B40248844601BC604700BF952100108A
:10547000010100006C41001000000000804100109C
:105480000100000080410010020000008441001073
:10549000030000008C410010040000009441001043
:1054A000050000009841001006000000A041001017
:1054B00007000000A441001008000000A8410010EF
:1054C00009000000AC4100100A000000B0410010CB
:1054D0000B000000B44100100C000000B8410010A7
:1054E0000D000000BC4100100E000000C041001083
:1054F0000F000000C841001010000000D041001053
:1055000011000000D841001012000000DC41001022
:1055100013000000E0410010140000008041001062
:1055200015000000804100101600000080410010AE
:10553000170000008041001018000000804100109A
:1055400019000000804100101A0000008041001086
:105550001B0000008041001001010000000000005D
:10556000C8410010C0410010B80B0000D507001062
:10557000000000000000000000000000000000002B
:10558000C041001098410010E8030000910700108E
:10559000000000000000000000000000000000000B
:1055A000C041001084410010E8030000A90700106A
:1055B00000000000000000000000000000000000EB
:1055C000C04100108C410010E8030000B507001036
:1055D00000000000000000000000000000000000CB
:1055E000C041001094410010E80300009D07001026
:1055F00000000000000000000000000000000000AB
:10560000D8410010DC410010E803000055050010EF
:10561000000000000000000000000000000000008A
:105620001000000000000000000001000000000069
:105630000000000000000200000000000000000068
:105640000000030000000000000000000000FF0058
:105650000000000001B5486801318E4600477046E1
:1056600009380149884701BD6110001000000000A1
:10567000000000000000000000000000000000002A
:10568000E011002000000000000000000000000009
:10569000503300004C3300005433000052330000FC
:1056A0004D5300004D4300005334000043340000CC
:1056B0009D2500109D260010E9250010B126001040
:1056C00000000000000100003419002010000C0050
:1056D00000000000000000000000000000000000CA
:1056E00000000000FF000000A417002000000000E0
:0C56F000000000000000000000000000AE
:04000005100001E9FD
:00000001FF
