:020000041000EA
:1000000000B5324B212058609868022188439860DF
:10001000D860186158612E4B002199600221596106
:100020000121F02299502B49196001219960352056
:1000300000F044F80222904214D00621196600F024
:1000400034F8196E01211966002018661A6600F04E
:100050002CF8196E196E196E052000F02FF8012189
:100060000842F9D1002199601B49196000215960AB
:100070001A491B48016001219960EB211966A021F2
:10008000196600F012F800219960164914480160C1
:100090000121996001BC002800D000471248134993
:1000A000086003C880F30888084703B5996A0420EC
:1000B0000142FBD001200142F8D103BD02B5186610
:1000C0001866FFF7F2FF186E186E02BD00000240BE
:1000D000000000180000070000035F00212200005C
:1000E000F4000018222000A00001001008ED00E03C
:1000F00000000000000000000000000074B24E7A12
:1001000000200420F7010010C3010010C5010010F9
:10011000C1010010C1010010C1010010C101001097
:10012000C1010010C1010010C1010010C701001081
:10013000C1010010C1010010C9010010CB01001065
:10014000CD010010CD010010CD010010CD01001037
:10015000CD010010CD010010CD010010CD01001027
:10016000CD010010CD010010CD010010CD01001017
:10017000CD010010CD010010CD010010CD01001007
:10018000CD010010CD010010CD010010CD010010F7
:10019000CD010010CD010010CD010010CD010010E7
:1001A000CD010010CD010010CD010010CD010010D7
:1001B000CD010010CD010010CD010010CD010010C7
:1001C00000BE00BE00BE00BE00BE00BEEFF3058054
:1001D000103800BEF2EB8871788C0010A88C0010EB
:1001E0003802001090A31AE71E481F49086006C88D
:1001F00081F3088810471D480068002801D019487D
:10020000F3E70DA40ECC002902D000F012F8F9E7B4
:100210001749184A002000E001C19142FCD116495B
:100220008847164988471649884700BEFDE701C937
:1002300001C29A42FBD37047A88C0010C000002076
:10024000242500200CB10010000004200000042030
:100250000CB1001000100420001004200000000069
:10026000704700000000000008ED00E0000000D032
:100270002425002080340020D525001045040010DE
:10028000CD250010F8B5C0460448054B10B5834293
:1002900003D0044B002B00D0984710BD242500202C
:1002A000242500200000000006480749091A8B1089
:1002B000C90FC91810B5491003D0044B002B00D04A
:1002C000984710BD242500202425002000000000B0
:1002D00010B5074C2378002B09D1FFF7D5FF054B4C
:1002E000002B02D0044800E000BF0123237010BDA2
:1002F000C028002000000000B4700010054B10B5AD
:10030000002B03D00449054800E000BFFFF7CCFFF5
:1003100010BDC04600000000C4280020B4700010CA
:1003200010B500F07DFB00F0C3FB322001F082FB32
:10033000F9E7C046004870476073001000487047F6
:10034000C8700010004870473873001070B500285E
:1003500022D0032824D8134B8000C558280006F06B
:100360008DFBC1B20C1C1F2914D8C022E4B2631C3F
:10037000DBB20D4892005B0013430380821C002314
:10038000002906D0E95C01331180D9B202328C42D7
:10039000F8D870BD1F24E8E70348044B0360F8E772
:1003A0000020F6E728730010642C002004030904E1
:1003B0007047C04600207047F0B5C646022000B521
:1003C000D02600F077FC0423360600220121B36218
:1003D000022000F05BFC032000F06CFC08230022EC
:1003E0000121B362032000F051FC042000F062FC04
:1003F000102300220121B362042000F047FC0520F5
:1004000000F058FC20230022B3620121052000F0F7
:100410003DFC102398460127094CA044257801345F
:10042000280000F047FC3B00AB40002201212800DF
:10043000B36200F02BFC4445F0D180BCB846F0BD5F
:10044000B8700010F0B5DE46454657464E46E0B55A
:1004500089B002F0BFF903F029FF0021002003F06A
:10046000BFFDFFF7A9FFB14803F08AFFB04BD025CD
:100470009846B04B07AC0493AF4B2D069946AF4B53
:100480000093AF4B9A46AF4B0193AF4B0593AF4BE5
:100490000293AF4B039380231B029B46E6E0434647
:1004A0001B78002B00D022E142460133137001F08B
:1004B0006BFB049B186059604B461B78DAB2012B2A
:1004C00011D16B6869685B0700D5E6E000990B788D
:1004D000002B08D1534618680A700230032101F03E
:1004E000C9FE534619604B461B78012B30D1534649
:1004F0001B68012B2CD1202168686A686E68114046
:1005000040223240C00600D5EDE0019E3078002840
:1005100006D1059833700378002B01D0013B03709E
:10052000002900D0D5E002990B78002B07D10133C8
:100530000B7005990B78022B01D801330B70002A40
:1005400000D0CCE0039A1378002B01D10133137053
:1005500000F02AFA4B461B78DFB2002B00D082E075
:1005600001263100300006ABDE709F706B686A6850
:100570009B08D2089143984306AA06AB0333023284
:10058000276000F0A1F931002070300006ABDE706A
:100590009F706B686A681B0952099143984306AAC9
:1005A00006AB0333023200F08FF960706B689B0971
:1005B0009E436B689B0501D402231E436B685B025C
:1005C00001D404231E436B681B0601D408231E4379
:1005D0006B68DB0501D410231E436B681B0201D43A
:1005E00020231E436B685B0501D440231E436B68C8
:1005F0001B0501D480231E436B68DB0402D48023D7
:100600005B001E436B689B0402D480239B001E4347
:100610006B685B0402D48023DB001E435A466B6880
:10062000134202D180231B011E436B68DB0302D4FB
:1006300080235B011E436B689B0302D480239B01D4
:100640001E436B685B0302D48023DB011E436B688F
:100650001B0302D480231B021E430020668003F08C
:10066000F7FA00281FD1052001F0E4F9012000214C
:10067000404202F06FFD59466B6868680B4080216C
:1006800001400B4380216A68C9020A40134300D12C
:1006900005E70023424613700EE709070AD5002339
:1006A000009A13701FE7042322000021002003F0AA
:1006B000EBFAD8E700990B78002B00D013E75346EC
:1006C00018680A700130032101F0D4FD5346196007
:1006D00009E7002302990B70002A00D132E70023BA
:1006E000039A137034E700230198037018E7049B02
:1006F0001E685F6801F048FA801BB941002905DCDB
:1007000000D0D9E6134B984200D8D5E64B461B786B
:100710005A4253414A46DBB2137001F035FA049B4A
:1007200042461860596000231370C5E6210300108B
:1007300075340020382500207B34002076340020DA
:1007400028300020743400207C34002072340020D3
:1007500073340020BFC62D00002807D100290ED019
:100760001178002910D100201856704711780029FF
:10077000F9D07F214942197000211170F3E701304F
:10078000107000201970F0E77F21F4E770B5084C75
:100790002500403D103CA368002B06D00322210019
:1007A00020009847AC42F5D170BDAC42F2D1FBE7D6
:1007B000642C00200B781078002B06D0431E984143
:1007C00043427F2018407F387047431E9841434280
:1007D0007F201840F8E7C0460B781078002B06D031
:1007E000431E98414342FE2018407F387047431E05
:1007F000984143427F201840F8E7C04610B50400F6
:100800000800110024681A000978029B0078A047AC
:1008100010BDC04613780A78002A05D1002B0ED1EE
:100820000020009A137070470020009A105600288C
:100830000CD1110081220A707F204042F3E7009B17
:100840001B785BB2002B09D07F20ECE7002BF3D0A4
:100850000128E8D17F237E301370E4E7009A7F33CC
:100860007F201370DFE7C046012A03D0002A03D09F
:10087000002070470160FBE70260F9E7012A03D01E
:10088000002A03D0002070470160FBE70260F9E70F
:10089000012A03D0002A03D0002070470160FBE743
:1008A0000260F9E7012A07D0022A09D0032A01D001
:1008B000002A03D0002070470160FBE70260F9E7DF
:1008C0000B680360F6E7C046F0B5CE46474680B5F4
:1008D0009846284B060085B018000D001700994671
:1008E00004F0DAF9244C002816D1244B0F22197891
:1008F0006A44090160180E21836869440E701570FE
:10090000002B35D043460093C4683B00A04705B098
:10091000C0BCB946B046F0BD08220021200001F05D
:10092000F7FD2000164B0822E360164B0021103023
:10093000A36001F0EDFD144B2000E361134B08228E
:10094000A36100236362124B00212362114B3030FC
:10095000E362114BA36201F0DBFD104B1048E3632F
:10096000104BA36306F082F8484604F0B1F9BCE7E7
:1009700004F092FAEC2B0020242C00207C34002080
:10098000B507001069080010D90700107D08001095
:1009900059070010FD070010A508001015080010E9
:1009A0008D07001091080010D02380211B065A6883
:1009B0005B68C9010B40802109020A4070B51343EE
:1009C00014D1104B1A78002A14D00F4B1C685D68A4
:1009D00001F0DAF8001BA941002903DC09D10B4B17
:1009E000984206D90021080001F02CFB0022054B9B
:1009F0001A7070BD01321A7001F0C6F8024B18600F
:100A00005960F6E77134002028250020BFC62D006C
:100A100010B5024804F03EF810BDC0461C2C002062
:100A200070B51C4E1C49300002F020F90321002053
:100A300000F012F90321012000F00EF9002201213B
:100A4000002000F023F900220121012000F01EF90E
:100A5000124D280004F020F9114C00280DD120007F
:100A600003F0A0FD200003F0F3FC0E4B1C6001F02E
:100A70008BF80D4B1860596070BD00233C2231008B
:100A8000200003F03FFD094805F0F0FF280004F0C6
:100A90001FF9E4E7A81F0020801A0600E82B0020B9
:100AA000102C0020F02B002030250020110A00100F
:100AB000F0B5DE4657464E464546E0B5554C85B046
:100AC0002368002B25D001F05FF8534D0B002978E7
:100AD0000200002908D1514908684968121A8B415F
:100AE0001100002B00DC72E0012320682B7003F062
:100AF00059FD4B4B1B68012B2DD0022B00D17EE002
:100B0000002B0DD0474B1B78012B18D0206803F029
:100B10009FFC05B0F0BCBB46B246A946A046F0BD5E
:100B200020680293404B0022019340230021009350
:100B3000403303F03DFD3B4B1B78012BE6D10023F6
:100B400020680293019338330093384A3849023BB6
:100B500003F0D2FFDAE7374B206899460023494675
:100B6000029301930093344A03F0C6FF334B0025F0
:100B70009A460023984653461B780C26304FAB42CA
:100B800013D0434604CF20680293019308230096B4
:100B9000013549460C36EDB203F0AEFFF6B2042D36
:100BA000B0D053461B78AB42EBD100239B46206864
:100BB000244A029301934946009603F09DFF5B4649
:100BC00004CF20680293019300960833E0E7002BDE
:100BD00003D11D4B994200D986E7206803F0E2FC5F
:100BE000002320680293019318330093174A184991
:100BF000083B03F081FF206803F02AFC89E700230B
:100C00002068144A0B4902930193009303F074FF88
:100C100078E7C046F02B00207034002030250020FB
:100C2000283000207B3400207473001034710010D1
:100C30006C83001070800010187100107C3400204C
:100C40007477001024710010BFC62D000C710010C5
:100C50008477001028710010094A83009A1810B593
:100C600014684022544080322240064CC000A44602
:100C700063441A60044B9C466044416010BDC0460A
:100C800004C0014004D0014000400140074B8000F7
:100C9000C3181B68C90092000A435A400C23134032
:100CA000034A9446604403607047C04604C0014054
:100CB00004D001400123D022834012069362936145
:100CC000094A83009A1811684022514080320A4034
:100CD0000649C0008C4663441A60054B9C460523B8
:100CE000604443607047C04604C0014004D00140E6
:100CF000004001408023DB051868000F7047C046A4
:100D00000FB400B5084883B001F0B6FD049B002B7A
:100D100007D005A91800019101F01EFC034801F05D
:100D2000ABFD012001F030FC7871001088710010DB
:100D300070B5EFF3108C72B60D4D2B68002BFCD004
:100D4000BFF35F8F0724CB08C618C05C01230C409B
:100D5000A3401C000440034207D118433070BFF386
:100D60005F8F2C608CF3108870BD1000FFF7C8FFF8
:100D70002C0100D0F8B54746CE46884680B5EFF343
:100D8000108C72B6214D2C68002CFCD0BFF35F8F05
:100D90009A422CD8D4080727055D0619012417406C
:100DA000BC402C421FD007210127894609E0D40806
:100DB000055D06194C4639001440A1400C0029423B
:100DC00011D001329342F2D201204042BFF35F8F33
:100DD00000220E4B1A608CF3108800280FDBC0BC79
:100DE000B946B046F8BD254310003570EEE7BFF3B5
:100DF0005F8F00232B608CF3108801204042434614
:100E0000002BECD00898FFF77BFFC0462C0100D0E8
:100E1000044A1078431CDBB2172B00D9102313703F
:100E20007047C0460C1F002010B5064B064C82B020
:100E30000100009318221F232000FFF79BFF02B040
:100E400010BDC0468C710010F82F00200021044B0B
:100E5000044ABFF35F8F02C39342FAD17047C04682
:100E6000000100D0800100D0054B064A1360064AFD
:100E7000136053609360D360136153619361704753
:100E80008080808000E400E004E400E01F2318403C
:100E90001E3B8340002905D0C021044A490053501D
:100EA00013607047802201498B50FAE700E100E0AF
:100EB00001228240034B1B6813405A1E9341D8B253
:100EC0007047C04600E100E070B50D00EFF31086FA
:100ED00072B60F4A1368002BFCD0BFF35F8F0D4B27
:100EE00010309B6884001B590B4A934203D09D42EB
:100EF00001D001F0CDF8074B9B681D51BFF35F8F08
:100F0000BFF35F8F0022024B1A6086F3108870BD1A
:100F1000240100D000ED00E0CD010010F0B55746EF
:100F20004E46DE464546E0B585B006000091170006
:100F3000EFF3108B72B66A4A1368002BFCD0BFF334
:100F40005F8F0025674B5D579A46002D00DAA9E0B8
:100F50006B00654C01935B199B009846A146C14408
:100F60004B4652469B7910361370604BB6009B6817
:100F700099590B1B2F2B33D95D4B994200D0ACE014
:100F8000019B42469C465B4B6544AD0063535A4B04
:100F90000232A218043B9B1A1B05584A5B0D6519C7
:100FA00013436B80564B0121AB80FF23AB71009B39
:100FB000EF71AB604B460B4319004C4B9B6899514A
:100FC000BFF35F8FBFF35F8F0022454B1A608BF337
:100FD000108805B0F0BCBB46B246A946A046F0BD9D
:100FE00001200A008243D3798C46BB4231D8454662
:100FF000130044491B1B5B415943090D3D4B63538F
:101000003D4B02356519043B5B1B1B053B4D5B0DDE
:101010002B43AA464D466B800425AC465546E0441A
:10102000131F44441B1B1B055B0D1D434B4699714D
:1010300000999D8099604946DF71334B01431360ED
:10104000BBE75800C01880002018C179B9422FD9D9
:1010500002000623D356002BF3DA02932B4B614692
:101060000393131D9A4604235B429C46E144504679
:101070004B461B1A1B055B0D9C46204B95719846F1
:101080006346404603439380019B5A199200039B99
:10109000A418A380029B1C4AA371009B2260E771E5
:1010A000A3608AE700F0F4FF002553465D574FE741
:1010B000908802934005131D9A46031561469C468D
:1010C0004046D444634604302018181AE023000533
:1010D000400D1B0218430390C5E700F0D9FF4FE70E
:1010E000240100D07D340020101F002000ED00E01E
:1010F000CD01001000A1FFFF401F002000E0FFFF16
:1011000001BDFFFFAAAA00000148804701BD000001
:10111000F0B5DE4657464E464546E0B50C0083B076
:10112000EFF3108872B6634A1368002BFCD0BFF34C
:101130005F8F614B61499A68030010339F00D55956
:1011400000938D4243D0A54254D05D4EAA1B2F2A56
:101150003DD85C4B9C461B689A4601231A00994671
:101160008240534613401F2201934B460240934056
:101170009A468022634650469850BFF35F8FEFF344
:1011800005839B46002B37D0009B5B4501D000F0C8
:101190007FFF2A004B469A439068844208D177E04B
:1011A0004B005B189B00F3189868844236D01A00F5
:1011B000062151560029F3DA844255D0019B002BB9
:1011C00027D0C02251463F4B5200995019603A4BEC
:1011D0009B68DD51BFF35F8FBFF35F8F0022354BFC
:1011E0001A6088F3108803B0F0BCBB46B246A9462B
:1011F000A046F0BD0D00EAE72A004B469A439068EE
:101200008442D5D106201056130000280ADA0D00BA
:1012100032E0802351462B4AD150D8E70620185699
:10122000002822DB42001118890074188946A16841
:101230009960E179D971062161569971002925DB00
:10124000A488F11A640524154C440919E024090501
:10125000490D24022143998013181B4A9B001178E1
:10126000F31899711070A9E713005946002914D199
:10127000FF3191711549918013490A789A71144A86
:101280009B1B5B415A43120D0A7097E71149E2E735
:101290000620105613000028C4DA0F4A0F49D21A4C
:1012A000083A5002400D014399800D4952080A4303
:1012B000DA8083E7240100D000ED00E0CD010010CA
:1012C000101F002000E100E07D34002001BDFFFF81
:1012D000AAAA000001BD00004A1F002000F0FFFF85
:1012E00000F8FFFF70B501240443EFF30581EFF32D
:1012F000108C72B6214A1368002BFCD0BFF35F8FAD
:101300001F4B05001F4AED1A6D416A43120D1E4D19
:101310008900AE6852B27658A6421CD006215956B2
:1013200091421CD012215956914222D01E21595669
:10133000914220D02A2159560324914210D0134BB8
:1013400019781A708171BFF35F8F00220B4B1A60FE
:101350008CF3108870BDAB680D4C5C50EFE7002437
:101360006100091989005B18FF2199710949998069
:10137000E5E70124F4E70224F2E7C046240100D0A7
:10138000101F0020AAAA000000ED00E07D3400201C
:10139000CD01001001BDFFFF024B9C466144890056
:1013A000016070474000003470B5114C114DAC42E3
:1013B0000FD2FF262368002B0CD0FFF729FD010078
:1013C0002000FFF7E9FFA680BFF35F8F0834AC422F
:1013D000F0D370BDFFF71CFD01002000FFF7DCFF1C
:1013E0002671BFF35F8F0834AC42E3D3F1E7C04608
:1013F000142500202425002010B50400FFF708FD67
:1014000001002000FFF7C8FFFF232371BFF35F8FA8
:1014100010BDC04610B504000120FFF705FD034BC9
:10142000C3189B002360BFF35F8F10BD40000034E2
:101430000A4B1968EFF3108072B60A68002AFCD0D4
:10144000BFF35F8F1B68BFF35F8F00221A6080F3CA
:10145000108840BF002000217047C0466034002043
:10146000F0B5DE4657464E464546E0B583B0EFF34D
:10147000058203231340B54A9900525800919046C3
:1014800001229A409346B24B1A60B24B01935B46DD
:10149000B1484363434608229B5E9946002B3ADAE3
:1014A00043469B881BB2002B00DB9DE043469B79A3
:1014B000002B00D0E1E0434608241C5F002C20DB19
:1014C00043465A6963001B19DB00D3189D68DC682A
:1014D0006B1C00D103E1A048009984466144826AF4
:1014E0000B69AE1A9B1A9E4213D35A46036A1A42DC
:1014F0000FD0994800F040FB8C4202DCC7D18542F6
:10150000C5D940BF03B0F0BCBB46B246A946A04611
:10151000F0BD0D61EDE7424652695B0092464B44D7
:10152000DB009A4453469E68DF6800F025FB8F423B
:10153000B6DC00D1F8E0002F00DAD9E0524653467D
:1015400054691B69019A934200D1CCE0414652464E
:101550000820085E528800042100104398470400C8
:101560000D0023002B4300D1C2E0002D00DBDFE0A3
:1015700030003900001BA94153469860D960002211
:101580009A5E002A00DA8BE743465D6953009C1897
:10159000E4002C19A768E4688C4200DD80E702D1E2
:1015A000874200D97CE74646328108360DE08C42FE
:1015B00000D1C6E01E000023F25E002A0ADB5300C1
:1015C0009C18E4002C19A768E4689B18DB00EB1852
:1015D0008C42ECDD53461A804B46338043469B8851
:1015E0001BB2002B00DA61E743461A69EFF3108162
:1015F00072B61368002BFCD0BFF35F8F43469E8802
:10160000012342465B42938036B21369BFF35F8F7A
:1016100000221A6081F31088002E00DA46E7434664
:101620005D69083342469C467700BF19FF00EF19F9
:10163000BB68604698460823D15E9246FC68002944
:1016400007DA0EE0A24246D018000023C15E00294E
:1016500006DB4B005B18DB00EB18DA68A242F1DD19
:10166000524606800023FE5E3980002EDCDA90466A
:1016700043469B79002B00D11DE70023424693711E
:10168000434646460821595E08364B1C00D138E7D0
:1016900047468946556902E006004B1C18D04B00AE
:1016A0005B18DB00E8180A008C46E95E43881BB231
:1016B000002BF1DA01235B42DC178360C4604A45EA
:1016C00003D031803B8903803A81E1464B1CE6D14F
:1016D000B8464C46F2E69A684245B5D9C0E7631C65
:1016E00000D0F8E605E7200023699847002825D1B7
:1016F000534642461B8813811269EFF3108372B67A
:1017000011680029FCD0BFF35F8F424651465288D2
:101710000A804246494651801269BFF35F8F00211B
:10172000116083F31088BBE6864200D803E7B7E672
:10173000094800F021FA001969411DE7656824682D
:101740000FE7874200D835E744E7C046443400201D
:101750003C700540611400100040054070B52E4CEF
:101760002569002D04D00A212C48FFF715FE70BD15
:101770002B4E0321300000F0F5F9E660FFF748FB3F
:10178000284B03229C46D02322701B061B68012194
:101790006370254B6044A3600F238000206102200A
:1017A000638063694942A1801980023119864731FB
:1017B0001D83585218315A5275325C399952183279
:1017C000013199521832013199521832013199522E
:1017D000083518329D5202311832995218320131AF
:1017E00099521832013199521832013199521832F6
:1017F000013199521832013199520C4B0C49DC607D
:1018000001303562FFF760FB01210320FFF73EFB4B
:10181000084B1D60A7E7C046581F00206034002019
:101820000040054040000034FFFF10004434002019
:10183000611400103860054070B501000469EFF3D1
:10184000108C72B620680028FCD0BFF35F8F022096
:101850000D5E4C6968004019C0002418002D37DB6C
:10186000208848800869BFF35F8F002606608CF3EC
:101870001088E36063880498013320615B04059855
:101880005B0CA26060611A1C002B1FD093B228046D
:10189000628018430A69EFF3108C72B61368002B4C
:1018A000FCD0BFF35F8F8B8823808D800B69BFF3E3
:1018B0005F8F00221A608CF310880B7801329A40F7
:1018C000CB6808498C4663441A6070BD0122DDE78D
:1018D0000B69BFF35F8F00221A608CF31088012020
:1018E0004042F2E73C20000010B543890A149342BD
:1018F0001ADD53009B184269DB00D3180469EFF32B
:10190000108C72B62268002AFCD0BFF35F8F5A8811
:10191000090494B2090C8A4208D00369BFF35F8FAF
:1019200000221A608CF31088002010BD8022120261
:1019300014435C80012302698371BFF35F8F002130
:1019400011608CF31088044902788C469340C26879
:10195000012062441360E8E73C200000F0B5040079
:101960000D0006267642F717C64636196F4100B5B8
:1019700082B08F4214D811D000F006F932003B003B
:10198000121A8B41002B17DC002B47D020002900B6
:1019900000F038F902B080BCB846F0BD8642EBD901
:1019A0000022002316001F0000F0EEF832003B007A
:1019B000121A8B41002BE7DD00F0E6F832003B0005
:1019C000121A8B41002B0ADB00230193154B3200C6
:1019D000009315483B00FFF72FFF0028D6DB0023BC
:1019E0009C46B046114A124E736A9F4204D8B16AAF
:1019F0008845CBD99F42C9D11168EFF3108072B6E8
:101A00000B68002BFCD0BFF35F8F1368BFF35F8FB1
:101A10006146196080F3108820BFE5E7002AB5D041
:101A2000CAE7C04631140010581F0020603400205F
:101A30000040054070B5060000F0A6F8FA22040048
:101A40000D00002330000021920000F0C9FC80232B
:101A5000001969411B06994202D301200249404204
:101A6000FFF77CFF70BDC046FFFFFF7FF0B5D64695
:101A70004F464646C0B504000D0082B0EFF305871F
:101A80008946002F0ED0344900204B6AAB4203D365
:101A90008A6A0130A24226D302B0E0BCBA46B146FF
:101AA000A846F0BD2D4B9846DB689A464346504603
:101AB0001E7800F061F80B00514602000436B600B3
:101AC000715820008E1A2900801A99418F4211DC2A
:101AD0000ED020BF204A0020536A4B45DCD3926AC7
:101AE0000130A242D8D25B1B5A1E9341D8B2D3E731
:101AF0008642EED900F048F822002B00121A8B41E2
:101B0000002B1ADB00230193154B22000093404663
:101B10002B00FFF791FE011E0FDD0F4B5A6A4A455D
:101B200017D39B6AA34212D34046FFF7DDFE0A4A51
:101B30000020536A4B45AFD3D1E7074A0020536AD0
:101B40004B45A9D3926A0120A242A5D2CBE74A45D0
:101B5000EAD120BFE8E7C04600400540581F0020FA
:101B60003114001010B5024A0248FFF7E1F810BD29
:101B7000A8710010FC2F00200300416A0A00986A37
:101B8000596A8A42FAD17047034B596A0A00986A27
:101B9000596A9142FAD170470040054070B504007F
:101BA0000D00174A536A1900966A536A8B42FAD19C
:101BB0003000190024184D41AB4216D813D0104AFA
:101BC0002B00526A954203D90D494A6A9A42FCD3C6
:101BD0009A4207D10A4A02E0516A994202D1916AB7
:101BE000A142F9D370BDA642E9D9054B5B6A1C003E
:101BF0005A1CEFD0012301246442E5175B42E3E75E
:101C000000400540064A536A9942FCD807D1044B6C
:101C100002E05A6A914202D19A6A8242F9D370472D
:101C200000400540F8B5040006200D0000F078F9EA
:101C3000002844D0374B3849E3185A1E934180227C
:101C4000120494465B429B0D344A9B056344136027
:101C5000334A136018000A689043FBD12D4B314A78
:101C6000E31859424B4180215B00490006209952FC
:101C700000F056F92900C00000F024FB0130C30930
:101C80001ED1402701226262A362266BF30722D491
:101C9000E36A254B0620E51800232B60266300F03D
:101CA0003FF93900800000F00DFB7023E26A5A40D2
:101CB0000E3313402B601D4B23630323A364F8BD35
:101CC0001B4A93421ED900231A4A1B4F6262A36229
:101CD000266BF307DCD5194B144AE3181A60656AC2
:101CE000A36A0620AD01ED1800F01AF9144900F0BE
:101CF000E9FAAD020100280000F0E4FA0021FFF744
:101D00004DFFC5E74006800E9F011A003F180300F3
:101D1000B9E7C0460080FCBF08C0004000E00040BA
:101D200000F00040643400202C100000010300008B
:101D3000FEFF0000FFFF0000C0FF3F00303000004A
:101D40004E0E0000F8B5DE464E4657464546E0B515
:101D50008B4605000A991800160000F0B3FA0A9B9A
:101D60006C001F02324B64199C46A40064446368F3
:101D700081469F4200D967602B1FDBB29846012B3A
:101D800030D9C02380229B01E31812011A60294B2D
:101D9000AD0059599A4600291BD17301E0262268EB
:101DA00053401E40802342465B01E3181E60012A17
:101DB00030D9802380229B01E31812011A60534618
:101DC0004A4667605A51F0BCBB46B246A946A04697
:101DD000F8BD586900F076FA013043001B18033B48
:101DE000FDD2DAE75B46012BCBD1C02303229B0156
:101DF000E3181A60023AA3681A42FCD07301E02685
:101E00002268AD0053401E4080230A4A5B0192467F
:101E1000E3181E605A462168514003220A401A60A6
:101E200001225B469A40A3681A42FCD0C1E7C04633
:101E30000080004000300020F0B546464F46D646B0
:101E4000C0B51F00344B44009C462418A4006444D1
:101E5000636888461600FF2B02D880235B0063600E
:101E6000031FDBB29A46012B30D9C02380229B018D
:101E7000E31812011A60294B850059599946002927
:101E80001BD17301E026226853401E408023524636
:101E90005B01E3181E60012A30D9802380229B0158
:101EA000E31812011A6080235B0063604B465F51A8
:101EB000E0BCBA46B146A846F0BD586900F002FA47
:101EC000013043001B18033BFDD2DAE74346012BE8
:101ED000CBD1C02303229B01E3181A60023AA36806
:101EE0001A42FCD07301E0262268850053401E4050
:101EF00080230A4A5B019146E3181E60424621682E
:101F0000514003220A401A60012342469340A268CE
:101F10001342FCD0C1E7C0460080004000300020E2
:101F2000014B8000C058704700300020F8B5040015
:101F300021481E0017000D0000F0C4F90100380010
:101F400000F0C0F9069B36041B031E432368002BD8
:101F500020DB1A4B1A49E3185A1E93418022920142
:101F600094465B421B0B174A1B0363441360164ADB
:101F700013601F000A689743FBD1144B2560E218D9
:101F80002123A06013602368002BFCDA0823E6609D
:101F90001360F8BD3F2322681340AB42D9D1A36838
:101FA0001B051B0D8342D4D1EE22E368D2021340FD
:101FB000B342CED1EDE7C046001BB7000040FDBFE5
:101FC00008C0004000E0004000F000400430000085
:101FD0008023024A9B000B43D36270470080054078
:101FE000142310B50100188804331B88984710BDCE
:101FF000162310B50100188802331B88984710BDBE
:10200000F8B54746CE4680B50F1E19D01423994621
:10201000043304000025012698464B4618884346A1
:1020200021681B88984701C4431E984101354042EE
:102030000640AF42F1D13000C0BCB946B046F8BD51
:102040000126F8E7142370B50400188804330D0046
:102050001B88034998472900030020009847C04681
:1020600055420000AA23064A1B0113608D235B0022
:10207000D3600449044B19605368002BFCDA7047A5
:102080000040024000B0FA00006002407047C046C5
:1020900010B50148FEF734FECC71001070B5074D45
:1020A000074EB54209D20024013E761BB60808CD82
:1020B000984723000134B342F9D170BD6870001015
:1020C000A470001070B5074D074EB54209D2002428
:1020D000013E761BB60808CD984723000134B34271
:1020E000F9D170BD9C700010A4700010054B064A19
:1020F00006491A60064A074B1A6010000B6898439D
:10210000FBD1704700E00040BFCDFBFE08C000409F
:10211000FE7F3C0000F00040044BDB6C002B03D141
:102120008022034BD2021A607047C0460000115053
:102130004C201150044A054B1A60054A1368DB0114
:102140008033FBD17047C046FFFFFF0100F0004025
:1021500008C000404022034B9A675A671A67DA6644
:102160007047C04600F0014010B5FEF76FFE10BD8D
:1021700070B5044D044CA968C022200000F0CEF9CF
:10218000AC6070BD00ED00E000000020002310B541
:10219000294C82B0A367FFF765FF0122274B1A6025
:1021A000636C012BFCD10322254B1A60224A936BEE
:1021B000012BFCD1013300930121224A2248043330
:1021C000FFF7B4FE052301210093204A2048FFF7C2
:1021D000ADFE0022022104201E4BFFF72DFE00223F
:1021E000012105201C4BFFF727FE002200210720BC
:1021F0001A4BFFF721FE002200210820174BFFF7A2
:102200001BFE8023DB000093002200210920134BDA
:10221000FFF798FD0022104B00210620FFF70CFE6F
:102220000420FFF77DFE0E4900F04CF8010000206D
:10223000FFF7CEFE02B010BD008000403CB0004071
:1022400030B00040002F685900800240008C864763
:1022500000C00240001BB70040597307006CDC024D
:1022600040420F0001480421014B1847701F002015
:1022700001200010124A936F9B0815D29066D16618
:10228000002905D0FFE7FFE7FFE7516F106F7047A8
:1022900004B580210906C2175140002800D0C84368
:1022A00004F062FE002104BDF0B5146E556E576F48
:1022B000166FFFF7E3FF1466556657671667F0BDA4
:1022C000000000D0114A936F9B0813D2106651662C
:1022D000002905D0FFE7FFE7FFE7516F106F704758
:1022E00004B5002801D00020C04304F03DFE0021C9
:1022F00004BDC046F0B5146E556E576F166FFFF7EC
:10230000E5FF1466556657671667F0BD000000D0FC
:10231000132370B51D78012D19D014DD1F48FFF768
:1023200067FE06001E48FFF763FE1E4C8022310048
:10233000200000F0F3F8022D2DD01B48FFF750FECF
:102340001A4B186070BD1A4B164CA364F5E7184B76
:10235000144C23606360A360E36023616361A36145
:10236000E36123626362A362E36223636363A36343
:10237000E36323646364A364E36423656365A36523
:10238000E36523666366A366E36623676367A36703
:10239000E367A364D1E7064BA364CEE75344000090
:1023A00053460000C02600204C3300005C3400205F
:1023B000B523001007B5604601880A0A0230DF2AFB
:1023C000FAD1C9B2820804D30288408800041043BD
:1023D00000E00068014A5050039007BDC02600206D
:1023E00051434343C9188C46110C83B24B4310B47C
:1023F000040C614392B280B2504362431C041B0C34
:10240000001910BC59411304120CC0185141614409
:1024100070470000132310B512481C78FFF7E8FD41
:102420000100012C0AD003DD80220F4800F076F86D
:102430000E48FFF7D5FD0E4B186010BD0A4C542214
:10244000200000F06BF80B4B6365A365E365236622
:102450006366A366E36623676367A367E367236234
:10246000E361E5E753460000C02700204C3300003D
:102470005C3400207924001007B5604601880A0A00
:102480000230DF2AFAD1C9B2820804D30288408818
:102490000004104300E00068014A5050039007BD5B
:1024A000C027002070B504000A4E300004F0C4FDBF
:1024B000200004F067FA0500300004F02DFD002D27
:1024C00005D0054B2C199C4201D8280070BD03484B
:1024D000FEF716FC1425002000000420D87100101F
:1024E00070B50400054D280004F0A6FD200004F09E
:1024F00053FA280004F010FD70BDC04614250020DA
:1025000001480421014B1847801F002001200010C2
:10251000014B1B6818470000801F0020014B5B68BF
:1025200018470000801F002010B5FFF7BBFF10BD4B
:1025300010B5FFF7D5FF10BD10B5FFF7D1FF10BDE7
:1025400010B5FFF7CDFF10BD10B5002800D110BDAC
:1025500000F046F9FBE7C04610B5094A03001468CD
:1025600084B0002C08D0012200910648524203A9F1
:10257000A047012004B010BD00F07EF90020F9E76B
:102580003C3400204925001000BEFDE7094A030045
:102590001068002805D00849C3188B4207D813607B
:1025A000704706480449C31810608B42F7D90120D0
:1025B0004042F5E73830002000000420803400203D
:1025C00000207047012040427047C04610B5FFF719
:1025D000DBFFC04670B5FFF761FD074D074EB54202
:1025E00009D20024013E761BB60808CD9847230087
:1025F0000134B342F9D170BDA4700010B470001062
:10260000030010B5080011001B68984710BDC046B4
:10261000F0B5C64600B5437D07000D001600002B3F
:1026200038D0002A2EDD00216A1E90466A5C037DA8
:102630004C1C00200A2A0CD0A64216D043461B5D33
:1026400021000D3B5A4253416A5CDBB24C1C0A2A02
:10265000F2D1002BF0D1884217DB022110483B68F1
:102660009847A64207D02000E8E7864203DD311AEA
:102670003B6828189847AD19013D2B780D3B5A420D
:1026800053413B7580BCB846F0BD091A3B68281819
:102690009847E2E70368110028009847F2E7C04630
:1026A000A0850010F0B5DE4657464E464546E0B5DB
:1026B00085B017001C0006000D00FFF765FA002327
:1026C000314A12184B41802109068B4202D3012264
:1026D0002E4B52422E4908008A4604F06DFC0190B0
:1026E0006B1C03D1300004F0C9F90500002C26D082
:1026F000284B9846284B1C68002C15D0002F21D160
:10270000264F02E02469002C0ED02368002BF9D05C
:102710003B68002B01D09C42F4D120002A003100FC
:10272000C0472469002CF0D1019B002B28D1280040
:1027300005B0F0BCBB46B246A946A046F0BD184B5A
:102740009846D7E7154B994602ABDF1D0A239B46F7
:1027500002E02469002CE7D02368002BF9D04B4617
:102760001B68002B01D0A342F3D12A0031002000C6
:10277000C0475B460122390020003B70C047E8E7B4
:10278000504604F0C9FBD2E740420F00FFFFFF7F35
:102790001C250020112600102C3000203430002091
:1027A000012600100A4A1368002B05D10CE01A001C
:1027B0001B691032002B07D09842F8D1002902D1B2
:1027C00003691360016170470029FCD01060FAE7CB
:1027D0002C30002010B500F03BF9012010BDC046A0
:1027E000F0B5CE46474680B583B06B460600DD1D8A
:1027F0002870FFF7C9F900231A4A12184B418021AB
:1028000009068B4202D30122174B52421749080096
:10281000884604F0D1FB164B81461C68002C14D06E
:10282000144F02E02469002C0FD02368002BF9D04C
:102830003B68002B01D09C42F4D1200001222900EA
:10284000FFF7E6FE2469002CEFD14B46002B05D1A3
:10285000300003B0C0BCB946B046F0BD404604F0FD
:102860005BFBF5E740420F00FFFFFF7F1C250020C8
:102870002C3000203430002070B5040004F0FEF845
:1028800001230100050001222000FFF70BFF084B88
:102890001C68002C06D06368002B05D0984724697B
:1028A000002CF8D1280070BD2469002CF3D1F9E781
:1028B0002C300020F0B5002915DD0E4B0D271A68CD
:1028C0000D4B0E4CD3185D426B41451820215B0027
:1028D0001E5F0478A64207D093691942FCD10130EB
:1028E0001460A842F5D1F0BD93691942FCD117607C
:1028F000F2E7C0466C3400200080FCBF6434002046
:10290000204B70B504000D1E1E682ADD002010212A
:102910001D4B013C1A689369194214D10130936927
:102920001942FCD1136823548542F4D1002E08D0FB
:1029300050239363516B183B0B4014498C466244FF
:10294000136028000CE0002E08D050239363516BD5
:10295000183B0B400D498C466244136000280DD093
:1029600070BD002E0AD05022074B1B689A63596B2A
:10297000183A0A4005498C4663441A6003204042D5
:10298000EEE7C046F02F00206C3400203410000029
:10299000064B10B51B68002B06D00021044A1268B4
:1029A0009163044A1068984710BDC046F02F00207C
:1029B0006C340020F42F00200822034B19688B6927
:1029C0001A42FCD17047C0466C340020F8B51A4F4B
:1029D0001A4B3A680500D31858424341184E143335
:1029E0001C003368002D02D0002B0FD0F8BD002B47
:1029F000FCD0002120009563FEF748FA2000114921
:102A0000FEF786FB104B35601D60EFE70E4B200094
:102A100019600C493560FEF757FA01212000FEF7D6
:102A200035FA50223B689A63596B183A0A400749B5
:102A30008C4663441A60D9E76C3400200080FCBFE8
:102A4000F02F002091290010F42F002034100000F6
:102A50000D4B10B51B780D4B0D4C1B780D4B022107
:102A60001B780D4B00202360FEF7F6F802210120B1
:102A7000FEF7F2F8E12120684902FFF7D3F80121BF
:102A80000648FFF78FFE10BDA48C0010A08C00102C
:102A90006C3400209C8C001000400340901F0020EC
:102AA00070B50C4E0D001C003060002A03DB0221C3
:102AB0001000FEF7D1F8002C03DB02212000FEF706
:102AC000CBF829003068FFF7ADF801210248FFF785
:102AD00069FE70BD6C340020901F0020F0B5574691
:102AE0004E46DE4645468446E0B583B01F000CAB3B
:102AF00018786346914600221B680190DA6601321D
:102B00005960DA66002F4FDD7A1E904662461279D0
:102B100001269202802493463A00464076028025A0
:102B20003700002046461021A2469046AD00841B87
:102B3000624254414A4664423C4000945C46125C06
:102B40002243009C22431A615A6B1142FCD0524628
:102B50009C58002C10D1B04221D000220130934665
:102B60008045E4D16346019A1A7103B0F0BCBB46BC
:102B7000B246A946A046F0BD5A6D012293465A6B53
:102B80002A42FCD01A6E5A46002AE6D0002C03D006
:102B9000E30701D42407E5D401204042E2E7019A8B
:102BA000002ADAD19346EAE70020DBE7F8B5DE46F3
:102BB00057464E4645468346E0B505200C00FFF7D4
:102BC000AFF90600600821008019FFF77BFB430086
:102BD00098468044070005214046FFF773FB3B1AE7
:102BE0009A461E4B8146700080199C4231D81C4980
:102BF000FFF768FB451C5B461C680023E366226800
:102C000004335A400233134080225201A218136049
:102C10005346E3614B462362434601204F2B03D9C1
:102C200050214046FFF74EFBA023E050E36F3900F0
:102C30005D400C4B2D042D0CE3181D60012330006A
:102C4000E366FFF73FFBF0BCBB46B246A946A04691
:102C5000F8BD0549FFF736FB451CCCE73F420F00A6
:102C6000809698007C10000040787D010F4A70B576
:102C7000821A531E9A410E4BD20008321A600D4B35
:102C80000D4C1A60150023689D432B1EFAD1662453
:102C90000268FF340571D5661460633C8833FF3CDD
:102CA000D5639563D450FFF781FF70BDA81F002046
:102CB00000E0004000F0004008C0004010B582B0C5
:102CC00004AC24780094FFF709FF02B010BDC046A1
:102CD00010B588B004000D2200216846FFF718FCEB
:102CE0000D22002104A8FFF713FC4B236A46684617
:102CF000137004A90D2204F007F915210822200001
:102D00006944FFF70BFC08B010BDC046F8B500F0F1
:102D100043F90C23194DFF22AB6705201849FEF734
:102D2000FDF8184C402200212000FFF7F1FB40275E
:102D3000002301262121144A66702783A2601360B4
:102D400063545F31618445396354104A10496360AC
:102D5000E2602787A1620B606362E26204F04CF9D3
:102D600080239B052E64EB6490230A4A0120EA50DD
:102D70008022094B5202DA64F8BDC04600001150AF
:102D8000990400203C3000208400105000011050B5
:102D90008000105010D001000020115010B501210A
:102DA0000520FEF773F810BD10B50022002102487F
:102DB00000F012F910BDC0465C300020044B1970C1
:102DC000002904D080219023024A8902D150704703
:102DD00078340020002011500B785B0602D14B782C
:102DE000052B00D070478A78014B1A60FAE7C0467D
:102DF00000001150F0B5C646C87800B58007830FB3
:102E00001800012B60D08F780A794B797F213940E7
:102E1000FC091B024E001343334D32195201AA180C
:102E2000977001276740577000275B055B0DD770CF
:102E30001383D076B846CA00012C32D02B4FBC4643
:102E40008F016244BC46AC446746BA60474617608F
:102E5000002932D0264AC90090466246414451605A
:102E60003F223F339343022837D0224937190A685B
:102E70007F01D3180B602049EF19FA608B422ED8DE
:102E800036197601AD19EB7E1C499B064A40134367
:102E90008022120613436A681360012080BCB84682
:102EA000F0BD174FBC468F016244BC46AC44674638
:102EB000BA6247461760002908D1002364012C1923
:102EC0006360104BE360E8E70020E7E70B4AC900C6
:102ED0009046624641445162C2E75B00C5E7FFF796
:102EE000D7F8FA68CCE7C0463C3000208400105088
:102EF0000400105040340020FF0F1050000010500C
:102F0000800010500001105010B504F075F810BD8D
:102F100010B57F200C0020404000E409110000198A
:102F20001A00034B4001C01800F056F8012010BDF4
:102F30003C3000207F23180010B50840CA090B421E
:102F400003D107497D3B9B1A8B6640008018802285
:102F5000044B40010021C018120104F065F810BDB7
:102F6000002011503C3000207F22130010B50B4090
:102F70000A4200D110BDC9095B005B1804485B011F
:102F8000C018002300220349C37004F04DF8F1E794
:102F90003C300020FFF7FFFF80220A4B520410B59F
:102FA0001A60094B09491A6010000B689843FBD15D
:102FB0008022002152010648FFF7AAFA0922054B98
:102FC0005A6710BD00E0004000F0004008C000401B
:102FD0000000105000001150002310B5C3820133CF
:102FE000828283760161040004F02EF8002804D068
:102FF00080219023074A8902D150200003F0E4FF8A
:10300000002802D00123237710BD200003F0E4FF45
:10301000FAE7C04600201150002070477047C046B4
:103020007047C0460020704700207047002070475E
:103030007047C0467047C0467047C0467047C0469C
:10304000024B5878431E9841C0B27047D42D0020DF
:10305000024B18784007C00F7047C046D42D00209F
:10306000F0B5D6464F464646C0B52F4B07009A46A8
:103070001B780E00FF2B01D0012041E000293ED03B
:10308000002154222948FFF743FA0022284C294BFB
:1030900020001A70FEF7B0F9274B1C60274C200067
:1030A000143CFEF7B7F9200001F0E0F8244B254D61
:1030B0001C60254B002B28D0280000E000BF234BCC
:1030C00018602B78224A00249146204A90460EE050
:1030D00043461B6862019B18002B10D05B68002BD5
:1030E0000DD0984701342B78E4B2A3420FD3A3420A
:1030F000EED8E31A5B014B445B68002BF1D1002052
:10310000E0BCBA46B146A846F0BD2B78DAE7534694
:10311000310038001F70FFF7F9FD0028EFD03800AC
:10312000FFF73CFE0120EBE7CC1F0020D42D002050
:10313000CC2D002079340020282E0020C41F002030
:103140002C2E00207734002000000000A42C00204A
:1031500068860010F0B5DE4657464E464546E0B557
:10316000CA4B8FB003931B78FF2B00D146E1C84BAD
:10317000C84E9B465F46C84B0BAC0293C74B0193AE
:1031800035686A69EFF3108172B61368002BFCD0C2
:10319000BFF35F8FA9612800210000F0C5FF6A69B5
:1031A000AB69BFF35F8F0021116083F310880028A3
:1031B00000D123E16378082BE2D89B00FB589F469F
:1031C0006368002BDCD0A0689847D9E77F2221797B
:1031D000B14D0A405300EB189846C8098044404658
:1031E0000123303005799D430571057903339D43F3
:1031F0000571002A00D108E14346A94A1B7D1278D7
:10320000934200D3F8E0A74A5B011568ED18002D42
:1032100000D1F3E0A36862792078AD69A847AFE7F1
:10322000A14A1378002B00D1E8E01378013BDBB210
:1032300013701378002BA3D10122974D01212B7815
:10324000042013432B703423EA5C8A43EA54EA5C7B
:103250008243EA540133EA5C8A43EA54EA5C8243DB
:10326000EA5423780020984600F060FC602223791D
:103270001A40602A00D1F3E0402A00D1F9E0DB06D1
:10328000DB0E012B00D117E1022B00D1CCE0002B8B
:1032900000D0E5E0202A00D10FE2002A00D0DFE0D4
:1032A0006379092B00D9DBE0804A9B00D3589F4605
:1032B000794D2B78DB0700D462E7FFF7BFFE5FE7AD
:1032C000029BDB78DB0700D45AE76068FFF7A8FEB3
:1032D00056E7714D2B78DB0700D451E728780007BB
:1032E000C00FFFF7A9FE4BE723786C4A9846934638
:1032F0006B4B6C4A9946310092463A0046464F461F
:103300000025914688461B780EE053461B686A01EB
:103310009B18002B00D17EE0DB6830009847013518
:103320003B78EDB2AB420CD39D42EED3EB1A5B017E
:103330005B44DB683000984701353B78EDB2AB4227
:10334000F2D2554D542200212800FFF7E1F8102257
:10335000FF21281DFFF7DCF828002022FF21143070
:1033600046464F46FFF7D4F800F0D6FB2379AB7002
:1033700006E723784B4A9846494B924699463200D5
:10338000BB46464600254F4690461B780DE0534607
:103390001B686A019B18002B41D0DB6830009847FE
:1033A00001353B78EDB2AB420ED3AB42EFD8019A78
:1033B000EB1A94465B016344DB68300098470135A3
:1033C0003B78EDB2AB42F0D2029D5422002128009E
:1033D000FFF79EF81022FF213548FFF799F82800E3
:1033E0002022FF21143046465F46FFF791F800F097
:1033F00093FBFFF71FFEC3E6934213D00FB0F0BC60
:10340000BB46B246A946A046F0BDA36862792078C3
:1034100000F0A0FBB4E646464F461F4DA4E74646E3
:103420005F46E4E71D4DF5E67023217A0B4217D184
:10343000C80983460F330B405B0099461848EB18C8
:103440005B441B7D0078834261D216485B010068B3
:1034500082469A44002A00D14EE15346002B5ED1A9
:1034600020780021FFF766FD80212078FFF762FDBC
:1034700086E6104800F05AFB012140460CAAFFF7EF
:10348000CBFD002800D07BE6EAE7C046CC1F002039
:10349000C08500102C2E0020D42D0020688600103E
:1034A00077340020A42C002079340020E48500101B
:1034B000D82D002019300010237A0F2BD0D8D54AF0
:1034C000EB181B791278934234D3C9D1D24D686975
:1034D00000F02CFB012140466B690CAA984700289C
:1034E00000D04DE66022150023791D401A42B7D165
:1034F00063790A3B012BB3D800F018FB63790A2BE0
:1035000000D17DE140460CA900F09AFA38E68342EA
:1035100000D0ECE0C04B9A46002A00D1ECE05346C4
:10352000586900F003FB5346012140465B690CAA31
:103530009847A6E7B94A5B011568ED18002DC6D17A
:103540008EE7A3799A466B789A45DBD06B78002B8F
:1035500000D028E153466B70002B00D120E150468B
:103560000138C0B2FCF7EAFE002800D171E14378CF
:10357000022B00D06DE10122C179A9468B114911BE
:1035800013400A40302112015B0113432A788A4319
:1035900013432B7009239B4683445D46B346C3788F
:1035A00082781B021343C31806939A4B0497059322
:1035B000994B0893994B9A46994B0993069BAB42BA
:1035C00000D849E16B7801220B2B03D12B78EA78E4
:1035D000ED186B78042B00D038E1069B00265B1BAE
:1035E0009BB20793059B17001B7818E053461B6896
:1035F00072019B18002B00D128E1290040461B696D
:10360000079A9847082803D9079B834200D30BE108
:10361000059B01361B78F6B2B34200D216E1B342E5
:10362000E4D8089AF31A94465B016344E5E76B78A3
:103630000AAA02321370404601230CA900F016FAC0
:103640009EE5E3881A0AD8B20F2A00D908E775491F
:103650009300CB589F460CA800F06EFA4046A17923
:10366000FFF7A2FB02222B7813432B7088E5E38837
:10367000012B00D0F4E608222B78404693430CA996
:103680002B7000F0DDF97BE5022029780AAB9A1C4B
:103690008B068908DB0F01400B4313804046022351
:1036A0000CA900F0E3F96BE5E388012B00D0D7E625
:1036B00008222B7813432B7024E7237A0F2B00D991
:1036C000CEE6544AEB181B791278934228D2534A1B
:1036D0005B011568ED18002D00D1C1E6686900F0A6
:1036E00025FA012140466B690CAA9847C9E6002AD1
:1036F00000D0B5E600239A466279022013000492B6
:103700008343012B11D0002A00D0A9E62B004B44A3
:103710005B4430331B790AAA9B07DB0F0232BCE7FC
:10372000934200D09CE63C4DD8E7E388002B12D1B1
:10373000039B1878049B012B23D0FFF7FBFB4B4620
:103740000221EB185B4430331A790A4301211A71C4
:103750001A790A431A715346002B00D110E55869B3
:1037600000F0E4F9534601215B690CAA40469847F2
:10377000002000F0DBF93523EB5CDB0700D5FFE42C
:10378000C0E6FFF7F1FB4B460221EB185B443033F8
:103790001A798A431A711A7904998A431A71DAE7F5
:1037A000FFF748FCAEE600214046FFF707FB404626
:1037B000FFF7AAFB00229346174AAB780592174AF7
:1037C000049306922A00134B5D46994693461B7854
:1037D0000EE0069B6A011B689B18002B55D0DB6826
:1037E000404698474B4601351B78EDB2AB4238D383
:1037F0009D42EED3059AEB1A94465B016344EEE7D3
:103800000AAB9A1C404601230CA9157000F02EF952
:10381000B6E4C0467734002068860010A42C00204F
:10382000E82D00200C8600103A000700002A3CD04A
:10383000AB789A18D2B204E00133DBB20E719A422F
:1038400033D04946C9180879FF28F5D05E464D4661
:10385000049F00236B7003E65E46049FFFF7E8FBBE
:1038600050E65D46542200212800FEF751FE10224A
:10387000FF21281DFEF74CFE28002022FF211430D6
:10388000FEF746FE049BAB7064E65D46FAE7FFF781
:10389000C9FB021E00D1E3E5D37891781B020B43EC
:1038A00040460CA900F0E2F8EBE5330029003A00AD
:1038B000099800F01FFC059BED191B78B34200D35B
:1038C0007CE6C3E7FFF7B0FB021E00D1C8E5404627
:1038D00013780CA900F0CAF8D3E52189FCF736FD6E
:1038E000021EF4D1BCE5022A0FD0FFF79FFB021E97
:1038F000D2D1B5E5FCF71EFD021E00D1B0E51223C2
:1039000040460CA900F0B2F8BBE5FCF717FD021E1B
:10391000C2D1A5E5F8B557464E46DE4645460C00F1
:10392000E0B516001F00002A3CD01F4B00259A4628
:10393000702399461D4B9B4617E05B462000997803
:1039400000F09AFB00281FD021004046FFF752FAF2
:10395000002819D0A378DA09012A1CD00A9A013567
:1039600013702378E418B5421CDA6378052B0BD169
:10397000E3789B079B0FBB4206D153464A461B7810
:103980009846A3781A42D8D00020F0BCBB46B24675
:10399000A946A046F8BD0B9A013513702378E418A8
:1039A000B542E2DB0120F0E7CC1F0020D42D00203F
:1039B0000B007F2010B51840DB0934334000044A67
:1039C000C018044B1168C01800F02EFB10BDC04693
:1039D000282E0020D42D002070B57F240F480C40E5
:1039E00064000419CD09641930342079C00701D569
:1039F000002070BD012625790948354300782571DE
:103A0000FFF786FA0028F4D101222379934323712A
:103A10002379033293432371EAE7C046D42D002073
:103A2000CC1F00207F22054B0A405200C9099B1879
:103A30005B1830331879C007C00F7047D42D0020B1
:103A400070B5094C0600082220000D00FEF766FD47
:103A500000238021E360A3602B783000994300228B
:103A60000023FFF7B9FF70BDE82C0020F8B5CE4663
:103A700047469046264E80B58146082230000D000C
:103A80001F00FEF74BFD4346B3600023F381EC7942
:103A9000AB7924021C43231CBC4200D93B1C9FB2BF
:103AA000B381002C0ED0002F18D04346002B2CD011
:103AB0003B1C402F1BD89FB233787F2B1CD8002192
:103AC000144A0FE080212B780022994348460023B6
:103AD000FFF782FFC0BCB946B046F8BD7F23002285
:103AE000317899433B004846FFF776FFF2E74023E1
:103AF0009FB233787F2BE2D9064C3A004146200032
:103B0000FEF70CFD80212200ECE70020E2E7C04632
:103B1000E82C0020A82C002010B514220021024817
:103B2000FEF7F6FC10BDC046E82C0020014B1861E2
:103B30007047C046E82C002010B5054C0100082253
:103B40002000FEF7EBFC0023A360E36010BDC0463D
:103B5000E82C002070B5384C1D0023780600DA09E7
:103B6000C9098A4210D00020002D00D070BD21006C
:103B70003000FFF731F92369002B03D02200032125
:103B8000300098470120F1E7A0687F2B05D8002876
:103B900034D02A002949FEF7C1FCE289A1685219F4
:103BA000E38892B24919E281A160934214D03F2D7B
:103BB00012D9A389981A051C80B240282AD82078E7
:103BC000ADB27F2828D800219A4232D01B4A2B0060
:103BD0003000FFF701FFC9E72369002B05D0220061
:103BE00002213000984700280AD080212378002243
:103BF000994330000023FFF7EFFEB7E70020B5E759
:103C000000213000FFF796F930008021FFF792F98C
:103C10000120ABE74025D2E79A4207D0074C2A00A3
:103C20002000FEF77BFC80212200D0E780210022CB
:103C3000CDE70022CBE7C046E82C0020A82C0020CE
:103C40007047C046012070477047C0467047C04665
:103C500042000C4B1218920010B59B185C78FFF7CD
:103C6000EFF9002801D1002010BDFFF7F1F900287D
:103C7000F9D1002CF7D02100FFF7D4FE01235840E2
:103C8000C0B2F1E7BC2D0020F0B5C6460E0015000D
:103C90001C0000B5002803D0002080BCB846F0BD51
:103CA000144B002059789846FFF782FE0028F3D085
:103CB000002E0FD1402CEFD80F4F220029003800E2
:103CC000FEF72CFC43463A00597800202300FFF70A
:103CD00083FEE2E74023094FFE543F2CDCD8380036
:103CE0002200290041300134FEF718FCA4B240370D
:103CF000E8E7C046BC2D00203C2D0020FC2C002015
:103D000010B50C2200210248FEF702FC10BDC0468F
:103D1000BC2D00200120704710B50C220021024864
:103D2000FEF7F6FB10BDC046BC2D0020F0B54B7968
:103D300006000D0083B0032B0AD10879C400241AB1
:103D40001234A4B2944203D8194F7B78002B03D0CD
:103D50000024200003B0F0BD097869184B78212BAE
:103D6000F6D1B9600B780200C9187B1C0193BB1C0B
:103D7000009330000323FFF7CDFD0028E8D0AB7996
:103D8000012B01D1EB79FB700123BB71AB78B978C2
:103D90003B70BB68DA791B7A1B021343BB80002996
:103DA000D7D040233000034AFFF716FED1E7C046C4
:103DB000BC2D00207C2D00201F23F0B514001278AC
:103DC000050083B01340012B1BD1604E207933785E
:103DD000984216D1602318001040134208D02028C2
:103DE0000FD163780B2B0CD8594A9B00D3589F46B0
:103DF000012918D1E378A17862781B020B43062AC7
:103E000002D0002003B0F0BD1B0A212B00D181E0BD
:103E1000222BF6D10020FCF795FA21000200B3888E
:103E20002800FFF723FE0120ECE70129FBD1E17810
:103E30000020F171FFF706FF0028E2D021002800E2
:103E4000FFF7FEFD0120DDE701296DD00329EAD14E
:103E5000E079A37900021843E278A178041C402895
:103E600000D940243B4BA4B2002907D0012805D932
:103E70001878884202D1013C374BA4B2002000944C
:103E8000FCF796FA0120BDE70129D7D00329CAD152
:103E9000A1780020B171FFF7D3FE0120B2E701291C
:103EA000C1D1E379A0791B020343E278A178181C01
:103EB000402B00D9402080B2002943D0012B41D9AA
:103EC0000126244F0138397080B27B1C00900020FD
:103ED000FCF770FA33189BB2002B00D191E73A003F
:103EE00021002800FFF7C2FD01208BE701299AD1AC
:103EF000012321002800194AFFF7B8FD012081E7BE
:103F0000012990D1012321002800154AFFF7AEFDB9
:103F1000012077E7B268002A00D172E7210028006B
:103F20001378FFF7A3FD6DE7E379A2791B02134332
:103F3000402B00D965E721002800064AFFF796FDCF
:103F400001205FE7034F00263B00BFE7BC2D0020A8
:103F500088860010FC2C0020FD2C0020C22D0020A3
:103F6000C32D002070B51B4D0400A8786E7882B078
:103F7000884204D000208E4215D002B070BD9BB2A2
:103F8000864211D0144E002A17D10093002133002D
:103F900000200232FCF70CFA402332002000A978FE
:103FA000FFF71AFDE9E79BB2002A0CD100201A00A6
:103FB0000A49FFF749FE0120DFE732000221002015
:103FC000FFF744FEE8E700200121044AFFF73EFE28
:103FD0000120D2E7BC2D00207C2D00203C2D0020AC
:103FE00000B5030083B0002910D00020012B07D8B2
:103FF0000A78002A04D00B48C2540120012A01D0BB
:1040000003B000BD1800FFF72BF8F9E7012301A961
:1040100000200B80FFF724F80028F1D00122014B8B
:104020001A70EDE7C82D0020037870B5DB07040097
:104030000E00DD0F002B17D103785B0701D5280098
:1040400070BD01213000494202F0A6FF2378DB0752
:10405000DD0F002B0AD123785B0708D404222378D4
:1040600001251343237002E00025E8E70025300016
:1040700002F052FFE3E7C046437902791B02134383
:10408000C2785B0592075B0D920F022A1DD0032AAE
:104090000CD00020012A08D102394A425141124A6B
:1040A0009446614499424041C0B2704702394A1E69
:1040B00091410E4A494211408022D200944600208C
:1040C000614499424041C0B2EFE7022905D0002087
:1040D00040229A424041C0B2E7E7054A981843425D
:1040E0005841C0B2E1E7C046FF03000040FCFFFFBB
:1040F00000FEFFFF8A1870B5914207D27F264C78E8
:10410000052C04D00C7809198A42F8D870BD340007
:104110008D782C4064000419ED0963550C78091959
:104120008A42ECD8F2E7C04670B5040000690E0080
:10413000002803D00121494202F02EFF2589608921
:10414000A288A9B283B285422CD3CD1AADB2002D7C
:104150002ED0AA4208D2914230D3891A8BB2638101
:104160009A4203D89B1A9BB29A42FBD9E2882168F3
:104170005204520C53433000C918FEF7CFF963893B
:104180000125591C89B2A2888B4213D90021520003
:10419000891A89B220696181002801D002F0BCFE31
:1041A000280070BD5500ED1A4D19ADB2002DD0D1CB
:1041B000618989B252009142ECDBE9E789188BB240
:1041C0006381CDE7F8B50400C0680E00002803D075
:1041D0000121494202F0E0FE258920896189A288F7
:1041E000ADB283B28FB2884229D3DB1B9BB29A4215
:1041F00009D8E779FF0906D1E068002801D002F06C
:104200008BFE3800F8BD95421ED32B009B1A9BB243
:104210009342FBD2E28820685204520C534331008F
:10422000C018FEF77BF96B1C9BB2A2889D4218D97F
:10423000002352009B1A9BB201272381DCE7510027
:10424000C91B5B189BB2D2E72B00E288206852049E
:10425000520C53433100C018FEF760F90135A288B3
:10426000ABB252009342E7DBE4E7C04610B504006E
:10427000C068002803D00121494202F08DFE206968
:10428000002803D00121494202F086FE0023E068A5
:1042900063812381002801D002F03EFE20690028BE
:1042A00001D002F039FE012010BDC04610B5192022
:1042B000FCF700FDD0238022E1211B0692045A6204
:1042C0000448054B0022186049020123FEF7E8FB71
:1042D00010BDC046004003406834002010B50248BD
:1042E000FEF7F6FC10BDC0465434002003BDC046A6
:1042F00010B50400FDF7E6FEA04710BDF0B50400C0
:1043000087B00F200E001700FCF7D2FD002105003A
:104310000F20FCF7BBFD0023002200920193012334
:104320000293D02304960594002600240121022044
:1043300003971B06002C14D01A6D1042FCD05C654C
:1043400040BF1A6D114203D120BF1A6D1142FBD03C
:104350009A6DA2420AD000266C46B200A458E9E742
:104360009A6D1A6D1142FBD140BFE5E70136062E6A
:10437000F2D129000F20FCF789FD07B0F0BDC0463F
:104380000D4B0E4A70B5934210D31C000C4A99187D
:104390000B4D0C4A92686051FF20C00023500A4B1D
:1043A0000A4823500A48FFF7A9FF70BD01235B426A
:1043B0001C000849ECE7C046000804200000042067
:1043C000F407000000ED00E0F1420010FC070000DF
:1043D000ED420010F3070000F8B51400002915DBCA
:1043E000057CA94212DA002A10DB427C94420DDAE5
:1043F0008268012A0BD0072601222640B240D2B2A1
:10440000002B0ED0012B1AD0022B11D0F8BD07279C
:104410006600013634B23E40B240D2B25608324352
:10442000EEE7E4106C430C30611800F03DFBEDE763
:10443000E3106B430C30591800F04AFBE6E7D24317
:10444000E4106C43D2B261180C3000F037FBDDE7AA
:1044500070B588230026294C9B01A544040003ADB8
:104460002B8001792A00022300680096FEF726FCC3
:104470002E8021792A00206802230096FEF71EFC78
:10448000E023DB002B8021792A002068022300969C
:10449000FEF714FC84239B012B8021792A002068DD
:1044A00002230096FEF70AFC2E8021792A0020685C
:1044B00002230096FEF702FCFE23DB012B8021790C
:1044C0002A00206802230096FEF7F8FB4023200014
:1044D0002B700C3000F00EFB802201000D20D2006A
:1044E0006844FEF71BF8217920682A00044B0096E7
:1044F000FEF7E4FB8223DB009D4470BDF0FBFFFF71
:1045000001040000F0B51C000C234E46DE46574661
:1045100045469B468846E0B5834407008BB0584625
:10452000150000F0ADFA43463B608023BC60013CBF
:104530003B74631E9C416401002320347C7403ACF3
:104540002200BB74164BBD8043CB43C243CB43C256
:104550001B7802AE137025236B449A4600239946BC
:1045600002E03B68BD8898464A46237832707370F3
:104570004046009202233200E9B20134FEF79EFB6E
:104580005445EED1584600F0ADFA3800FFF760FF11
:1045900038000BB0F0BCBB46B246A946A046F0BD01
:1045A000CC86001010B50C3000F09CFA10BDC0464F
:1045B000F0B54546DE4657464E46E0B58BB005920F
:1045C00014AA147816AA1278050006940292002CF8
:1045D0006CD0DB0800200093002B67D08FB2FB1D4E
:1045E0000897A84607009CB20994059BFB189AB24D
:1045F00001921AB203921B0453D4089A009B91466D
:10460000029A7B43002A00D170E000229246159A5C
:10461000079793469B440723019A134004935B46F4
:1046200052464C46072501269F5C03E00134A4B2A4
:10463000013D29D33B002B411E42F7D02304F5D482
:104640004346197C8C42F1DA5B7C019A9342EDD9A6
:1046500043469B68012B30D03200049B9A40039B59
:10466000D2B29C46029B012B34D0022BDED1634692
:10467000D81000B24143404609190C30013400F013
:1046800027FAA4B2013DD5D201239C464B460833FC
:104690009BB2E24499465346009ADBB29A42BED896
:1046A000079F0137069BFFB2BB429ED80BB0F0BC00
:1046B000BB46B246A946A046F0BD5200013210B238
:1046C0008446072002409340DAB253081A43029B03
:1046D000012BCAD16346D81000B24143D2434046B1
:1046E000D2B209190C3000F0E9F99FE7159A049746
:1046F00093469B4440239946203B9A46019B47465C
:1047000000269846099D1EE04B46234243D153465E
:10471000234263D11023234200D083E0230700D536
:10472000A6E0630700D5C9E0A30700D5ECE00123AC
:10473000234200D00FE10136009A0835F3B2ADB242
:104740009A4200D82CE15B469C5D9B57002BDBDA3C
:10475000EB1F98B21B04D7D43B7C8342D4DD7A7C18
:104760004245D1D9BA680792012A00D11BE14246DD
:104770000721114001228A400399D2B20191019987
:10478000C91009B25943091838000C3000F08CF9EF
:104790004B462342BBD0AB1F98B21B04B7D43B7C23
:1047A0008342B4DD7A7C4245B1D9BA680792012AC6
:1047B00000D106E142460721114001228A400399B7
:1047C000D2B201910199C91009B2594309183800B0
:1047D0000C3000F069F9534623429BD06B1F98B20E
:1047E0001B0497D43B7C984294DA7A7C424591D959
:1047F000BA680792012A00D1F1E042460721114030
:1048000001228A400399D2B201910199C91009B2DB
:104810005943091838000C3000F046F910232342A0
:1048200000D17BE72B1F98B21B0400D576E73B7CB9
:10483000984200DB72E77A7C424500D86EE7BA689E
:104840000792012A00D1D8E04246072111400122F7
:104850008A400399D2B201910199C91009B2594312
:10486000091838000C3000F01FF9230700D458E76E
:10487000EB1E98B21B0400D553E73B7C984200DB4B
:104880004FE77A7C424500D84BE7BA680792012A85
:1048900000D1C0E042460721114001228A4003991D
:1048A000D2B201910199C91009B2594309183800CF
:1048B0000C3000F0F9F8630700D435E7AB1E98B26E
:1048C0001B0400D530E73B7C984200DB2CE77A7C68
:1048D000424500D828E7BA680792012A00D1A8E02B
:1048E00042460721114001228A400399D2B2019128
:1048F0000199C91009B25943091838000C3000F069
:10490000D3F8A30700D412E76B1E98B21B0400D59E
:104910000DE73B7C984200DB09E77A7C424500D8F2
:1049200005E7BA680792012A00D190E042460721C4
:10493000114001228A400399D2B201910199C91014
:1049400009B25943091838000C3000F0ADF80123C2
:10495000234200D1EFE62AB2002A00DAEBE6387CE7
:10496000A84200DCE7E67A7C424500D8E3E6BA6874
:10497000012A7AD0414607220A4093400399DAB2CD
:10498000C91009B24143380049190C3000F08CF8C5
:104990000136009A0835F3B2ADB29A4200D9D2E698
:1049A000B846049F7DE64146490001310AB20192B2
:1049B000072211400A0007999140CAB251080A43E0
:1049C000DDE64146490001310AB201920722114059
:1049D0000A0007999140CAB251080A43F2E64146DB
:1049E000490001310AB20192072211400A000799D9
:1049F0009140CAB251080A4307E7414649000131D4
:104A00000AB20192072211400A0007999140CAB2E6
:104A100051080A4320E74146490001310AB2019298
:104A2000072211400A0007999140CAB251080A436F
:104A300038E74146490001310AB20192072211408C
:104A40000A0007999140CAB251080A4350E741460B
:104A5000490001310AB20192072211400A00079968
:104A60009140CAB251080A4368E7434607245B00F5
:104A7000013319B223409A40D4B2620822437FE73F
:104A800010B504008020C000FDF74EFD206020001E
:104A900010BDC04610B504000068002801D0FDF725
:104AA0004BFD200010BDC0468023DB00994203DA95
:104AB0000368585C02435A547047C0468023DB00A9
:104AC000994203DA0068435C134043547047C04680
:104AD0008023DB00994203DA0368585C42405A5451
:104AE0007047C046802210B500210068D200FDF753
:104AF0000FFD10BD00687047F0B5DE4657464E46C4
:104B00004546E0B58DB0089316AB1B788B460993EC
:104B100017AB1B7800900193002869D0002967D05B
:104B2000002A65D00B7814780693002C60D0002101
:104B300000255F460792189B002B60D0012B4DD1BA
:104B40001F2C4BD97B783A789A465343203C6343D9
:104B5000DE100236B6B2002A40D05046099B5B18E0
:104B6000DBB20393002839D008989C4603005344D5
:104B700099460493059201233A009846574600242B
:104B8000634692460A950B911AB29346049D02938E
:104B900053469B5D424623411A4205D05A46019B2B
:104BA000009829B2FFF718FC0134E4B2082C02D1B6
:104BB00000240136B6B24B46013DADB25B1BDBB201
:104BC0009F42E5D8029B039A01339BB29A1A05993A
:104BD000D2B29142D8D857460A9D0B99079B01350E
:104BE000ADB25C5D069B9C466144C9B2002CA2D16B
:104BF0000DB0F0BCBB46B246A946A046F0BD1F2C86
:104C0000ECD97B7838781A004243203C6243D610B6
:104C100002369A46B6B20028E0D0089B5A18D3B2A2
:104C200052460393002AD9D0012200249046B94667
:104C3000099F059504900A913D001AB25746934684
:104C4000AA4602934B469B5D424623411A4205D039
:104C50005946019B00982AB2FFF7BEFB0134E4B22B
:104C6000082C02D100240136B6B253460135ADB24C
:104C7000EB1ADBB29F42E5D85246029BBA4601339B
:104C80001700039A9BB29A1A0499D2B29142D3D8D0
:104C90004F46059D0A99A1E70123026810B51A4203
:104CA00005D14278002A04D14370012010BD0020B4
:104CB000FCE7042000F0DAF9040000F025F82000F9
:104CC000014A024900F0FCFAD94C00100C87001090
:104CD000012303607047C04610B50400024B036017
:104CE00000F072FA200010BD2087001010B50400FB
:104CF000044B036000F068FA20000421FDF720FC5B
:104D0000200010BD20870010014B03607047C04693
:104D10002087001010B50400024B036000F0F0F88B
:104D2000200010BD6887001010B50400044B03601C
:104D300000F0E6F820000C21FDF702FC200010BD79
:104D400068870010F0B583B01E00089B05000F00B7
:104D5000140093420AD0A868089A036800921D6A5A
:104D6000220033003900A84703B0F0BD310000F045
:104D70005FF80028EFD00620F6E7C046F0B50E0039
:104D800085B01900040017001D0000F051F800283C
:104D900014D10A9B0C9A93422AD0A0680D9A0368FA
:104DA00003920C9A310002920B9A01920A9A009295
:104DB000DC693A002B00A04705B0F0BD0D9B0A9AB4
:104DC0001F711A60002E0CDB93190C9AD31A5A1E0D
:104DD000934104225B4293430D9A06339371002062
:104DE000EAE70236FBD101230D9A00209371E3E735
:104DF00020000B9900F01CF80028CED00D9B00205D
:104E00005F71D9E7F8B507000C0015001E0000F02F
:104E1000AFF8002806D1B8682A00036821009F690E
:104E20003300B847F8BDC0467047C0460020704701
:104E300010B5814211D0406803782A2B0BD0496805
:104E40000B782A3B5A425341C91801F04FF84342AC
:104E50005841C0B210BD0020FCE70120FAE7C0466F
:104E600000487047B472001010B50400024B036094
:104E700000F0AAF9200010BDD087001010B5040082
:104E8000044B036000F0A0F92000FDF751FB200067
:104E900010BDC046D0870010042010B500F0E6F821
:104EA000024B034A0349036000F00AFAD08700105E
:104EB000694E0010BC870010002330B5140010228A
:104EC00085B0009301930393036802929D69226861
:104ED0006B46A8476B461A79062300201340062B21
:104EE00002D1009B0130236005B030BD009B05203E
:104EF0009A1A53425A415242104001307047C046FC
:104F000010B50400024B0360FFF78EFF200010BDB8
:104F10001488001010B50400044B0360FFF784FFF1
:104F200020000821FDF70CFB200010BD14880010A4
:104F300070B516001D00069A049B040093420ED023
:104F400029002000FFF774FF002806D0079B049A71
:104F50001E711A600123079A9371002070BD059994
:104F6000FFF766FF0028EBD0079B5E71F5E7C046B0
:104F700070B515001C00FFF75BFF002804D0082364
:104F8000E360023B2560237170BDC046F8B50500A3
:104F90000C0017001E00FFF74BFF002807D1032E5F
:104FA00005D823683A00290020005B699847F8BDBE
:104FB00070B5194C083863680668002B20D0851935
:104FC000AB421DD85A6821D00434002A06D10DE026
:104FD00051681C1D1300002907D00A009542F7D81C
:104FE00003D12A68B6186A685A6023681A68991843
:104FF000884208D05B68066043602368586001E01F
:105000004360606070BD92191A60FBE71B684260E4
:105010009B1903606060F5E7002C0020020030B5AA
:105020000832083000D3082207230F4907324868A6
:105030009A430431002804D10EE0011D4068002885
:105040000AD003689A42F8D845689C1A072C04D8FD
:1050500003602B000B60083030BD83185D6008686A
:105060001C600260F6E7C046002C002070B580305E
:105070000500FDF717FA041E07D08022002120004A
:10508000FDF746FA2000803070BD2800FFF7C6FF0C
:10509000041EF2D100F0B4F8074B80389A68DB6840
:1050A00010B5D318984201D2824202D3FDF718FA04
:1050B00010BDFFF77DFFFBE7002C0020F0B5CE46CA
:1050C0004746002580B53B4E89B03B487560B560CA
:1050D000F56000F09DFE08230293384B0400039313
:1050E00009230593364B0495069304230793002860
:1050F0003FD0344D237828003A3B5A425341E418BC
:105100000F22210001F01AFC002802D1E37B2E2B94
:1051100016D020003A2100F087FE041EEAD1079C39
:10512000402C24DC049B002B00D106333E335C432F
:10513000A400F46020D109B0C0BCB946B046F0BDAF
:1051400008AB9946103402AF3B6878689846002B4C
:1051500005D01A00210001F0F1FB002803D14346DD
:10516000E35C3D2B13D00C37B945EDD1D1E740249A
:10517000D8E78824E400F4602000FDF793F9B060DC
:10518000002815D00023706004604360D3E74046D8
:1051900001302018002201A900F09EFF019C237815
:1051A0003A2B01D0002BB4D10028B2DBB860B0E7B5
:1051B000F060C0E7002C0020C8720010DC72001004
:1051C000E8720010F47200107047C0467047C04685
:1051D00000487047047300100048704714730010B3
:1051E00010B504000421FDF7ABF9200010BDC04646
:1051F00010B5804700F07CFF00F0B4F800F078FFB5
:10520000024B10B51868FFF7F3FFC046D41F00200B
:1052100010B58047FFF7F4FF024B10B51868FFF791
:10522000F7FFC046D01F0020014B18687047C046EA
:10523000D41F0020014B18687047C046D01F0020C3
:1052400010B5012812D80B00283B1A68501E1860B0
:10525000012A00D010BDDB6858310C00002B01D0B2
:10526000080098472000FFF717FFF3E7283948693F
:10527000FFF7BEFF70B505000026803DEA602E6096
:10528000A9600400FFF7D6FF2861FFF7CDFF2300D8
:105290004722583B68611A7007325A7007329A7079
:1052A00022004323553A13705370183B9370D37008
:1052B000024B513C280026702B6370BD41520010F8
:1052C00070B504000D00160000F0D2F843683200FB
:1052D0000133290043602000FFF7CCFF04000123C5
:1052E00028340360200001F097FE200000F03AF817
:1052F000FFF786FF10B500F0BBF843680468013380
:105300004360002C0CD02023E35C472B0AD0002301
:1053100003602034200001F077FE200000F022F826
:10532000FFF76EFF263BE35C4E2BF0D12C3BE35C9A
:10533000552BECD1323BE35C432BE8D11F3BE35CC4
:10534000432BE4D11E3BE35C2B2BE0D1053BE35C1C
:105350002B2BDCD1043BE35C012BD8D863695B4287
:105360006361D6E770B5040000F082F8220023786C
:105370000568203A472B04D0002D2BD1026028006D
:1053800070BD63784E2BF7D1A378552BF4D1E37819
:10539000432BF1D12379432BEED163792B2BEBD126
:1053A000A3792B2BE8D1E379012BE5D85369002BA6
:1053B0000DDB013353614368013B4360954201D0EB
:1053C000156102602000656A01F0DEFDD7E701216A
:1053D000CB1AEFE7FFF714FF10B500F045F80368AC
:1053E000002B09D020229A5C472A06D000222033C5
:1053F0000260180001F0A8FD10BD263A9A5C4E2A02
:10540000F4D12C3A9A5C552AF0D1323A9A5C432A6C
:10541000ECD11F3A9A5C432AE8D11E3A9A5C2B2AB7
:10542000E4D1053A9A5C2B2AE0D1043A9A5C012A2D
:10543000DCD85A69002A08DB511E012A0CD04A1C0C
:1054400001D05961D8E7FFF7DBFE511C0132F8D1DA
:105450001A6902605961CFE71A69203302601800A7
:1054600001F072FDC8E7C04600487047F42B0020E9
:1054700000487047F42B0020F0B5D64646464F460C
:105480008A46C0B50600502824D00F2404400C2CB6
:1054900000D96FE03848A400005987465478107846
:1054A00024020443907800042043D4782406044363
:1054B000101D002C08D070253540102D00D19246CB
:1054C00076B25444002E0ADB1C60E0BCBA46B146FA
:1054D000A846F0BDD01C0322904310C8F4E724680E
:1054E000F2E75478107824020443907800042043B3
:1054F000D4782406044310000830DAE75478107892
:1055000024020443901CD4E7547810782402044306
:1055100024042414901CCCE77F21150000240027CC
:1055200088464046297801350840B840044348B2CF
:1055300007370028F5DB28001F2FBAD84D06B8D54D
:105540000125BD406D422C43B5E700218C467F31DB
:1055500015000024884647466146287801350740F3
:105560008F400721894640B23C43CC440028F2DBFF
:1055700028009EE700F0BCFDD8880010030010B59D
:105580000800FF2B10D070221340302B13D004D80A
:10559000202B07D101F0B0FC07E0402B06D101F031
:1055A00003FD02E0202B04D8002010BD0020502B6A
:1055B000FBD000F09DFD01F0CFFCF6E7F8B505004B
:1055C0000E0014000020002D02D0280001F0ECFC99
:1055D0002060771C3678FF2E28D160603B78781CDD
:1055E000FF2B32D01023002500217F2623753200A7
:1055F000037801301A408A405BB215430731002B13
:10560000F5DB4519E560002200257F26037801308F
:105610006375310003780130194091405BB20D434E
:105620000732002BF5DB45192561F8BD2900300054
:10563000FFF7A4FF3A000100231D3000FFF71CFF15
:1056400007003B78781CFF2BCCD100252375D9E7C8
:10565000F0B557464546DE464E460023E0B597B0C6
:105660000C9303330F0090460340012B00D1AEE0B2
:10567000022B0ED14146380001F05EFC002800D01C
:10568000A3E0082017B0F0BCBB46B246A946A0462E
:10569000F0BD002B00D033E208331C00044003426D
:1056A000E8D1012510AB0393039B0C22002100934A
:1056B00040460023109701F037FC404601F0CCFC37
:1056C00004900028D6D02C43039D04992A0040461C
:1056D0000594FFF773FF2B7D4146040018000693E5
:1056E000FFF74CFF0FABA8600F22079000939B467B
:1056F00000210023404601F077FC01220F9B9343D9
:10570000013B99462B699A469C4242D2109B6E7D82
:1057100002933B007F2527004C469946002130002C
:10572000FFF72CFF3A0001000DAB3000FFF7A4FE9D
:10573000002107003000FFF721FF3A0001000EAB07
:105740003000FFF799FE002107003000FFF716FF39
:105750003A0001005B463000FFF78EFE0021002278
:105760002F00037801301F4097405BB23943073266
:10577000002BF5DB029A0D9B94466344A34207D8A5
:105780000E9A9B18A34200D985E007008245C5D830
:105790004F46002300259A460133059AD20771D55A
:1057A0000C9B0B935B460D22009300210023404687
:1057B00001F01AFC0F9B06203B620B9B3D637B6252
:1057C0005346BB62049BFB625CE709205AE708234F
:1057D0001C0010AA04400392034201D0022563E793
:1057E0000D6A0023009200210D22404601F0FCFBCF
:1057F000109B9D42F2D1039B0C22009300210023B9
:105800004046109701F090FB3D6BBC6AFB6A002D8F
:105810003ED004930FABA2469B465346002B00DAC2
:10582000B8E003265B460022002100934046002397
:105830000F9701F079FB5B4601220021009340465F
:1058400000230F9401F070FB5B460F2200210093B0
:105850004046002301F0C8FB01230F9A00211340AA
:105860002B430F935B460F2200934046002301F029
:105870005BFB022E01D0072004E7380000F0A8F9F6
:105880000720FFE6082205990A426DD1012B7FD13E
:10589000380000F023FA0F9B4F46002B00D1E9E6B9
:1058A000039A55685D19002900D10AE14C1E544441
:1058B000002D00D1DEE6059A0823110019400A9157
:1058C000134200D100E13F333B7007337B70073355
:1058D000BB70123BFB7003333B7109337B710333A5
:1058E000BB710023FB710023069A994607331A40C7
:1058F00043460993039BBA469846029208950023B3
:1059000000217F252A002078013402408A40134379
:1059100042B20731002AF5DB1F2905D8400603D51E
:1059200001228A40524213431E002000002500221B
:105930007F279C46390003780130194091400D4380
:1059400059B207320029F5DB190063461F2A3ED8F9
:1059500049063CD5012191404A421543002B4BD1C9
:10596000012399466419CAE7012B00D1C6E05346CA
:10597000002B00DABEE05446032653E7099BAB46F2
:105980009846059BB2462700089DDB0700D507E730
:10599000544642E7039E049932004046FFF70EFE4C
:1059A0004146307DFFF7EAFDE343F1689B00C918EB
:1059B0000B68002B05D0002301339A008A58002A77
:1059C000FAD1BB620423F8623B63796329E7002BB9
:1059D00012D101239946002DC4D1099B5746984600
:1059E0004B46089D002B00D144E6059BDB0700D504
:1059F00040E60024022615E7002B14DC4246DB4378
:105A0000D7689B00FF1853463968002B02D00A9BC9
:105A1000002B2CD00029DED1099B57469846B24670
:105A20000323089DB9E6069AFF2A48D0029A022A63
:105A300042D03CD9029A032A3BD0042A60D1DB0031
:105A40005B424246D2680799D21806985B46FFF738
:105A500013FD0F990029DFD05346002BBBD0002245
:105A600050460CAB00F054F80028B4D0D4E70C9B9F
:105A70000B930F93002932D053465A46A246AB46A9
:105A80001C00150004E079680437002900D175E78F
:105A90002B0000222000791800F03AF80028F2D0FC
:105AA00022002B0054465D4692469B4693E7002A0F
:105AB00026D19B005B42C4E75B005B42C1E7002349
:105AC000BFE7002D91D1D5E53B00FA795833012A83
:105AD00001D00C9307E7783B1B680C9303E7099B05
