:020000041000EA
:1000000000B5324B212058609868022188439860DF
:10001000D860186158612E4B002199600221596106
:100020000121F02299502B49196001219960352056
:1000300000F044F80222904214D00621196600F024
:1000400034F8196E01211966002018661A6600F04E
:100050002CF8196E196E196E052000F02FF8012189
:100060000842F9D1002199601B49196000215960AB
:100070001A491B48016001219960EB211966A021F2
:10008000196600F012F800219960164914480160C1
:100090000121996001BC002800D000471248134993
:1000A000086003C880F30888084703B5996A0420EC
:1000B0000142FBD001200142F8D103BD02B5186610
:1000C0001866FFF7F2FF186E186E02BD00000240BE
:1000D000000000180000070000035F00212200005C
:1000E000F4000018222000A00001001008ED00E03C
:1000F00000000000000000000000000074B24E7A12
:1001000000200420F7010010C3010010C5010010F9
:10011000C1010010C1010010C1010010C101001097
:10012000C1010010C1010010C1010010C701001081
:10013000C1010010C1010010C9010010CB01001065
:10014000CD010010CD010010CD010010CD01001037
:10015000CD010010CD010010CD010010CD01001027
:10016000CD010010CD010010CD010010CD01001017
:10017000CD010010CD010010CD010010CD01001007
:10018000CD010010CD010010CD010010CD010010F7
:10019000CD010010CD010010CD010010CD010010E7
:1001A000CD010010CD010010CD010010CD010010D7
:1001B000CD010010CD010010CD010010CD010010C7
:1001C00000BE00BE00BE00BE00BE00BEEFF3058054
:1001D000103800BEF2EB8871684500109845001099
:1001E0003802001090A31AE71E481F49086006C88D
:1001F00081F3088810471D480068002801D019487D
:10020000F3E70DA40ECC002902D000F012F8F9E7B4
:100210001749184A002000E001C19142FCD116495B
:100220008847164988471649884700BEFDE701C937
:1002300001C29A42FBD3704798450010C0000020CD
:1002400098110020705600100000042000000420C7
:100250007056001000100420001004200000000060
:10026000704700000000000008ED00E0000000D032
:100270009811002020200020792200103503001062
:1002800071220010F8B5C0460448054B10B58342F2
:1002900003D0044B002B00D0984710BD98110020CC
:1002A000981100200000000006480749091A8B1029
:1002B000C90FC91810B5491003D0044B002B00D04A
:1002C000984710BD981100209811002000000000F0
:1002D00010B5074C2378002B09D1FFF7D5FF054B4C
:1002E000002B02D0044800E000BF0123237010BDA2
:1002F000181500200000000024410010054B10B527
:10030000002B03D00449054800E000BFFFF7CCFFF5
:1003100010BDC046000000001C1500202441001044
:1003200010B500F067FA00F077FA642001F05AFA8D
:10033000F9E7C046F0B5DE4657464E464546E0B5BD
:10034000012687B002F098F803F008FD0021002094
:1003500003F09EFB00F010F900F0B4F91E4803F022
:1003600067FD1E4B1E4D9B461E4B1F4F9A461F4B53
:1003700005AC99461E4B98461E4B02931E4B0393A9
:1003800001200021404202F03DFC4A460023117842
:10039000424623601078524600935B4600F07EF898
:1003A00029782070029B3878039A009600F076F83E
:1003B000607000F023F86080002003F0A1F90028AD
:1003C00005D0042322000021002003F0B5F9052008
:1003D00001F008FAD4E7C0462103001014200020E1
:1003E00012200020110F00201320002011200020D7
:1003F0001020002015200020100F0020F0B54E46E0
:1004000045465746DE460023E0B583B001931F4BB7
:10041000002198461E4B01259A46D0231B069C4678
:1004200000231C4C99461C4E0FE04B46B3545346D8
:100430009B5CA754002B05D02B008B4001981843E0
:1004400083B201930131102918D043462F005A5C22
:10045000634697405B68A05C3B405F427B41DFB2F4
:100460009842E2D1B35C022B04D80133DBB2B3541F
:10047000032BDCD153469F543B00DAE7019803B0CD
:10048000F0BCBB46B246A946A046F0BDA81A002063
:10049000C8160020E416002000170020F0B54F46D3
:1004A000D646464605000120C0B582B00C000AA918
:1004B0000F78D021A84009064968254E01404842DE
:1004C0004141C8B29A468146224B705D9C468842A3
:1004D00022D000215955204B9846585D4946715508
:1004E0000125D021A54009064968335D29404D42C8
:1004F0006941CDB28B421DD0002163461955434658
:10050000195D35555346009700F006F902B0E0BC7E
:10051000BA46B146A846F0BD595D022904D801315A
:10052000C9B259550329D6D149460B4B484698467E
:100530005955D3E76346195D022904D80131C9B280
:1005400019550329DBD1434629001D55D9E7C0467B
:10055000E416002000170020C8160020E4200449FB
:10056000044A0B781354012253400B707047C04665
:100570001C200020140F00208023F0B5DE465746D3
:1005800045464E469B46E0B5434B444F9846444B48
:1005900083B0BB4401937B68C1469A46454600241C
:1005A0003E6803E0013408351C2C6DD0310028680A
:1005B00003F06AFC0028F5D13A4BE4009C46644401
:1005C00023795146019A083753545F45E3D1454694
:1005D0000024354E03E0013408351C2C5AD031007C
:1005E000286803F051FC0028F5D12E4BE4001B19BC
:1005F0001A792E4B454600242D4E1A7003E0013423
:1006000008351C2C44D03100286803F03DFC00283C
:10061000F5D1244BE4001B191A79264B1A70434676
:10062000002219680878552828D14878502825D103
:100630008978002922D11B4BD2009B181A791E4BB6
:1006400000241E4D1A7005E008239C460134E14445
:100650001C2C1BD04B462900186803F015FC002801
:10066000F2D1104BE4001B191A79154B1A7003B024
:10067000F0BCBB46B246A946A046F0BD01320833E5
:100680001C2ACED1E332DAE7FF239AE7FF22ECE718
:10069000FF22C2E7FF22ACE71C0F0020F44200104B
:1006A000A81A0020140F00203C4100101020002048
:1006B0004441001011200020132000205041001060
:1006C00012200020F0B5124CC64626000123D02788
:1006D000984600B50F4DE0363F0602E00834B442BC
:1006E00013D02900606803F0CFFB0028F6D02078F3
:1006F00000F0B8F943462078002283400121BB6214
:10070000083400F09BF9B442EBD180BCB846F0BD90
:10071000180F00203841001010B502AA1478204AA2
:100720001278022A1AD009D8002A11D0002811D034
:1007300000291DD0002C1BD1002010BD032AFBD1A5
:1007400000281DD0002921D17F2040421870F4E7F5
:1007500000280BD10029EFD07F20EEE700280AD136
:10076000002910D07F227F201A70E6E70029E3D10C
:100770007F204042E1E700290CD000201856DCE73A
:100780007F300029E2D100221A70D5E71878404264
:1007900040B2D2E781227F201A704042CDE7C046A6
:1007A0001A2000200022014B1A7070471A200020E6
:1007B0000122014B1A7070471A2000200222014BBF
:1007C0001A7070471A2000200322014B1A707047DC
:1007D0001A200020E621024A024B525C1A70704730
:1007E000140F00201A2000200021002010B501F075
:1007F00001FBC046064B074A1800E03059681160FB
:1008000019780833117108328342F7D17047C04616
:10081000180F0020001F0020F0B55746DE464E4658
:100820004546E0B5534B83B00093534B9A46009B2B
:100830005446574600261D6804E0013608371C2E32
:1008400000D17BE02900386803F01EFB0028F4D1BA
:100850000121F600D023564432791B0691405B6893
:100860000B405A425341DBB29B46009BA0465B685B
:10087000564600271C00019303E0013708361C2F61
:1008800051D02100306803F0FFFA0028F5D1D023C1
:100890001B065A685B464446002B44D00121FB00EE
:1008A00053441B7999400A423DD1E02353449B466F
:1008B000324B9846D0231B06994647462668390096
:1008C000300003F0E1FA002812D04B4601215A68AB
:1008D000237999400A420BD12900300003F0D4FA61
:1008E000002805D03000019903F0CEFA00281AD173
:1008F00008345C45E2D1009B1B7C002B21D10123F5
:10090000009C237401F018F8009B1D4A2033A0615D
:10091000E161009393428AD103B0F0BCBB46B2467A
:10092000A946A046F0BD0022009B1A74009B144A01
:1009300020330093934200D079E7EDE700239B46F4
:1009400093E7009EB469F56900F0F6FFB268001BFA
:10095000A94153019B1A9B009B180022DB008A428D
:10096000E4DC01D18342E1D8009CE368984700238E
:100970002374DBE700100020001F00203841001026
:10098000C010002000487047D44300100048704752
:100990007843001000487047AC43001070B5002841
:1009A00022D0032824D8134B8000C558280003F018
:1009B000B7FAC1B20C1C1F2914D8C022E4B2631CC0
:1009C000DBB20D4892005B0013430380821C0023BE
:1009D000002906D0E95C01331180D9B202328C4281
:1009E000F8D870BD1F24E8E70348044B0360F8E71C
:1009F0000020F6E79C4300101C17002004030904A4
:100A00007047C04600207047094A83009A1810B505
:100A100014684022544080322240064CC000A44654
:100A200063441A60044B9C466044416010BDC0465C
:100A300004C0014004D0014000400140074B800049
:100A4000C3181B68C90092000A435A400C23134084
:100A5000034A9446604403607047C04604C00140A6
:100A600004D001400123D022834012069362936197
:100A7000094A83009A1811684022514080320A4086
:100A80000649C0008C4663441A60054B9C4605230A
:100A9000604443607047C04604C0014004D0014038
:100AA000004001408023DB051868000F7047C046F6
:100AB0000FB400B5084883B001F030FD049B002B53
:100AC00007D005A91800019101F0B8FB034801F017
:100AD00025FD012001F0CAFBC8410010D8410010DB
:100AE00070B5EFF3108C72B60D4D2B68002BFCD057
:100AF000BFF35F8F0724CB08C618C05C01230C40EE
:100B0000A3401C000440034207D118433070BFF3D8
:100B10005F8F2C608CF3108870BD1000FFF7C8FF4A
:100B20002C0100D0F8B54746CE46884680B5EFF395
:100B3000108C72B6214D2C68002CFCD0BFF35F8F57
:100B40009A422CD8D4080727055D061901241740BE
:100B5000BC402C421FD007210127894609E0D40858
:100B6000055D06194C4639001440A1400C0029428D
:100B700011D001329342F2D201204042BFF35F8F85
:100B800000220E4B1A608CF3108800280FDBC0BCCB
:100B9000B946B046F8BD254310003570EEE7BFF307
:100BA0005F8F00232B608CF3108801204042434666
:100BB000002BECD00898FFF77BFFC0462C0100D03B
:100BC000044A1078431CDBB2172B00D91023137092
:100BD0007047C046C010002010B5064B064C82B0CE
:100BE0000100009318221F232000FFF79BFF02B093
:100BF00010BDC046DC410010C01A00200021044B8B
:100C0000044ABFF35F8F02C39342FAD17047C046D4
:100C1000000100D0800100D0054B064A1360064A4F
:100C2000136053609360D3601361536193617047A5
:100C30008080808000E400E004E400E01F2318408E
:100C40001E3B8340002905D0C021044A490053506F
:100C500013607047802201498B50FAE700E100E001
:100C600001228240034B1B6813405A1E9341D8B2A5
:100C70007047C04600E100E070B50D00EFF310864C
:100C800072B60F4A1368002BFCD0BFF35F8F0D4B79
:100C900010309B6884001B590B4A934203D09D423D
:100CA00001D001F0CDF8074B9B681D51BFF35F8F5A
:100CB000BFF35F8F0022024B1A6086F3108870BD6D
:100CC000240100D000ED00E0CD010010F0B5574642
:100CD0004E46DE464546E0B585B006000091170059
:100CE000EFF3108B72B66A4A1368002BFCD0BFF387
:100CF0005F8F0025674B5D579A46002D00DAA9E00B
:100D00006B00654C01935B199B009846A146C1445A
:100D10004B4652469B7910361370604BB6009B6869
:100D200099590B1B2F2B33D95D4B994200D0ACE066
:100D3000019B42469C465B4B6544AD0063535A4B56
:100D40000232A218043B9B1A1B05584A5B0D651919
:100D500013436B80564B0121AB80FF23AB71009B8B
:100D6000EF71AB604B460B4319004C4B9B6899519C
:100D7000BFF35F8FBFF35F8F0022454B1A608BF389
:100D8000108805B0F0BCBB46B246A946A046F0BDEF
:100D900001200A008243D3798C46BB4231D84546B4
:100DA000130044491B1B5B415943090D3D4B6353E1
:100DB0003D4B02356519043B5B1B1B053B4D5B0D31
:100DC0002B43AA464D466B800425AC465546E0446D
:100DD000131F44441B1B1B055B0D1D434B469971A0
:100DE00000999D8099604946DF71334B0143136040
:100DF000BBE75800C01880002018C179B9422FD92C
:100E000002000623D356002BF3DA02932B4B6146E4
:100E10000393131D9A4604235B429C46E1445046CB
:100E20004B461B1A1B055B0D9C46204B9571984643
:100E30006346404603439380019B5A199200039BEB
:100E4000A418A380029B1C4AA371009B2260E77137
:100E5000A3608AE700F0F4FF002553465D574FE793
:100E6000908802934005131D9A46031561469C46DF
:100E70004046D444634604302018181AE023000585
:100E8000400D1B0218430390C5E700F0D9FF4FE760
:100E9000240100D01B200020C410002000ED00E041
:100EA000CD01001000A1FFFFF410002000E0FFFFC3
:100EB00001BDFFFFAAAA00000148804701BD000054
:100EC000F0B5DE4657464E464546E0B50C0083B0C9
:100ED000EFF3108872B6634A1368002BFCD0BFF39F
:100EE0005F8F614B61499A68030010339F00D559A9
:100EF00000938D4243D0A54254D05D4EAA1B2F2AA9
:100F00003DD85C4B9C461B689A4601231A009946C3
:100F10008240534613401F2201934B4602409340A8
:100F20009A468022634650469850BFF35F8FEFF396
:100F300005839B46002B37D0009B5B4501D000F01A
:100F40007FFF2A004B469A439068844208D177E09D
:100F50004B005B189B00F3189868844236D01A0047
:100F6000062151560029F3DA844255D0019B002B0B
:100F700027D0C02251463F4B5200995019603A4B3E
:100F80009B68DD51BFF35F8FBFF35F8F0022354B4E
:100F90001A6088F3108803B0F0BCBB46B246A9467D
:100FA000A046F0BD0D00EAE72A004B469A43906840
:100FB0008442D5D106201056130000280ADA0D000D
:100FC00032E0802351462B4AD150D8E706201856EC
:100FD000002822DB42001118890074188946A16894
:100FE0009960E179D971062161569971002925DB53
:100FF000A488F11A640524154C440919E024090554
:10100000490D24022143998013181B4A9B00117833
:10101000F31899711070A9E713005946002914D1EB
:10102000FF3191711549918013490A789A71144AD8
:101030009B1B5B415A43120D0A7097E71149E2E787
:101040000620105613000028C4DA0F4A0F49D21A9E
:10105000083A5002400D014399800D4952080A4355
:10106000DA8083E7240100D000ED00E0CD0100101C
:10107000C410002000E100E01B20002001BDFFFFA4
:10108000AAAA000001BD0000FE10002000F0FFFF32
:1010900000F8FFFF70B501240443EFF30581EFF37F
:1010A000108C72B6214A1368002BFCD0BFF35F8FFF
:1010B0001F4B05001F4AED1A6D416A43120D1E4D6C
:1010C0008900AE6852B27658A6421CD00621595605
:1010D00091421CD012215956914222D01E215956BC
:1010E000914220D02A2159560324914210D0134B0B
:1010F00019781A708171BFF35F8F00220B4B1A6051
:101100008CF3108870BDAB680D4C5C50EFE7002489
:101110006100091989005B18FF21997109499980BB
:10112000E5E70124F4E70224F2E7C046240100D0F9
:10113000C4100020AAAA000000ED00E01B2000203F
:10114000CD01001001BDFFFF024B9C4661448900A8
:10115000016070474000003470B5114C114DAC4235
:101160000FD2FF262368002B0CD0FFF729FD0100CA
:101170002000FFF7E9FFA680BFF35F8F0834AC4281
:10118000F0D370BDFFF71CFD01002000FFF7DCFF6E
:101190002671BFF35F8F0834AC42E3D3F1E7C0465A
:1011A000881100209811002010B50400FFF708FDF9
:1011B00001002000FFF7C8FFFF232371BFF35F8FFB
:1011C00010BDC04610B504000120FFF705FD034B1C
:1011D000C3189B002360BFF35F8F10BD4000003435
:1011E0000A4B1968EFF3108072B60A68002AFCD027
:1011F000BFF35F8F1B68BFF35F8F00221A6080F31D
:10120000108840BF002000217047C0460020002009
:10121000F0B5DE4657464E464546E0B583B0EFF39F
:10122000058203231340B54A990052580091904615
:1012300001229A409346B24B1A60B24B01935B462F
:10124000B1484363434608229B5E9946002B3ADA35
:1012500043469B881BB2002B00DB9DE043469B79F5
:10126000002B00D0E1E0434608241C5F002C20DB6B
:1012700043465A6963001B19DB00D3189D68DC687C
:101280006B1C00D103E1A048009984466144826A46
:101290000B69AE1A9B1A9E4213D35A46036A1A422E
:1012A0000FD0994800F040FB8C4202DCC7D1854248
:1012B000C5D940BF03B0F0BCBB46B246A946A04664
:1012C000F0BD0D61EDE7424652695B0092464B442A
:1012D000DB009A4453469E68DF6800F025FB8F428E
:1012E000B6DC00D1F8E0002F00DAD9E052465346D0
:1012F00054691B69019A934200D1CCE041465246A1
:101300000820085E5288000421001043984704001A
:101310000D0023002B4300D1C2E0002D00DBDFE0F5
:1013200030003900001BA94153469860D960002263
:101330009A5E002A00DA8BE743465D6953009C18E9
:10134000E4002C19A768E4688C4200DD80E702D134
:10135000874200D97CE74646328108360DE08C4250
:1013600000D1C6E01E000023F25E002A0ADB530013
:101370009C18E4002C19A768E4689B18DB00EB18A4
:101380008C42ECDD53461A804B46338043469B88A3
:101390001BB2002B00DA61E743461A69EFF31081B4
:1013A00072B61368002BFCD0BFF35F8F43469E8854
:1013B000012342465B42938036B21369BFF35F8FCD
:1013C00000221A6081F31088002E00DA46E74346B7
:1013D0005D69083342469C467700BF19FF00EF194C
:1013E000BB68604698460823D15E9246FC68002997
:1013F00007DA0EE0A24246D018000023C15E0029A1
:1014000006DB4B005B18DB00EB18DA68A242F1DD6B
:10141000524606800023FE5E3980002EDCDA9046BC
:1014200043469B79002B00D11DE700234246937170
:10143000434646460821595E08364B1C00D138E722
:1014400047468946556902E006004B1C18D04B0000
:101450005B18DB00E8180A008C46E95E43881BB283
:10146000002BF1DA01235B42DC178360C4604A453C
:1014700003D031803B8903803A81E1464B1CE6D1A1
:10148000B8464C46F2E69A684245B5D9C0E7631CB7
:1014900000D0F8E605E7200023699847002825D109
:1014A000534642461B8813811269EFF3108372B6CC
:1014B00011680029FCD0BFF35F8F42465146528825
:1014C0000A804246494651801269BFF35F8F00216E
:1014D000116083F31088BBE6864200D803E7B7E6C5
:1014E000094800F021FA001969411DE76568246880
:1014F0000FE7874200D835E744E7C046E41F0020E5
:101500003C700540111200100040054070B52E4C93
:101510002569002D04D00A212C48FFF715FE70BD67
:101520002B4E0321300000F0F5F9E660FFF748FB91
:10153000284B03229C46D02322701B061B680121E6
:101540006370254B6044A3600F238000206102205C
:10155000638063694942A18019800231198647314D
:101560001D83585218315A5275325C3999521832CB
:101570000131995218320131995218320131995280
:10158000083518329D520231183299521832013101
:101590009952183201319952183201319952183248
:1015A000013199521832013199520C4B0C49DC60CF
:1015B00001303562FFF760FB01210320FFF73EFB9E
:1015C000084B1D60A7E7C0460C110020002000203A
:1015D0000040054040000034FFFF1000E41F0020E1
:1015E000111200103860054070B501000469EFF376
:1015F000108C72B620680028FCD0BFF35F8F0220E9
:101600000D5E4C6968004019C0002418002D37DBBE
:10161000208848800869BFF35F8F002606608CF33E
:101620001088E36063880498013320615B040598A7
:101630005B0CA26060611A1C002B1FD093B22804BF
:10164000628018430A69EFF3108C72B61368002B9E
:10165000FCD0BFF35F8F8B8823808D800B69BFF335
:101660005F8F00221A608CF310880B7801329A4049
:10167000CB6808498C4663441A6070BD0122DDE7DF
:101680000B69BFF35F8F00221A608CF31088012072
:101690004042F2E73C20000010B543890A1493420F
:1016A0001ADD53009B184269DB00D3180469EFF37D
:1016B000108C72B62268002AFCD0BFF35F8F5A8864
:1016C000090494B2090C8A4208D00369BFF35F8F02
:1016D00000221A608CF31088002010BD80221202B4
:1016E00014435C80012302698371BFF35F8F002183
:1016F00011608CF31088044902788C469340C268CC
:10170000012062441360E8E73C200000F0B50400CB
:101710000D0006267642F717C64636196F4100B50A
:1017200082B08F4214D811D000F006F932003B008D
:10173000121A8B41002B17DC002B47D02000290008
:1017400000F038F902B080BCB846F0BD8642EBD953
:101750000022002316001F0000F0EEF832003B00CC
:10176000121A8B41002BE7DD00F0E6F832003B0057
:10177000121A8B41002B0ADB00230193154B320018
:10178000009315483B00FFF72FFF0028D6DB00230E
:101790009C46B046114A124E736A9F4204D8B16A01
:1017A0008845CBD99F42C9D11168EFF3108072B63A
:1017B0000B68002BFCD0BFF35F8F1368BFF35F8F04
:1017C0006146196080F3108820BFE5E7002AB5D094
:1017D000CAE7C046E11100100C11002000200020D3
:1017E0000040054070B5060000F0A6F8FA2204009B
:1017F0000D00002330000021920000F0A1FC8023A6
:10180000001969411B06994202D301200249404256
:10181000FFF77CFF70BDC046FFFFFF7FF0B5D646E7
:101820004F464646C0B504000D0082B0EFF3058771
:101830008946002F0ED0344900204B6AAB4203D3B7
:101840008A6A0130A24226D302B0E0BCBA46B14651
:10185000A846F0BD2D4B9846DB689A464346504655
:101860001E7800F061F80B00514602000436B60005
:10187000715820008E1A2900801A99418F4211DC7C
:101880000ED020BF204A0020536A4B45DCD3926A19
:101890000130A242D8D25B1B5A1E9341D8B2D3E783
:1018A0008642EED900F048F822002B00121A8B4134
:1018B000002B1ADB00230193154B220000934046B6
:1018C0002B00FFF791FE011E0FDD0F4B5A6A4A45B0
:1018D00017D39B6AA34212D34046FFF7DDFE0A4AA4
:1018E0000020536A4B45AFD3D1E7074A0020536A23
:1018F0004B45A9D3926A0120A242A5D2CBE74A4523
:10190000EAD120BFE8E7C046004005400C110020A6
:10191000E111001010B5024A0248FFF7E1F810BDCE
:10192000F8410010C41A00200300416A0A00986AB6
:10193000596A8A42FAD17047034B596A0A00986A79
:10194000596A9142FAD170470040054070B50400D1
:101950000D00174A536A1900966A536A8B42FAD1EE
:101960003000190024184D41AB4216D813D0104A4C
:101970002B00526A954203D90D494A6A9A42FCD318
:101980009A4207D10A4A02E0516A994202D1916A09
:10199000A142F9D370BDA642E9D9054B5B6A1C0090
:1019A0005A1CEFD0012301246442E5175B42E3E7B0
:1019B00000400540064A536A9942FCD807D1044BBF
:1019C00002E05A6A914202D19A6A8242F9D3704780
:1019D00000400540F8B5040006200D0000F078F93D
:1019E000002844D0374B3849E3185A1E93418022CF
:1019F000120494465B429B0D344A9B05634413607A
:101A0000334A136018000A689043FBD12D4B314ACA
:101A1000E31859424B4180215B004900062099524E
:101A200000F056F92900C00000F0FCFA0130C309AB
:101A30001ED1402701226262A362266BF30722D4E3
:101A4000E36A254B0620E51800232B60266300F08F
:101A50003FF93900800000F0E5FA7023E26A5A404D
:101A60000E3313402B601D4B23630323A364F8BD87
:101A70001B4A93421ED900231A4A1B4F6262A3627B
:101A8000266BF307DCD5194B144AE3181A60656A14
:101A9000A36A0620AD01ED1800F01AF9144900F010
:101AA000C1FAAD020100280000F0BCFA0021FFF7E6
:101AB0004DFFC5E74006800E9F011A003F18030046
:101AC000B9E7C0460080FCBF08C0004000E000400D
:101AD00000F00040042000202C1000000103000052
:101AE000FEFF0000FFFF0000C0FF3F00303000009D
:101AF0004E0E0000F8B5DE464E4657464546E0B568
:101B00008B4605000A991800160000F08BFA0A9B14
:101B10006C001F02324B64199C46A4006444636845
:101B200081469F4200D967602B1FDBB29846012B8C
:101B300030D9C02380229B01E31812011A60294B7F
:101B4000AD0059599A4600291BD17301E02622683D
:101B500053401E40802342465B01E3181E60012A69
:101B600030D9802380229B01E31812011A6053466A
:101B70004A4667605A51F0BCBB46B246A946A046E9
:101B8000F8BD586900F04EFA013043001B18033BC2
:101B9000FDD2DAE75B46012BCBD1C02303229B01A8
:101BA000E3181A60023AA3681A42FCD07301E026D7
:101BB0002268AD0053401E4080230A4A5B019246D2
:101BC000E3181E605A462168514003220A401A60F9
:101BD00001225B469A40A3681A42FCD0C1E7C04686
:101BE00000800040C81A0020F0B546464F46D64651
:101BF000C0B51F00344B44009C462418A400644424
:101C0000636888461600FF2B02D880235B00636060
:101C1000031FDBB29A46012B30D9C02380229B01DF
:101C2000E31812011A60294B850059599946002979
:101C30001BD17301E026226853401E408023524688
:101C40005B01E3181E60012A30D9802380229B01AA
:101C5000E31812011A6080235B0063604B465F51FA
:101C6000E0BCBA46B146A846F0BD586900F0DAF9C2
:101C7000013043001B18033BFDD2DAE74346012B3A
:101C8000CBD1C02303229B01E3181A60023AA36858
:101C90001A42FCD07301E0262268850053401E40A2
:101CA00080230A4A5B019146E3181E604246216880
:101CB000514003220A401A60012342469340A26821
:101CC0001342FCD0C1E7C04600800040C81A002083
:101CD000014B8000C0587047C81A0020F8B50400B6
:101CE00021481E0017000D0000F09CF9010038008B
:101CF00000F098F9069B36041B031E432368002B53
:101D000020DB1A4B1A49E3185A1E93418022920194
:101D100094465B421B0B174A1B0363441360164A2D
:101D200013601F000A689743FBD1144B2560E2182B
:101D30002123A06013602368002BFCDA0823E660EF
:101D40001360F8BD3F2322681340AB42D9D1A3688A
:101D50001B051B0D8342D4D1EE22E368D20213404F
:101D6000B342CED1EDE7C046001BB7000040FDBF37
:101D700008C0004000E0004000F0004004300000D7
:101D80008023024A9B000B43D362704700800540CA
:101D9000142310B50100188804331B88984710BD20
:101DA000162310B50100188802331B88984710BD10
:101DB000F8B54746CE4680B50F1E19D01423994674
:101DC000043304000025012698464B4618884346F4
:101DD00021681B88984701C4431E98410135404241
:101DE0000640AF42F1D13000C0BCB946B046F8BDA4
:101DF0000126F8E7142370B50400188804330D0099
:101E00001B88034998472900030020009847C046D3
:101E100055420000AA23064A1B0113608D235B0074
:101E2000D3600449044B19605368002BFCDA7047F7
:101E30000040024000B0FA00006002407047C04617
:101E400010B50148FEF734FE1C42001070B5074D76
:101E5000074EB54209D20024013E761BB60808CDD4
:101E6000984723000134B342F9D170BDD840001027
:101E70001441001070B5074D074EB54209D2002439
:101E8000013E761BB60808CD984723000134B342C3
:101E9000F9D170BD0C41001014410010054B064AE9
:101EA00006491A60064A074B1A6010000B689843EF
:101EB000FBD1704700E00040BFCDFBFE08C00040F2
:101EC000FE7F3C0000F00040044BDB6C002B03D194
:101ED0008022034BD2021A607047C04600001150A6
:101EE0004C201150044A054B1A60054A1368DB0167
:101EF0008033FBD17047C046FFFFFF0100F0004078
:101F000008C000404022034B9A675A671A67DA6696
:101F10007047C04600F0014010B5FEF76FFE10BDDF
:101F200070B5044D044CA968C022200000F078F977
:101F3000AC6070BD00ED00E000000020002310B593
:101F4000294C82B0A367FFF765FF0122274B1A6077
:101F5000636C012BFCD10322254B1A60224A936B40
:101F6000012BFCD1013300930121224A2248043382
:101F7000FFF7B4FE052301210093204A2048FFF714
:101F8000ADFE0022022104201E4BFFF72DFE002291
:101F9000012105201C4BFFF727FE0022002107200E
:101FA0001A4BFFF721FE002200210820174BFFF7F4
:101FB0001BFE8023DB000093002200210920134B2D
:101FC000FFF798FD0022104B00210620FFF70CFEC2
:101FD0000420FFF77DFE0E4900F024F801000020E8
:101FE000FFF7CEFE02B010BD008000403CB00040C4
:101FF00030B00040002F685900800240008C8647B6
:1020000000C00240001BB70040597307006CDC029F
:1020100040420F0001480421014B184730110020B5
:10202000B11D0010114A936F9B0813D210665166C0
:10203000002905D0FFE7FFE7FFE7516F106F7047FA
:1020400004B5002801D00020C04302F01DF8002193
:1020500004BDC046F0B5146E556E576F166FFFF78E
:10206000E5FF1466556657671667F0BD000000D09F
:10207000132370B51D78012D19D014DD1F48FFF70B
:102080008FFE06001E48FFF78BFE1E4C802231009B
:10209000200000F0C5F8022D2DD01B48FFF778FE78
:1020A0001A4B186070BD1A4B164CA364F5E7184B19
:1020B000144C23606360A360E36023616361A361E8
:1020C000E36123626362A362E36223636363A363E6
:1020D000E36323646364A364E36423656365A365C6
:1020E000E36523666366A366E36623676367A367A6
:1020F000E367A364D1E7064BA364CEE75344000033
:1021000053460000181300204C330000FC1F002031
:102110001521001007B5604601880A0A0230DF2A3F
:10212000FAD1C9B2820804D302884088000410435F
:1021300000E00068014A5050039007BD18130020CA
:1021400051434343C9188C46110C83B24B4310B41E
:10215000040C614392B280B2504362431C041B0CD6
:10216000001910BC59411304120CC01851416144AC
:1021700070470000132310B512481C78FFF710FEBB
:102180000100012C0AD003DD80220F4800F048F83E
:102190000E48FFF7FDFD0E4B186010BD0A4C54228F
:1021A000200000F03DF80B4B6365A365E3652366F3
:1021B0006366A366E36623676367A367E3672362D7
:1021C000E361E5E753460000181400204C3300009B
:1021D000FC1F0020D921001007B5604601880A0ABB
:1021E0000230DF2AFAD1C9B2820804D302884088BB
:1021F0000004104300E00068014A5050039007BDFE
:102200001814002001480421014B184740110020F8
:10221000B11D0010014B1B68184700004011002041
:10222000014B5B68184700004011002010B50028E2
:1022300000D110BD00F026F9FBE7C04610B5094AF1
:102240000300146884B0002C08D0012200910648D5
:10225000524203A9A047012004B010BD00F05EF96E
:102260000020F9E7FC1E00202D22001000BEFDE733
:1022700010B5FFF7FBFFC04670B5FFF7E7FD074D50
:10228000074EB54209D20024013E761BB60808CDA0
:10229000984723000134B342F9D170BD14410010B6
:1022A00024410010030010B5080011001B68984776
:1022B00010BDC046F0B5C64600B5437D07000D0011
:1022C0001600002B38D0002A2EDD00216A1E904611
:1022D0006A5C037D4C1C00200A2A0CD0A64216D052
:1022E00043461B5D21000D3B5A4253416A5CDBB201
:1022F0004C1C0A2AF2D1002BF0D1884217DB0221B4
:1023000010483B689847A64207D02000E8E786427D
:1023100003DD311A3B6828189847AD19013D2B7829
:102320000D3B5A4253413B7580BCB846F0BD091A7B
:102330003B6828189847E2E703681100280098478F
:10234000F2E7C0463C440010F0B5DE4657464E4624
:102350004546E0B585B017001C0006000D00FFF7EC
:10236000EBFA0023314A12184B41802109068B42B7
:1023700002D301222E4B52422E4908008A4601F018
:1023800093FE01906B1C03D1300001F0C9FD0500E4
:10239000002C26D0284B9846284B1C68002C15D0C2
:1023A000002F21D1264F02E02469002C0ED0236893
:1023B000002BF9D03B68002B01D09C42F4D12000C7
:1023C0002A003100C0472469002CF0D1019B002B6A
:1023D00028D1280005B0F0BCBB46B246A946A046AD
:1023E000F0BD184B9846D7E7154B994602ABDF1D59
:1023F0000A239B4602E02469002CE7D02368002BC7
:10240000F9D04B461B68002B01D0A342F3D12A0020
:1024100031002000C0475B460122390020003B709C
:10242000C047E8E7504601F00FFED2E740420F00F8
:10243000FFFFFF7F90110020B5220010F01A00204E
:10244000F81A0020A52200100A4A1368002B05D1B3
:102450000CE01A001B691032002B07D09842F8D10B
:10246000002902D103691360016170470029FCD083
:102470001060FAE7F01A002010B500F03BF90120D7
:1024800010BDC046F0B5CE46474680B583B06B461A
:102490000600DD1D2870FFF74FFA00231A4A1218B4
:1024A0004B41802109068B4202D30122174B524235
:1024B00017490800884601F0F7FD164B81461C6855
:1024C000002C14D0144F02E02469002C0FD0236894
:1024D000002BF9D03B68002B01D09C42F4D12000A6
:1024E00001222900FFF7E6FE2469002CEFD14B46BC
:1024F000002B05D1300003B0C0BCB946B046F0BDDA
:10250000404601F0A1FDF5E740420F00FFFFFF7FCD
:1025100090110020F01A0020F81A002070B5040075
:1025200001F0FEFC01230100050001222000FFF75D
:102530000BFF084B1C68002C06D06368002B05D0ED
:1025400098472469002CF8D1280070BD2469002C1C
:10255000F3D1F9E7F01A0020F0B5002915DD0E4B94
:102560000D271A680D4B0E4CD3185D426B41451870
:1025700020215B001E5F0478A64207D093691942B0
:10258000FCD101301460A842F5D1F0BD9369194225
:10259000FCD11760F2E7C0460C2000200080FCBF91
:1025A00004200020204B70B504000D1E1E682ADD9B
:1025B000002010211D4B013C1A689369194214D167
:1025C000013093691942FCD1136823548542F4D138
:1025D000002E08D050239363516B183B0B401449D5
:1025E0008C466244136028000CE0002E08D0502373
:1025F0009363516B183B0B400D498C46624413604A
:1026000000280DD070BD002E0AD05022074B1B6849
:102610009A63596B183A0A4005498C4663441A601C
:1026200003204042EEE7C046B81A00200C200020EC
:1026300034100000064B10B51B68002B06D000219B
:10264000044A12689163044A1068984710BDC04656
:10265000B81A00200C200020BC1A00200822034BCE
:1026600019688B691A42FCD17047C0460C200020C3
:10267000F8B51A4F1A4B3A680500D318584243412F
:10268000184E14331C003368002D02D0002B0FD0DD
:10269000F8BD002BFCD0002120009563FEF7CEFA98
:1026A00020001149FEF70CFC104B35601D60EFE770
:1026B0000E4B200019600C493560FEF7DDFA012150
:1026C0002000FEF7BBFA50223B689A63596B183A18
:1026D0000A4007498C4663441A60D9E70C20002061
:1026E0000080FCBFB81A002035260010BC1A00205C
:1026F000341000000D4B10B51B780D4B0D4C1B78A2
:102700000D4B02211B780D4B00202360FEF77CF956
:1027100002210120FEF778F9E12120684902FFF744
:1027200059F901210648FFF78FFE10BD94450010AE
:10273000904500100C2000208C4500100040034004
:102740005011002070B50C4E0D001C003060002AA6
:1027500003DB02211000FEF757F9002C03DB0221F6
:102760002000FEF751F929003068FFF733F9012105
:102770000248FFF769FE70BD0C20002050110020B8
:1027800010B588B004000D2200216846FFF742FD15
:102790000D22002104A8FFF73DFD4B236A46684641
:1027A000137004A90D2201F047FC15210822200016
:1027B0006944FFF735FD08B010BDC046F8B500F01C
:1027C00043F90C23194DFF22AB6705201849FEF78A
:1027D0007DFA184C402200212000FFF71BFD402706
:1027E000002301262121144A66702783A26013600A
:1027F00063545F31618445396354104A1049636002
:10280000E2602787A1620B606362E26201F02CFC48
:1028100080239B052E64EB6490230A4A0120EA5032
:102820008022094B5202DA64F8BDC0460000115004
:1028300051040020FC1A00208400105000011050A8
:102840008000105010D001000020115010B501215F
:102850000520FEF7F3F910BD10B500220021024853
:1028600000F012F910BDC0461C1B0020044B19706B
:10287000002904D080219023024A8902D150704758
:1028800017200020002011500B785B0602D14B78F6
:10289000052B00D070478A78014B1A60FAE7C046D2
:1028A00000001150F0B5C646C87800B58007830F08
:1028B0001800012B60D08F780A794B797F2139403D
:1028C000FC091B024E001343334D32195201AA1862
:1028D000977001276740577000275B055B0DD77025
:1028E0001383D076B846CA00012C32D02B4FBC4699
:1028F0008F016244BC46AC446746BA6047461760E5
:10290000002932D0264AC9009046624641445160AF
:102910003F223F339343022837D0224937190A68B0
:102920007F01D3180B602049EF19FA608B422ED833
:1029300036197601AD19EB7E1C499B064A401343BC
:102940008022120613436A681360012080BCB846D7
:10295000F0BD174FBC468F016244BC46AC4467468D
:10296000BA6247461760002908D1002364012C1978
:102970006360104BE360E8E70020E7E70B4AC9001B
:102980009046624641445162C2E75B00C5E7FFF7EB
:1029900057FAFA68CCE7C046FC1A002084001050B1
:1029A00004001050E01F0020FF0F105000001050D6
:1029B000800010500001105010B501F055FB10BD03
:1029C00010B57F200C0020404000E40911000019E0
:1029D0001A00034B4001C01800F056F8012010BD4A
:1029E000FC1A00207F23180010B50840CA090B42CA
:1029F00003D107497D3B9B1A8B66400080188022DB
:102A0000044B40010021C018120101F05DFB10BD14
:102A100000201150FC1A00207F22130010B50B403B
:102A20000A4200D110BDC9095B005B1804485B0174
:102A3000C018002300220349C37001F045FBF1E7F1
:102A4000FC1A0020FFF7FFFF80220A4B520410B54A
:102A50001A60094B09491A6010000B689843FBD1B2
:102A60008022002152010648FFF7D4FB0922054BC2
:102A70005A6710BD00E0004000F0004008C0004070
:102A80000000105000001150002310B5C382013324
:102A9000828283760161040001F0EEFA002804D0FE
:102AA00080219023074A8902D150200001F0D4FAF6
:102AB000002802D00123237710BD200001F0FCFA8A
:102AC000FAE7C04600201150002070477047C0460A
:102AD0007047C046002070470020704700207047B4
:102AE0007047C0467047C0467047C0467047C046F2
:102AF000024B5878431E9841C0B270478C18002092
:102B0000024B18784007C00F7047C0468C18002051
:102B1000F0B5D6464F464646C0B52F4B07009A46FD
:102B20001B780E00FF2B01D0012041E000293ED090
:102B3000002154222948FFF76DFB0022284C294B25
:102B400020001A70FEF730FB274B1C60274C20003A
:102B5000143CFEF737FB200001F0E0F8244B254D34
:102B60001C60254B002B28D0280000E000BF234B21
:102B700018602B78224A00249146204A90460EE0A5
:102B800043461B6862019B18002B10D05B68002B2A
:102B90000DD0984701342B78E4B2A3420FD3A3425F
:102BA000EED8E31A5B014B445B68002BF1D10020A7
:102BB000E0BCBA46B146A846F0BD2B78DAE75346EA
:102BC000310038001F70FFF7F9FD0028EFD0380002
:102BD000FFF73CFE0120EBE7841100208C18002059
:102BE0008418002018200020E01800207C1100200C
:102BF000E418002016200020000000005C170020D0
:102C000004450010F0B5DE4657464E464546E0B551
:102C1000CA4B8FB003931B78FF2B00D146E1C84B02
:102C2000C84E9B465F46C84B0BAC0293C74B019303
:102C300035686A69EFF3108172B61368002BFCD017
:102C4000BFF35F8FA9612800210000F0C5FF6A690A
:102C5000AB69BFF35F8F0021116083F310880028F8
:102C600000D123E16378082BE2D89B00FB589F46F4
:102C70006368002BDCD0A0689847D9E77F222179D0
:102C8000B14D0A405300EB189846C80980444046AD
:102C90000123303005799D430571057903339D4348
:102CA0000571002A00D108E14346A94A1B7D12782C
:102CB000934200D3F8E0A74A5B011568ED18002D98
:102CC00000D1F3E0A36862792078AD69A847AFE747
:102CD000A14A1378002B00D1E8E01378013BDBB266
:102CE00013701378002BA3D10122974D01212B786B
:102CF000042013432B703423EA5C8A43EA54EA5CD1
:102D00008243EA540133EA5C8A43EA54EA5C824330
:102D1000EA5423780020984600F060FC6022237972
:102D20001A40602A00D1F3E0402A00D1F9E0DB0626
:102D3000DB0E012B00D117E1022B00D1CCE0002BE0
:102D400000D0E5E0202A00D10FE2002A00D0DFE029
:102D50006379092B00D9DBE0804A9B00D3589F465A
:102D6000794D2B78DB0700D462E7FFF7BFFE5FE702
:102D7000029BDB78DB0700D45AE76068FFF7A8FE08
:102D800056E7714D2B78DB0700D451E72878000710
:102D9000C00FFFF7A9FE4BE723786C4A984693468D
:102DA0006B4B6C4A9946310092463A0046464F4674
:102DB0000025914688461B780EE053461B686A0141
:102DC0009B18002B00D17EE0DB683000984701356E
:102DD0003B78EDB2AB420CD39D42EED3EB1A5B01D4
:102DE0005B44DB683000984701353B78EDB2AB427D
:102DF000F2D2554D542200212800FFF70BFA102281
:102E0000FF21281DFFF706FA28002022FF21143099
:102E100046464F46FFF7FEF900F0D6FB2379AB702C
:102E200006E723784B4A9846494B9246994632002A
:102E3000BB46464600254F4690461B780DE053465C
:102E40001B686A019B18002B41D0DB683000984753
:102E500001353B78EDB2AB420ED3AB42EFD8019ACD
:102E6000EB1A94465B016344DB68300098470135F8
:102E70003B78EDB2AB42F0D2029D542200212800F3
:102E8000FFF7C8F91022FF213548FFF7C3F92800E2
:102E90002022FF21143046465F46FFF7BBF900F0C1
:102EA00093FBFFF71FFEC3E6934213D00FB0F0BCB5
:102EB000BB46B246A946A046F0BDA3686279207819
:102EC00000F0A0FBB4E646464F461F4DA4E7464639
:102ED0005F46E4E71D4DF5E67023217A0B4217D1DA
:102EE000C80983460F330B405B0099461848EB181E
:102EF0005B441B7D0078834261D216485B01006809
:102F000082469A44002A00D14EE15346002B5ED1FE
:102F100020780021FFF766FD80212078FFF762FD11
:102F200086E6104800F05AFB012140460CAAFFF744
:102F3000CBFD002800D07BE6EAE7C04684110020E4
:102F40005C440010E41800208C1800200445001098
:102F5000162000205C17002018200020804400105C
:102F600090180020C92A0010237A0F2BD0D8D54AF8
:102F7000EB181B791278934234D3C9D1D24D6869CA
:102F800000F02CFB012140466B690CAA98470028F1
:102F900000D04DE66022150023791D401A42B7D1BA
:102FA00063790A3B012BB3D800F018FB63790A2B35
:102FB00000D17DE140460CA900F09AFA38E6834240
:102FC00000D0ECE0C04B9A46002A00D1ECE053461A
:102FD000586900F003FB5346012140465B690CAA87
:102FE0009847A6E7B94A5B011568ED18002DC6D1D0
:102FF0008EE7A3799A466B789A45DBD06B78002BE5
:1030000000D028E153466B70002B00D120E15046E0
:103010000138C0B2FDF7BAFC002800D171E1437855
:10302000022B00D06DE10122C179A9468B11491113
:1030300013400A40302112015B0113432A788A436E
:1030400013432B7009239B4683445D46B346C378E4
:1030500082781B021343C31806939A4B0497059377
:10306000994B0893994B9A46994B0993069BAB420F
:1030700000D849E16B7801220B2B03D12B78EA7839
:10308000ED186B78042B00D038E1069B00265B1B03
:103090009BB20793059B17001B7818E053461B68EB
:1030A00072019B18002B00D128E1290040461B69C2
:1030B000079A9847082803D9079B834200D30BE15E
:1030C000059B01361B78F6B2B34200D216E1B3423B
:1030D000E4D8089AF31A94465B016344E5E76B78F9
:1030E0000AAA02321370404601230CA900F016FA16
:1030F0009EE5E3881A0AD8B20F2A00D908E7754975
:103100009300CB589F460CA800F06EFA4046A17978
:10311000FFF7A2FB02222B7813432B7088E5E3888C
:10312000012B00D0F4E608222B78404693430CA9EB
:103130002B7000F0DDF97BE5022029780AAB9A1CA0
:103140008B068908DB0F01400B43138040460223A6
:103150000CA900F0E3F96BE5E388012B00D0D7E67A
:1031600008222B7813432B7024E7237A0F2B00D9E6
:10317000CEE6544AEB181B791278934228D2534A70
:103180005B011568ED18002D00D1C1E6686900F0FB
:1031900025FA012140466B690CAA9847C9E6002A26
:1031A00000D0B5E600239A4662790220130004920B
:1031B0008343012B11D0002A00D0A9E62B004B44F9
:1031C0005B4430331B790AAA9B07DB0F0232BCE752
:1031D000934200D09CE63C4DD8E7E388002B12D107
:1031E000039B1878049B012B23D0FFF7FBFB4B4676
:1031F0000221EB185B4430331A790A4301211A711A
:103200001A790A431A715346002B00D110E5586908
:1032100000F0E4F9534601215B690CAA4046984747
:10322000002000F0DBF93523EB5CDB0700D5FFE481
:10323000C0E6FFF7F1FB4B460221EB185B4430334D
:103240001A798A431A711A7904998A431A71DAE74A
:10325000FFF748FCAEE600214046FFF707FB40467B
:10326000FFF7AAFB00229346174AAB780592174A4C
:10327000049306922A00134B5D46994693461B78A9
:103280000EE0069B6A011B689B18002B55D0DB687B
:10329000404698474B4601351B78EDB2AB4238D3D8
:1032A0009D42EED3059AEB1A94465B016344EEE728
:1032B0000AAB9A1C404601230CA9157000F02EF9A8
:1032C000B6E4C04616200020044500105C1700201C
:1032D000A0180020A84400103A000700002A3CD0A3
:1032E000AB789A18D2B204E00133DBB20E719A4285
:1032F00033D04946C9180879FF28F5D05E464D46B7
:10330000049F00236B7003E65E46049FFFF7E8FB13
:1033100050E65D46542200212800FEF77BFF102274
:10332000FF21281DFEF776FF28002022FF21143000
:10333000FEF770FF049BAB7064E65D46FAE7FFF7AB
:10334000C9FB021E00D1E3E5D37891781B020B4341
:1033500040460CA900F0E2F8EBE5330029003A0002
:10336000099800F01FFC059BED191B78B34200D3B0
:103370007CE6C3E7FFF7B0FB021E00D1C8E540467C
:1033800013780CA900F0CAF8D3E52189FDF706FBF4
:10339000021EF4D1BCE5022A0FD0FFF79FFB021EEC
:1033A000D2D1B5E5FDF7EEFA021E00D1B0E5122349
:1033B00040460CA900F0B2F8BBE5FDF7E7FA021EA3
:1033C000C2D1A5E5F8B557464E46DE4645460C0047
:1033D000E0B516001F00002A3CD01F4B00259A467E
:1033E000702399461D4B9B4617E05B462000997859
:1033F00000F09AFB00281FD021004046FFF752FA48
:10340000002819D0A378DA09012A1CD00A9A0135BC
:1034100013702378E418B5421CDA6378052B0BD1BE
:10342000E3789B079B0FBB4206D153464A461B7865
:103430009846A3781A42D8D00020F0BCBB46B246CA
:10344000A946A046F8BD0B9A013513702378E418FD
:10345000B542E2DB0120F0E7841100208C18002047
:103460000B007F2010B51840DB0934334000044ABC
:10347000C018044B1168C01800F02EFB10BDC046E8
:10348000E01800208C18002070B57F240F480C40F5
:1034900064000419CD09641930342079C00701D5BE
:1034A000002070BD01262579094835430078257133
:1034B000FFF786FA0028F4D1012223799343237180
:1034C0002379033293432371EAE7C0468C18002026
:1034D000841100207F22054B0A405200C9099B1825
:1034E0005B1830331879C007C00F70478C18002064
:1034F00070B5094C0600082220000D00FEF790FE72
:1035000000238021E360A3602B78300099430022E0
:103510000023FFF7B9FF70BDA0170020F8B5CE4615
:1035200047469046264E80B58146082230000D0061
:103530001F00FEF775FE4346B3600023F381EC796C
:10354000AB7924021C43231CBC4200D93B1C9FB214
:10355000B381002C0ED0002F18D04346002B2CD066
:103560003B1C402F1BD89FB233787F2B1CD80021E7
:10357000144A0FE080212B7800229943484600230B
:10358000FFF782FFC0BCB946B046F8BD7F230022DA
:10359000317899433B004846FFF776FFF2E7402336
:1035A0009FB233787F2BE2D9064C3A004146200087
:1035B000FEF736FE80212200ECE70020E2E7C0465D
:1035C000A01700206017002010B514220021024827
:1035D000FEF720FE10BDC046A0170020014B186169
:1035E0007047C046A017002010B5054C0100082206
:1035F0002000FEF715FE0023A360E36010BDC04667
:10360000A017002070B5384C1D0023780600DA0999
:10361000C9098A4210D00020002D00D070BD2100C1
:103620003000FFF731F92369002B03D0220003217A
:10363000300098470120F1E7A0687F2B05D80028CB
:1036400034D02A002949FEF7EBFDE289A16852191E
:10365000E38892B24919E281A160934214D03F2DD0
:1036600012D9A389981A051C80B240282AD820783C
:10367000ADB27F2828D800219A4232D01B4A2B00B5
:103680003000FFF701FFC9E72369002B05D02200B6
:1036900002213000984700280AD080212378002298
:1036A000994330000023FFF7EFFEB7E70020B5E7AE
:1036B00000213000FFF796F930008021FFF792F9E2
:1036C0000120ABE74025D2E79A4207D0074C2A00F9
:1036D0002000FEF7A5FD80212200D0E780210022F6
:1036E000CDE70022CBE7C046A017002060170020DE
:1036F0007047C046012070477047C0467047C046BB
:1037000042000C4B1218920010B59B185C78FFF722
:10371000EFF9002801D1002010BDFFF7F1F90028D2
:10372000F9D1002CF7D02100FFF7D4FE0123584037
:10373000C0B2F1E774180020F0B5C6460E001500BF
:103740001C0000B5002803D0002080BCB846F0BDA6
:10375000144B002059789846FFF782FE0028F3D0DA
:10376000002E0FD1402CEFD80F4F22002900380037
:10377000FEF756FD43463A00597800202300FFF734
:1037800083FEE2E74023094FFE543F2CDCD838008B
:103790002200290041300134FEF742FDA4B2403737
:1037A000E8E7C04674180020F4170020B417002082
:1037B00010B50C2200210248FEF72CFD10BDC046BA
:1037C000741800200120704710B50C220021024817
:1037D000FEF720FD10BDC04674180020F0B54B79EF
:1037E00006000D0083B0032B0AD10879C400241A07
:1037F0001234A4B2944203D8194F7B78002B03D023
:103800000024200003B0F0BD097869184B78212B03
:10381000F6D1B9600B780200C9187B1C0193BB1C60
:10382000009330000323FFF7CDFD0028E8D0AB79EB
:10383000012B01D1EB79FB700123BB71AB78B97817
:103840003B70BB68DA791B7A1B021343BB800029EB
:10385000D7D040233000034AFFF716FED1E7C04619
:1038600074180020341800201F23F0B514001278BB
:10387000050083B01340012B1BD1604E20793378B3
:10388000984216D1602318001040134208D0202817
:103890000FD163780B2B0CD8594A9B00D3589F4605
:1038A000012918D1E378A17862781B020B43062A1C
:1038B00002D0002003B0F0BD1B0A212B00D181E013
:1038C000222BF6D10020FDF765F821000200B38815
:1038D0002800FFF723FE0120ECE70129FBD1E17866
:1038E0000020F171FFF706FF0028E2D02100280038
:1038F000FFF7FEFD0120DDE701296DD00329EAD1A4
:10390000E079A37900021843E278A178041C4028EA
:1039100000D940243B4BA4B2002907D0012805D987
:103920001878884202D1013C374BA4B200200094A1
:10393000FDF766F80120BDE70129D7D00329CAD1D8
:10394000A1780020B171FFF7D3FE0120B2E7012971
:10395000C1D1E379A0791B020343E278A178181C56
:10396000402B00D9402080B2002943D0012B41D9FF
:103970000126244F0138397080B27B1C0090002052
:10398000FDF740F833189BB2002B00D191E73A00C5
:1039900021002800FFF7C2FD01208BE701299AD101
:1039A000012321002800194AFFF7B8FD012081E713
:1039B000012990D1012321002800154AFFF7AEFD0F
:1039C000012077E7B268002A00D172E721002800C1
:1039D0001378FFF7A3FD6DE7E379A2791B02134388
:1039E000402B00D965E721002800064AFFF796FD25
:1039F00001205FE7034F00263B00BFE7741800205B
:103A000024450010B4170020B51700207A180020B4
:103A10007B18002070B51B4D0400A8786E7882B02A
:103A2000884204D000208E4215D002B070BD9BB2F7
:103A3000864211D0144E002A17D100930021330082
:103A400000200232FCF7DCFF402332002000A9787E
:103A5000FFF71AFDE9E79BB2002A0CD100201A00FB
:103A60000A49FFF749FE0120DFE73200022100206A
:103A7000FFF744FEE8E700200121044AFFF73EFE7D
:103A80000120D2E77418002034180020F417002019
:103A900000B5030083B0002910D00020012B07D807
:103AA0000A78002A04D00B48C2540120012A01D010
:103AB00003B000BD1800FFF72BF8F9E7012301A9B7
:103AC00000200B80FFF724F80028F1D00122014BE1
:103AD0001A70EDE780180020037870B5DB0704004A
:103AE0000E00DD0F002B17D103785B0701D52800EE
:103AF00070BD01213000494200F0CEFA2378DB0787
:103B0000DD0F002B0AD123785B0708D40422237829
:103B100001251343237002E00025E8E7002530006B
:103B200000F092FAE3E7C046437902791B0213439F
:103B3000C2785B0592075B0D920F022A1DD0032A03
:103B40000CD00020012A08D102394A425141124AC0
:103B50009446614499424041C0B2704702394A1EBE
:103B600091410E4A494211408022D20094460020E1
:103B7000614499424041C0B2EFE7022905D00020DC
:103B800040229A424041C0B2E7E7054A98184342B2
:103B90005841C0B2E1E7C046FF03000040FCFFFF10
:103BA00000FEFFFF8A1870B5914207D27F264C783D
:103BB000052C04D00C7809198A42F8D870BD34005D
:103BC0008D782C4064000419ED0963550C780919AF
:103BD0008A42ECD8F2E7C04670B5040000690E00D6
:103BE000002803D00121494200F056FA2589608956
:103BF000A288A9B283B285422CD3CD1AADB2002DD2
:103C00002ED0AA4208D2914230D3891A8BB2638156
:103C10009A4203D89B1A9BB29A42FBD9E288216848
:103C20005204520C53433000C918FEF7F9FA638965
:103C30000125591C89B2A2888B4213D90021520058
:103C4000891A89B220696181002801D000F0FCF94D
:103C5000280070BD5500ED1A4D19ADB2002DD0D120
:103C6000618989B252009142ECDBE9E789188BB295
:103C70006381CDE7F8B50400C0680E00002803D0CA
:103C80000121494200F008FA258920896189A2882A
:103C9000ADB283B28FB2884229D3DB1B9BB29A426A
:103CA00009D8E779FF0906D1E068002801D000F0C3
:103CB000CBF93800F8BD95421ED32B009B1A9BB25E
:103CC0009342FBD2E28820685204520C53433100E5
:103CD000C018FEF7A5FA6B1C9BB2A2889D4218D9AA
:103CE000002352009B1A9BB201272381DCE751007D
:103CF000C91B5B189BB2D2E72B00E28820685204F4
:103D0000520C53433100C018FEF78AFA0135A288DD
:103D1000ABB252009342E7DBE4E7C04610B50400C3
:103D2000C068002803D00121494200F0B5F920699C
:103D3000002803D00121494200F0AEF90023E068D9
:103D400063812381002801D000F07EF920690028DA
:103D500001D000F079F9012010BDC04610B519203E
:103D6000FCF780FED0238022E1211B0692045A62D8
:103D70000448054B0022186049020123FEF7E2FCCB
:103D800010BDC046004003400820002010B5024886
:103D9000FEF7F6FC10BDC046F41F002003BDC04670
:103DA00010B50400FEF766F8A04710BDF0B504009A
:103DB00087B00F200E001700FCF752FF002105000E
:103DC0000F20FCF73BFF0023002200920193012308
:103DD0000293D0230496059400260024012102209A
:103DE00003971B06002C14D01A6D1042FCD05C65A2
:103DF00040BF1A6D114203D120BF1A6D1142FBD092
:103E00009A6DA2420AD000266C46B200A458E9E797
:103E10009A6D1A6D1142FBD140BFE5E70136062EBF
:103E2000F2D129000F20FCF709FF07B0F0BDC04612
:103E30000D4B0E4A70B5934210D31C000C4A9918D2
:103E40000B4D0C4A92686051FF20C00023500A4B72
:103E50000A4823500A48FFF7A9FF70BD01235B42BF
:103E60001C000849ECE7C0460008042000000420BC
:103E7000F407000000ED00E0A13D0010FC07000089
:103E80009D3D0010F3070000024670B50A439207FB
:103E90002AD11E4DEE0104C808C9541B9443344076
:103EA00017D0D0B2D9B2401A2106014310D190B236
:103EB00099B2401A210401430AD110021902000AE2
:103EC000090A401A2102014302D1100E190E401AAC
:103ED00070BD9A42DFD010BA19BA884201D90120C8
:103EE00070BD0020C04370BD02780B7801300131F5
:103EF000002A09D09A4207D102780B7801300131AB
:103F0000002A01D09A42EFD0D01A70BD0101010100
:103F100010B5010000230022002000F043F810BD7E
:103F200010B583070AD00300032102E001330B42DE
:103F300005D01A78002AF9D1181A10BD03001968A3
:103F40000C4A0D4C8A188A4322420FD15968094AFB
:103F500004338A188A43224208D15968054A043337
:103F60008A188A432242F1D000E001331A78002AED
:103F7000FBD1E1E7FFFEFEFE8080808070B5074C3C
:103F8000074D641BA41005D0013CA300EB589847D3
:103F9000002CF9D100F04EF870BDC046244100104D
:103FA00024410010F0B5C6461A4C00B52568002D16
:103FB0002AD06C681F2C2ADC002808D10020631C42
:103FC0000234A4006B60615180BCB846F0BD882704
:103FD000A600AE19F2510137FF37BC460122AC44AE
:103FE0006746A2403F6890461743624617608427A1
:103FF0007F00F3510228E1D1280042468D30FF3086
:10400000036813430360D9E7034D2560D1E701201E
:104010004042D9E7C416002034150020034B10B5E8
:10402000002B02D00248FFF773FF10BD0000000014
:104030007D3F0010F8B5C04601B40248844601BC7B
:10404000604700BF8902002001B40248844601BCD9
:10405000604700BFED01002001B40248844601BC66
:10406000604700BF6D0B002001B40248844601BCCC
:10407000604700BF4903002001B40248844601BCE8
:10408000604700BF450B002001B40248844601BCD4
:10409000604700BF890E002001B40248844601BC7D
:1040A000604700BF5D01002001B40248844601BCA6
:1040B000604700BFC100002001B40248844601BC33
:1040C000604700BFFD0B002001B40248844601BCDC
:1040D000604700BFAD0B00209D1E0010C91E0010E0
:1040E000152000100522001071200010752100100D
:1040F0003D1F0010E51E0010051F0010191F0010C5
:1041000059110010211F00100D1500103D1E001048
:10411000190C00101D400010FD020010D507001002
:044120008D3D0010C1
:10412400426F6F7961682044656661756C74000044
:10413400000000004E554C004C4546540000000061
:10414400524947485400000055500000444F574E10
:10415400000000004100000042000000590000007F
:10416400580000004C310000523100004C32000075
:104174005232000053454C454354000053544152BD
:1041840054000000484F4D45000000005233000029
:104194004C33000043415054555245004300000045
:1041A4005A000000426F6F796168424F5800000066
:1041B4004C756E6100000000534E323032352D30A4
:1041C400303031000A2A2A2A2050414E4943202AFD
:1041D4002A2A0A000A0000004E6F207370696E6C70
:1041E4006F636B732061726520617661696C6162D3
:1041F4006C650000486172647761726520616C616E
:10420400726D20256420616C726561647920636C31
:1042140061696D65640000004861726420617373B4
:104224006572740052656C6561736500626F6F74CA
:10423400325F77323571303830000000322E312E43
:10424400310000007069636F00000000626F6F79D5
:104254006168626F780000004D6179203139203245
:10426400303235005541525420737464696E000035
:1042740055415254207374646F75740055415254FF
:1042840020737464696E202F207374646F757400D6
:10429400556E68616E646C656420495251203078B3
:1042A40025780A0065702025303258207761732004
:1042B400616C726561647920617661696C61626CBC
:1042C4006500000043616E277420636F6E74696E2D
:1042D40075652078666572206F6E20696E616374FF
:1042E4006976652065702025303258004C454400BD
:1042F40058410010000000005C4100100100000063
:10430400A0410010020000006441001003000000FE
:104314006041001004000000A441001005000000EA
:1043240068410010060000006C4100100700000006
:1043340070410010080000007441001009000000E2
:10434400784100100A000000804100100B000000BA
:10435400884100100C000000904100100D00000086
:10436400944100100E000000984100100F0000005E
:10437400090400000902220001010080320904003E
:104384000001030000000921110100012227000798
:1043940005810340000A000074430010A841001086
:1043A400B4410010BC41001005010905A10105013B
:1043B400093009311581257F7508950281020509A7
:1043C4001901291015002501951075018102C000FD
:1043D40012010002EF020140FECA33030001010290
:1043E4000301000006005250D3F075422842001029
:1043F40006005250E182887F30420010060052507D
:10440400ABB360534042001006005250BBFF3CB6B1
:104414004842001006005250861C0302504200100D
:10442400060052505422A29D5C42001005005250D6
:10443400DE65F468705600100D0A00000600525044
:1044440053B4F4A18042001008005250120000003E
:104454000800525092100000302C0010982D0010CB
:10446400222E0010702D0010822D0010602D0010DF
:10447400D02C00107C2C0010702C0010383100104F
:104484001E310010102F001058310010102F001092
:1044940006310010F2300010102F0010DE30001032
:1044A400F22F0010102F0010A433001096330010C8
:1044B4008A330010102F0010102F001074330010D6
:1044C40096330010102F0010102F0010102F001022
:1044D400102F0010102F0010102F0010102F00109C
:1044E4003E330010CE0C0020CE0C0020180D00200E
:1044F400380D0020760D0020880D0020C40C00200B
:1045040000000000B1370010C5370010C937001093
:10451400DD37001069380010153A00100000000063
:10452400B23800104E390010B03900109C39001018
:10453400B2380010B2380010B2380010B23800108F
:10454400B2380010F8380010DA380010383900108A
:104554000900525000000002F042001008005250BE
:04456400121002002F
:10456800E8430010F4430010004400100C4400100D
:104578001844001024440010304400106045001016
:1045880054450010544400104C440010404400109E
:10459800F0B5C646150000B504001E000268EFF32A
:1045A800108172B61368002BFCD0BFF35F8F042311
:1045B800E356002B2DDB2268BFF35F8F00201060CD
:1045C80081F31088D0221206127852B290469A428D
:1045D80003D1002080BCB846F0BD00270BE023685B
:1045E800BFF35F8F1F6081F310882800310000F04F
:1045F800E7FE0028EDD12268EFF3108172B6136848
:10460800002BFCD0BFF35F8F23797F2BE7D943467C
:1046180002E0D0231B061B6823712368BFF35F8F5A
:1046280000221A6081F310880120D3E7F0B5C6464E
:1046380000B50D00040000F0ABFEFA2206000F00E2
:10464800002328000021920000F0AAFE80233618DB
:104658004F411B069F4202D30126174F7642D023B3
:104668001B061B68002598460BE02368BFF35F8F85
:104678001D6081F310883000390000F0A1FE002889
:1046880018D12268EFF3108172B61368002BFCD0A2
:10469800BFF35F8F23797F2BE7D9434623712368C4
:1046A800BFF35F8F00221A6081F31088012080BC5D
:1046B800B846F0BD0020FAE7FFFFFF7F0268EFF37E
:1046C800108172B61368002BFCD0BFF35F8FFF23F5
:1046D80003710368BFF35F8F00221A6081F31088AB
:1046E80040BF704710B5084C2378002B0AD18023AF
:1046F800064807495B051A68C25004338B42FAD151
:104708000123237010BDC04619200020A8190010ED
:104718000001001010B5014B984710BDA9190020E1
:10472800034B1A68C0239B009343024A13607047E7
:104738000C8001400C900140054B1A6880239B00B7
:104748005340C02292001340024A13607047C0468B
:104758000C8001400C9001401423F0B5D6464F461A
:1047680046469A46814618880433C0B598460E00D6
:104778001B88264914009847534607001888434663
:1047880023491B8898475346050018884346214902
:104798001B8898478046FFF7A5FFB847A847FFF74B
:1047A800CBFF221E20D0C02108270220490511E096
:1047B800002C14D0131B0D2B20D9002D0AD0230058
:1047C800002A05D00B6E013A3370130001362343DB
:1047D800002B09D03D008B6A1D401842E8D1002DFE
:1047E800EDD123001343F5D1FFF79AFFC047FFF738
:1047F80091FFE0BCBA46B146A846F0BD4B461B78CF
:10480800013C0B6601239C46E144E8E74946000069
:1048180045580000464300000022154B10B59A6029
:10482800DA601A615A619A61DA611A625A629A62A6
:10483800DA621A635A639A63DA631A645A649A6486
:10484800DA641A655A659A65DA651A665A669A6666
:10485800DA661A675A679A67DA67F03292000021B7
:10486800044800F0A5FD044B044A1A6010BDC04678
:10487800000010503C1B0020E01F00208001105059
:10488800F0B54E464546DE465746E0B5214B002476
:104898009E6D012585B0002E22D01F4B9A4601231C
:1048A80099461E4B984601E0202C19D02A00230077
:1048B80001342F003240E4B26D00002AF4D0524691
:1048C80097654A465B085B0022409B185B0143449E
:1048D80018009B4600F030FC002808D1BE43E3D105
:1048E80005B0F0BCBB46B246A946A046F0BD5B4643
:1048F800E0219A78DB8A01A883600023C90001803F
:1049080001210271437100F037FC584600F0B0FBFA
:10491800E4E7C0460000115000301150FC1A002096
:104928009823F0B5C646C64A00B5D55880232E0050
:104938009B02102484B01E401D4273D0C14BC24C50
:104948009A6AC24B00261A603B23E35C022B00D113
:10495800F4E07B23E35C022B00D10CE1BB23E35C96
:10496800022B00D1FBE0FB23E35C022B00D135E1F5
:104978003C23FF33E35C022B00D122E17C23FF338D
:10498800E35C022B00D10FE1BC23FF33E35C022B75
:1049980000D1FCE0FC23FF33E35C022B00D1A6E14D
:1049A800AB4BE35C022B00D196E1AA4BE35C022BF4
:1049B80000D185E1A84BE35C022B00D174E1A74B41
:1049C800E35C022B00D163E1A54BE35C022B00D131
:1049D8002AE1A44BE35C022B00D10BE1A24BE35C80
:1049E800022B00D18FE1A14BE35C022B00D1A6E1A1
:1049F800002E08D19E4B1B78002B04D180219D4AA4
:104A080090338902D150C0228D4B01A89B6C920033
:104A18005B055B0D012180260280436000F0ACFB42
:104A2800954CB602EB0600D57CE080235B021D4264
:104A380032D01E43012302249846834FBB7E002BAD
:104A480014D000F0C5FC012800D96FE0C022002175
:104A58003800920100F012FB380000F009FB00F06A
:104A6800B7FC012802D9834B5C661C664346FB7081
:104A78002037012C01D00124E0E7C02301A8DB0086
:104A88007E4A038002AB12CA12C3012100F074FBF4
:104A98008022784B92021A6580235B011D420ED159
:104AA8008023DB011D4221D180231B021D422CD112
:104AB800AE4200D0C0E104B080BCB846F0BD0024CE
:104AC8001E435F4B1C60FFF7A7FE80236A465B000E
:104AD80093801472012101A800F04EFB8022654BDF
:104AE80012031A658023DB011D42DDD01E4380239B
:104AF80001A8DB000380012100F03EFB10225D4B82
:104B08001A6580231B021D42D2D01E43A02301A890
:104B1800DB000380012100F02FFB8022554B12019E
:104B28001A65C5E7FFF7ACFE26007EE7544B444AFA
:104B38001C66536E2340A342FBD187E73833E65CFB
:104B4800002E00D105E70233E25C002A00D100E71D
:104B5800200000222030E25400F0B8FAF9E6B83319
:104B6800E75C002F00D1FEE60233E25C002A00D0A9
:104B780022E13E00F7E67833E75C002F00D1EDE64E
:104B88000233E25C002A00D00EE13E00E6E6B933CB
:104B9800FF33E75C002F00D1FCE60233E25C002A19
:104BA80000D0F8E03E00F5E67933FF33E75C002FEC
:104BB80000D1E9E60233E25C002A00D0E2E03E00E0
:104BC800E2E63933FF33E75C002F00D1D6E6023343
:104BD800E25C002A00D0CCE03E00CFE6F833E75C88
:104BE800002F00D1C4E60233E25C002A00D0B8E00E
:104BF8003E00BDE6234BE75C002F00D1EEE6023312
:104C0800E25C002A00D010E1174BE35C022B00D1D4
:104C18008BE0164BE35C022B00D0F4E61A4BE35C06
:104C2800002B00D090E0EEE6184BE75C002F00D197
:104C3800CFE60233E25C002A00D0EEE03E00C8E690
:104C48000000115000400540FC1A0020F41A002012
:104C58003B0200007B020000BB020000FB020000D8
:104C68003B0300007B030000BB030000FB030000C4
:104C780017200020003011501000020000001050D2
:104C8800002011507A030000FA0300003A030000E4
:104C98006C4BE75C002F00D196E60233E25C002AF9
:104CA80000D0B2E03E008FE6674BE75C002F00D1F2
:104CB80085E60233E25C002A00D09EE03E007EE6F4
:104CC800624BE75C002F00D174E60233E25C002AF5
:104CD80000D08AE03E006DE65D4BE75C002F00D116
:104CE80063E60233E25C002A77D13E005DE6F933E1
:104CF800FF33E75C002F00D152E60233E25C002A62
:104D080062D13E004CE6534BE35C002B00D16AE6CF
:104D1800EF239B00E25C002A00D17AE70022E254EC
:104D28001C3BE01800F0D2F973E74A4BE35C002B18
:104D3800EED1494BE35C022B00D064E63E00474BC2
:104D4800E35C002B00D153E6FF239B00E25C002AC2
:104D580000D158E60022E2541C3BE01800F0B6F9F6
:104D680051E620000022E030E2543E0000F0AEF9A7
:104D7800FEE5200000222130FF30E2543E0000F022
:104D8800A5F9FBE5200000226130FF30E2543E0027
:104D980000F09CF9F8E520000022A130FF30E25431
:104DA8003E0000F093F9F5E5200000226030E2545F
:104DB8003E0000F08BF9D1E520000022A030E2543B
:104DC8003E0000F083F9CEE520000022E130FF30FC
:104DD800E2543E0000F07AF9E2E50022E2541C3B7E
:104DE800E01800F073F93E00DFE50022E2541C3BB6
:104DF800E01800F06BF93E00DCE50022E2541C3BB1
:104E0800E01800F063F93E00D9E50022E2541C3BAB
:104E1800E01800F05BF93E00D6E50022E2541C3BA6
:104E2800E01800F053F93E00D3E50022E2541C3BA1
:104E3800E01800F04BF9E7E631000948694000F056
:104E480097FAC046FA020000BA0200007A0200008F
:104E58003A020000BA030000FB030000FA03000056
:104E680094420010F0B5D6464F464646C0B50200FB
:104E7800838A008B8A46041C984200D91C1CD5786A
:104E880080262800471EB841A4B2F60026434003F6
:104E98003043012675401B1BD57055789BB2938211
:104EA800002D37D15146D6688D01611E7619884686
:104EB8001569002C29D006293AD933002B439B07C2
:104EC80036D16B1CF31A022B32D9231F9B080133EE
:104ED8009C4600270023E9580137F1500433BC45AC
:104EE800F9D8634641469B00ED18F618CF1A9C4244
:104EF80009D02B783370002F05D06B787370012F91
:104F080001D0AB78B3701569938A2D191561802289
:104F180012021043002B02D18023DB0118435346B1
:104F2800002B00D00004E0BCBA46B146A846F0BD4C
:104F38000023EF5CF75401339C42FAD11569938A38
:104F4800E3E7C0468368F0B51B680500002900D078
:104F58001B0C9B05980D6B78002B08D1EB8AC318A6
:104F6800EB822B8B834201D90023AB82F0BDEB6827
:104F78008901461EB4462A695C18002827D0062EE7
:104F88002BD901315B18D31A022B26D913002343DE
:104F98009B0722D100230021061FB6080136E758D7
:104FA8000131D75004338E42F9D86346B600A419AC
:104FB80092199F1BB04209D023781370002F05D097
:104FC80063785370012F01D0A37893702A69EB8A14
:104FD8001218C318EB822A61C3E70023E15CD1549D
:104FE80001339842FAD12A69F1E7C04610B50400A6
:104FF800836800211B68FFF7A5FF63681B685B00D7
:1050080002D5238B834200D010BD01212000FFF779
:1050180099FFF9E7084A0300126C0020920703D4AD
:105028009A78D209012A00D07047D87E02384342C4
:105038005841C0B2F8E7C0460000115010B5FFF75C
:10504800E9FF00280CD00749074B8C46074A9B6AA2
:10505800126863449B1A0020C6229A424041C0B29B
:1050680010BDC046E0FCFFFF00400540F41A0020D8
:1050780000238376436103617047C04610B5836897
:10508800002901D01C682140002A12D08024E400A5
:10509800114322420DD01A6822420CD1084A0A4014
:1050A8001A60084A126C920703D40C23033BFDD202
:1050B8008368196010BD8178034800F059F9C0462B
:1050C800FFFBFFFF00001150A8420010436870B5B5
:1050D800002180251E680400FFF7C4FE134B6D01F4
:1050E8001B6C05439B070FD5A3785B060FD0104BAD
:1050F8001E4080239B053343626800211360200013
:105108002A00FFF7BBFF70BDA378DB09EFD0A38AA5
:10511800002BECD001212000FFF7A4FEA023054AB4
:10512800DB05324005431343E6E7C0460000115053
:10513800FFFFFFAFFFFFFFDF70B5857E0400002D86
:1051480014D0FFF753FFA38A002B01D1280070BDAC
:105158002000FFF773FF002803D0012300252377E1
:10516800F4E72000FFF7B2FF0025EFE78178014858
:1051780000F0FEF8C8420010F0B5CE46474680B5AC
:10518800437805000E0085B0062B08D86B4A9B00B3
:10519800D3589F466A4A13780133DBB21370694BC0
:1051A8001C686269EFF3108172B61368002BFCD09B
:1051B800BFF35F8FA1612000290000F0E1F8626968
:1051C800A369BFF35F8F0021116083F31088002863
:1051D80004D105B0C0BCB946B046F0BD320069780C
:1051E800287800F0BDF8F4E70121574B1A788A4374
:1051F8001A701A7801318A431A7000225A701A7884
:1052080002318A431A70CAE7504B514F9946514BA5
:10521800002498463A7810E043461B6861015B1801
:10522800002B06D0DB69002B03D0696828789847E3
:105238003A780134E4B2944217D8A242ECD8A31ABF
:105248005B014B44EEE7404B1A78D207C1D50421E5
:105258001A780A431A70A2E73B4B1A78D207B8D5D6
:1052680004211A788A431A7099E7374F3B785B070D
:105278002BD504223B78002193433B706B460632C2
:10528800981D00F095F82B7801AC23700523637006
:105298002C4B1B6898465A69EFF3108172B6136855
:1052A800002BFCD0BFF35F8F434640469961210035
:1052B80000F066F843465A699B69BFF35F8F002187
:1052C800116083F31088002831D1FB78DB0700D404
:1052D8007FE76B460A220021981D00F069F82B78B9
:1052E80001AC2370032363706B686360154B1D6802
:1052F8006A69EFF3108172B61368002BFCD0BFF314
:105308005F8FA9612800210000F03AF86A69AB694B
:10531800BFF35F8F0021116083F31088002800D14C
:1053280057E732006178207800F01AF851E7320028
:105338006178207800F014F8C7E7C046E844001008
:1053480018200020E41800208C18002004450010C4
:10535800162000205C1700207047C046000000009F
:1053680001B40248844601BC604700BFCD2A001042
:1053780001B40248844601BC604700BFB10A00106E
:1053880001B40248844601BC604700BF753C001068
:1053980001B40248844601BC604700BF39190010B7
:1053A80001B40248844601BC604700BF4121001097
:1053B80001B40248844601BC604700BF15220010B2
:1053C80001B40248844601BC604700BF1D180010A4
:1053D80001B40248844601BC604700BFA50A00101A
:1053E80001010000244100100000000038410010B5
:1053F8000100000038410010020000003C4100108C
:105408000300000044410010040000004C4100105B
:10541800050000005041001006000000584100102F
:10542800070000005C410010080000006041001007
:1054380009000000644100100A00000068410010E3
:105448000B0000006C4100100C00000070410010BF
:105458000D000000744100100E000000784100109B
:105468000F0000008041001010000000884100106B
:10547800110000009041001012000000944100103B
:10548800130000009841001014000000384100107B
:1054980015000000384100101600000038410010C7
:1054A80017000000384100101800000038410010B3
:1054B80019000000384100101A000000384100109F
:1054C8001B0000003841001001010000000000002E
:1054D8008041001078410010B80B0000E907001067
:1054E80000000000000000000000000000000000B4
:1054F8007841001050410010E8030000A507001093
:105508000000000000000000000000000000000093
:10551800784100103C410010E8030000BD0700106E
:105528000000000000000000000000000000000073
:105538007841001044410010E8030000C90700103A
:105548000000000000000000000000000000000053
:10555800784100104C410010E8030000B10700102A
:105568000000000000000000000000000000000033
:105578009041001094410010E80300005D05001000
:105588000000000000000000000000000000000013
:1055980010000000000000000000010000000000F2
:1055A80000000000000002000000000000000000F1
:1055B8000000030000000000000000000000FF00E1
:1055C8000000000001B5486801318E46004770466A
:1055D80009380149884701BD9510001000000000F6
:1055E80000000000000000000000000000000000B3
:1055F80098110020000000000000000000000000DA
:10560800503300004C330000543300005233000084
:105618004D5300004D430000533400004334000054
:10562800592500105D260010A525001071260010D0
:105638000000000000010000E818002010000C0025
:105648000000000000000000000000000000000052
:1056580000000000FF000000000000000000000043
:0856680000000000000000003A
:04000005100001E9FD
:00000001FF
